{
	"Lottery.sol": {
		"Lottery_Contract": {
			"abi": [
				{
					"inputs": [],
					"stateMutability": "nonpayable",
					"type": "constructor"
				},
				{
					"inputs": [],
					"name": "end",
					"outputs": [],
					"stateMutability": "nonpayable",
					"type": "function"
				},
				{
					"inputs": [],
					"name": "endAt",
					"outputs": [
						{
							"internalType": "uint256",
							"name": "",
							"type": "uint256"
						}
					],
					"stateMutability": "view",
					"type": "function"
				},
				{
					"inputs": [],
					"name": "ended",
					"outputs": [
						{
							"internalType": "bool",
							"name": "",
							"type": "bool"
						}
					],
					"stateMutability": "view",
					"type": "function"
				},
				{
					"inputs": [
						{
							"internalType": "string",
							"name": "_name",
							"type": "string"
						},
						{
							"internalType": "uint256",
							"name": "_phoneNumber",
							"type": "uint256"
						}
					],
					"name": "enter",
					"outputs": [],
					"stateMutability": "payable",
					"type": "function"
				},
				{
					"inputs": [],
					"name": "getBalance",
					"outputs": [
						{
							"internalType": "uint256",
							"name": "",
							"type": "uint256"
						}
					],
					"stateMutability": "view",
					"type": "function"
				},
				{
					"inputs": [],
					"name": "getParticipants",
					"outputs": [
						{
							"internalType": "address payable[]",
							"name": "",
							"type": "address[]"
						}
					],
					"stateMutability": "view",
					"type": "function"
				},
				{
					"inputs": [],
					"name": "getRandomNumber",
					"outputs": [
						{
							"internalType": "uint256",
							"name": "",
							"type": "uint256"
						}
					],
					"stateMutability": "view",
					"type": "function"
				},
				{
					"inputs": [
						{
							"internalType": "address",
							"name": "_addr",
							"type": "address"
						}
					],
					"name": "getWinnerInfo",
					"outputs": [
						{
							"components": [
								{
									"internalType": "string",
									"name": "name",
									"type": "string"
								},
								{
									"internalType": "uint256",
									"name": "phoneNumber",
									"type": "uint256"
								},
								{
									"internalType": "address",
									"name": "walletAddress",
									"type": "address"
								}
							],
							"internalType": "struct Lottery_Contract.ParticipantStruct",
							"name": "",
							"type": "tuple"
						}
					],
					"stateMutability": "view",
					"type": "function"
				},
				{
					"inputs": [],
					"name": "owner",
					"outputs": [
						{
							"internalType": "address",
							"name": "",
							"type": "address"
						}
					],
					"stateMutability": "view",
					"type": "function"
				},
				{
					"inputs": [
						{
							"internalType": "uint256",
							"name": "",
							"type": "uint256"
						}
					],
					"name": "participants_Address",
					"outputs": [
						{
							"internalType": "address payable",
							"name": "",
							"type": "address"
						}
					],
					"stateMutability": "view",
					"type": "function"
				},
				{
					"inputs": [
						{
							"internalType": "address",
							"name": "",
							"type": "address"
						}
					],
					"name": "participants_Details",
					"outputs": [
						{
							"internalType": "string",
							"name": "name",
							"type": "string"
						},
						{
							"internalType": "uint256",
							"name": "phoneNumber",
							"type": "uint256"
						},
						{
							"internalType": "address",
							"name": "walletAddress",
							"type": "address"
						}
					],
					"stateMutability": "view",
					"type": "function"
				},
				{
					"inputs": [],
					"name": "pickWinner",
					"outputs": [],
					"stateMutability": "nonpayable",
					"type": "function"
				},
				{
					"inputs": [],
					"name": "startLottery",
					"outputs": [],
					"stateMutability": "nonpayable",
					"type": "function"
				},
				{
					"inputs": [],
					"name": "started",
					"outputs": [
						{
							"internalType": "bool",
							"name": "",
							"type": "bool"
						}
					],
					"stateMutability": "view",
					"type": "function"
				},
				{
					"inputs": [],
					"name": "winnerAddress",
					"outputs": [
						{
							"internalType": "address",
							"name": "",
							"type": "address"
						}
					],
					"stateMutability": "view",
					"type": "function"
				}
			],
			"devdoc": {
				"kind": "dev",
				"methods": {},
				"version": 1
			},
			"evm": {
				"assembly": "    /* \"Lottery.sol\":76:3017  contract Lottery_Contract {... */\n  mstore(0x40, 0x80)\n    /* \"Lottery.sol\":503:555  constructor () {... */\n  callvalue\n  dup1\n  iszero\n  tag_1\n  jumpi\n  0x00\n  dup1\n  revert\ntag_1:\n  pop\n    /* \"Lottery.sol\":537:547  msg.sender */\n  caller\n    /* \"Lottery.sol\":529:534  owner */\n  0x00\n  dup1\n    /* \"Lottery.sol\":529:547  owner = msg.sender */\n  0x0100\n  exp\n  dup2\n  sload\n  dup2\n  0xffffffffffffffffffffffffffffffffffffffff\n  mul\n  not\n  and\n  swap1\n  dup4\n  0xffffffffffffffffffffffffffffffffffffffff\n  and\n  mul\n  or\n  swap1\n  sstore\n  pop\n    /* \"Lottery.sol\":76:3017  contract Lottery_Contract {... */\n  dataSize(sub_0)\n  dup1\n  dataOffset(sub_0)\n  0x00\n  codecopy\n  0x00\n  return\nstop\n\nsub_0: assembly {\n        /* \"Lottery.sol\":76:3017  contract Lottery_Contract {... */\n      mstore(0x40, 0x80)\n      jumpi(tag_1, lt(calldatasize, 0x04))\n      shr(0xe0, calldataload(0x00))\n      dup1\n      0x799fb6ee\n      gt\n      tag_17\n      jumpi\n      dup1\n      0xd9618d80\n      gt\n      tag_18\n      jumpi\n      dup1\n      0xd9618d80\n      eq\n      tag_13\n      jumpi\n      dup1\n      0xdbdff2c1\n      eq\n      tag_14\n      jumpi\n      dup1\n      0xed7a4e0b\n      eq\n      tag_15\n      jumpi\n      dup1\n      0xefbe1c1c\n      eq\n      tag_16\n      jumpi\n      jump(tag_1)\n    tag_18:\n      dup1\n      0x799fb6ee\n      eq\n      tag_9\n      jumpi\n      dup1\n      0x7cc3ae8c\n      eq\n      tag_10\n      jumpi\n      dup1\n      0x8da5cb5b\n      eq\n      tag_11\n      jumpi\n      dup1\n      0xc6ba8211\n      eq\n      tag_12\n      jumpi\n      jump(tag_1)\n    tag_17:\n      dup1\n      0x160344e2\n      gt\n      tag_19\n      jumpi\n      dup1\n      0x160344e2\n      eq\n      tag_5\n      jumpi\n      dup1\n      0x1f2698ab\n      eq\n      tag_6\n      jumpi\n      dup1\n      0x5aa68ac0\n      eq\n      tag_7\n      jumpi\n      dup1\n      0x5d495aea\n      eq\n      tag_8\n      jumpi\n      jump(tag_1)\n    tag_19:\n      dup1\n      0x07400f09\n      eq\n      tag_2\n      jumpi\n      dup1\n      0x12065fe0\n      eq\n      tag_3\n      jumpi\n      dup1\n      0x12fa6feb\n      eq\n      tag_4\n      jumpi\n    tag_1:\n      0x00\n      dup1\n      revert\n        /* \"Lottery.sol\":1293:1772  function enter (string memory _name, uint _phoneNumber) public payable {... */\n    tag_2:\n      tag_20\n      0x04\n      dup1\n      calldatasize\n      sub\n      dup2\n      add\n      swap1\n      tag_21\n      swap2\n      swap1\n      tag_22\n      jump\t// in\n    tag_21:\n      tag_23\n      jump\t// in\n    tag_20:\n      stop\n        /* \"Lottery.sol\":730:826  function getBalance () public view returns(uint) {... */\n    tag_3:\n      callvalue\n      dup1\n      iszero\n      tag_24\n      jumpi\n      0x00\n      dup1\n      revert\n    tag_24:\n      pop\n      tag_25\n      tag_26\n      jump\t// in\n    tag_25:\n      mload(0x40)\n      tag_27\n      swap2\n      swap1\n      tag_28\n      jump\t// in\n    tag_27:\n      mload(0x40)\n      dup1\n      swap2\n      sub\n      swap1\n      return\n        /* \"Lottery.sol\":162:179  bool public ended */\n    tag_4:\n      callvalue\n      dup1\n      iszero\n      tag_29\n      jumpi\n      0x00\n      dup1\n      revert\n    tag_29:\n      pop\n      tag_30\n      tag_31\n      jump\t// in\n    tag_30:\n      mload(0x40)\n      tag_32\n      swap2\n      swap1\n      tag_33\n      jump\t// in\n    tag_32:\n      mload(0x40)\n      dup1\n      swap2\n      sub\n      swap1\n      return\n        /* \"Lottery.sol\":1056:1240  function startLottery () public OnlyOwner {... */\n    tag_5:\n      callvalue\n      dup1\n      iszero\n      tag_34\n      jumpi\n      0x00\n      dup1\n      revert\n    tag_34:\n      pop\n      tag_35\n      tag_36\n      jump\t// in\n    tag_35:\n      stop\n        /* \"Lottery.sol\":136:155  bool public started */\n    tag_6:\n      callvalue\n      dup1\n      iszero\n      tag_37\n      jumpi\n      0x00\n      dup1\n      revert\n    tag_37:\n      pop\n      tag_38\n      tag_39\n      jump\t// in\n    tag_38:\n      mload(0x40)\n      tag_40\n      swap2\n      swap1\n      tag_33\n      jump\t// in\n    tag_40:\n      mload(0x40)\n      dup1\n      swap2\n      sub\n      swap1\n      return\n        /* \"Lottery.sol\":882:1003  function getParticipants () public view returns(address payable [] memory) {... */\n    tag_7:\n      callvalue\n      dup1\n      iszero\n      tag_41\n      jumpi\n      0x00\n      dup1\n      revert\n    tag_41:\n      pop\n      tag_42\n      tag_43\n      jump\t// in\n    tag_42:\n      mload(0x40)\n      tag_44\n      swap2\n      swap1\n      tag_45\n      jump\t// in\n    tag_44:\n      mload(0x40)\n      dup1\n      swap2\n      sub\n      swap1\n      return\n        /* \"Lottery.sol\":2337:2820  function pickWinner () public OnlyOwner {... */\n    tag_8:\n      callvalue\n      dup1\n      iszero\n      tag_46\n      jumpi\n      0x00\n      dup1\n      revert\n    tag_46:\n      pop\n      tag_47\n      tag_48\n      jump\t// in\n    tag_47:\n      stop\n        /* \"Lottery.sol\":426:492  mapping (address => ParticipantStruct) public participants_Details */\n    tag_9:\n      callvalue\n      dup1\n      iszero\n      tag_49\n      jumpi\n      0x00\n      dup1\n      revert\n    tag_49:\n      pop\n      tag_50\n      0x04\n      dup1\n      calldatasize\n      sub\n      dup2\n      add\n      swap1\n      tag_51\n      swap2\n      swap1\n      tag_52\n      jump\t// in\n    tag_51:\n      tag_53\n      jump\t// in\n    tag_50:\n      mload(0x40)\n      tag_54\n      swap4\n      swap3\n      swap2\n      swap1\n      tag_55\n      jump\t// in\n    tag_54:\n      mload(0x40)\n      dup1\n      swap2\n      sub\n      swap1\n      return\n        /* \"Lottery.sol\":186:203  uint public endAt */\n    tag_10:\n      callvalue\n      dup1\n      iszero\n      tag_56\n      jumpi\n      0x00\n      dup1\n      revert\n    tag_56:\n      pop\n      tag_57\n      tag_58\n      jump\t// in\n    tag_57:\n      mload(0x40)\n      tag_59\n      swap2\n      swap1\n      tag_28\n      jump\t// in\n    tag_59:\n      mload(0x40)\n      dup1\n      swap2\n      sub\n      swap1\n      return\n        /* \"Lottery.sol\":109:129  address public owner */\n    tag_11:\n      callvalue\n      dup1\n      iszero\n      tag_60\n      jumpi\n      0x00\n      dup1\n      revert\n    tag_60:\n      pop\n      tag_61\n      tag_62\n      jump\t// in\n    tag_61:\n      mload(0x40)\n      tag_63\n      swap2\n      swap1\n      tag_64\n      jump\t// in\n    tag_63:\n      mload(0x40)\n      dup1\n      swap2\n      sub\n      swap1\n      return\n        /* \"Lottery.sol\":373:419  address payable [] public participants_Address */\n    tag_12:\n      callvalue\n      dup1\n      iszero\n      tag_65\n      jumpi\n      0x00\n      dup1\n      revert\n    tag_65:\n      pop\n      tag_66\n      0x04\n      dup1\n      calldatasize\n      sub\n      dup2\n      add\n      swap1\n      tag_67\n      swap2\n      swap1\n      tag_68\n      jump\t// in\n    tag_67:\n      tag_69\n      jump\t// in\n    tag_66:\n      mload(0x40)\n      tag_70\n      swap2\n      swap1\n      tag_71\n      jump\t// in\n    tag_70:\n      mload(0x40)\n      dup1\n      swap2\n      sub\n      swap1\n      return\n        /* \"Lottery.sol\":2875:3014  function getWinnerInfo (address _addr) public view returns (ParticipantStruct memory) {... */\n    tag_13:\n      callvalue\n      dup1\n      iszero\n      tag_72\n      jumpi\n      0x00\n      dup1\n      revert\n    tag_72:\n      pop\n      tag_73\n      0x04\n      dup1\n      calldatasize\n      sub\n      dup2\n      add\n      swap1\n      tag_74\n      swap2\n      swap1\n      tag_52\n      jump\t// in\n    tag_74:\n      tag_75\n      jump\t// in\n    tag_73:\n      mload(0x40)\n      tag_76\n      swap2\n      swap1\n      tag_77\n      jump\t// in\n    tag_76:\n      mload(0x40)\n      dup1\n      swap2\n      sub\n      swap1\n      return\n        /* \"Lottery.sol\":2141:2284  function getRandomNumber () public view returns (uint) {... */\n    tag_14:\n      callvalue\n      dup1\n      iszero\n      tag_78\n      jumpi\n      0x00\n      dup1\n      revert\n    tag_78:\n      pop\n      tag_79\n      tag_80\n      jump\t// in\n    tag_79:\n      mload(0x40)\n      tag_81\n      swap2\n      swap1\n      tag_28\n      jump\t// in\n    tag_81:\n      mload(0x40)\n      dup1\n      swap2\n      sub\n      swap1\n      return\n        /* \"Lottery.sol\":210:238  address public winnerAddress */\n    tag_15:\n      callvalue\n      dup1\n      iszero\n      tag_82\n      jumpi\n      0x00\n      dup1\n      revert\n    tag_82:\n      pop\n      tag_83\n      tag_84\n      jump\t// in\n    tag_83:\n      mload(0x40)\n      tag_85\n      swap2\n      swap1\n      tag_64\n      jump\t// in\n    tag_85:\n      mload(0x40)\n      dup1\n      swap2\n      sub\n      swap1\n      return\n        /* \"Lottery.sol\":1823:2080  function end () public {... */\n    tag_16:\n      callvalue\n      dup1\n      iszero\n      tag_86\n      jumpi\n      0x00\n      dup1\n      revert\n    tag_86:\n      pop\n      tag_87\n      tag_88\n      jump\t// in\n    tag_87:\n      stop\n        /* \"Lottery.sol\":1293:1772  function enter (string memory _name, uint _phoneNumber) public payable {... */\n    tag_23:\n        /* \"Lottery.sol\":1394:1398  true */\n      0x01\n        /* \"Lottery.sol\":1383:1398  started == true */\n      iszero\n      iszero\n        /* \"Lottery.sol\":1383:1390  started */\n      0x00\n      0x14\n      swap1\n      sload\n      swap1\n      0x0100\n      exp\n      swap1\n      div\n      0xff\n      and\n        /* \"Lottery.sol\":1383:1398  started == true */\n      iszero\n      iszero\n      eq\n        /* \"Lottery.sol\":1375:1452  require(started == true, \"Lottery should be started first before you enter!\") */\n      tag_90\n      jumpi\n      mload(0x40)\n      0x08c379a000000000000000000000000000000000000000000000000000000000\n      dup2\n      mstore\n      0x04\n      add\n      tag_91\n      swap1\n      tag_92\n      jump\t// in\n    tag_91:\n      mload(0x40)\n      dup1\n      swap2\n      sub\n      swap1\n      revert\n    tag_90:\n        /* \"Lottery.sol\":1472:1477  ended */\n      0x00\n      0x15\n      swap1\n      sload\n      swap1\n      0x0100\n      exp\n      swap1\n      div\n      0xff\n      and\n        /* \"Lottery.sol\":1471:1477  !ended */\n      iszero\n        /* \"Lottery.sol\":1463:1508  require(!ended, \"Lottery has already ended!\") */\n      tag_93\n      jumpi\n      mload(0x40)\n      0x08c379a000000000000000000000000000000000000000000000000000000000\n      dup2\n      mstore\n      0x04\n      add\n      tag_94\n      swap1\n      tag_95\n      jump\t// in\n    tag_94:\n      mload(0x40)\n      dup1\n      swap2\n      sub\n      swap1\n      revert\n    tag_93:\n        /* \"Lottery.sol\":1540:1549  .01 ether */\n      0x2386f26fc10000\n        /* \"Lottery.sol\":1527:1536  msg.value */\n      callvalue\n        /* \"Lottery.sol\":1527:1549  msg.value >= .01 ether */\n      lt\n      iszero\n        /* \"Lottery.sol\":1519:1601  require(msg.value >= .01 ether, \"You need atleast .01 ether to enter the lottery\") */\n      tag_96\n      jumpi\n      mload(0x40)\n      0x08c379a000000000000000000000000000000000000000000000000000000000\n      dup2\n      mstore\n      0x04\n      add\n      tag_97\n      swap1\n      tag_98\n      jump\t// in\n    tag_97:\n      mload(0x40)\n      dup1\n      swap2\n      sub\n      swap1\n      revert\n    tag_96:\n        /* \"Lottery.sol\":1622:1642  participants_Address */\n      0x03\n        /* \"Lottery.sol\":1656:1666  msg.sender */\n      caller\n        /* \"Lottery.sol\":1622:1668  participants_Address.push(payable(msg.sender)) */\n      swap1\n      dup1\n      0x01\n      dup2\n      sload\n      add\n      dup1\n      dup3\n      sstore\n      dup1\n      swap2\n      pop\n      pop\n      0x01\n      swap1\n      sub\n      swap1\n      0x00\n      mstore\n      keccak256(0x00, 0x20)\n      add\n      0x00\n      swap1\n      swap2\n      swap1\n      swap2\n      swap1\n      swap2\n      0x0100\n      exp\n      dup2\n      sload\n      dup2\n      0xffffffffffffffffffffffffffffffffffffffff\n      mul\n      not\n      and\n      swap1\n      dup4\n      0xffffffffffffffffffffffffffffffffffffffff\n      and\n      mul\n      or\n      swap1\n      sstore\n      pop\n        /* \"Lottery.sol\":1714:1764  ParticipantStruct(_name, _phoneNumber, msg.sender) */\n      mload(0x40)\n      dup1\n      0x60\n      add\n      0x40\n      mstore\n      dup1\n        /* \"Lottery.sol\":1732:1737  _name */\n      dup4\n        /* \"Lottery.sol\":1714:1764  ParticipantStruct(_name, _phoneNumber, msg.sender) */\n      dup2\n      mstore\n      0x20\n      add\n        /* \"Lottery.sol\":1739:1751  _phoneNumber */\n      dup3\n        /* \"Lottery.sol\":1714:1764  ParticipantStruct(_name, _phoneNumber, msg.sender) */\n      dup2\n      mstore\n      0x20\n      add\n        /* \"Lottery.sol\":1753:1763  msg.sender */\n      caller\n        /* \"Lottery.sol\":1714:1764  ParticipantStruct(_name, _phoneNumber, msg.sender) */\n      0xffffffffffffffffffffffffffffffffffffffff\n      and\n      dup2\n      mstore\n      pop\n        /* \"Lottery.sol\":1679:1699  participants_Details */\n      0x04\n        /* \"Lottery.sol\":1679:1711  participants_Details[msg.sender] */\n      0x00\n        /* \"Lottery.sol\":1700:1710  msg.sender */\n      caller\n        /* \"Lottery.sol\":1679:1711  participants_Details[msg.sender] */\n      0xffffffffffffffffffffffffffffffffffffffff\n      and\n      0xffffffffffffffffffffffffffffffffffffffff\n      and\n      dup2\n      mstore\n      0x20\n      add\n      swap1\n      dup2\n      mstore\n      0x20\n      add\n      0x00\n      keccak256\n        /* \"Lottery.sol\":1679:1764  participants_Details[msg.sender] = ParticipantStruct(_name, _phoneNumber, msg.sender) */\n      0x00\n      dup3\n      add\n      mload\n      dup2\n      0x00\n      add\n      swap1\n      dup2\n      tag_100\n      swap2\n      swap1\n      tag_101\n      jump\t// in\n    tag_100:\n      pop\n      0x20\n      dup3\n      add\n      mload\n      dup2\n      0x01\n      add\n      sstore\n      0x40\n      dup3\n      add\n      mload\n      dup2\n      0x02\n      add\n      exp(0x0100, 0x00)\n      dup2\n      sload\n      dup2\n      0xffffffffffffffffffffffffffffffffffffffff\n      mul\n      not\n      and\n      swap1\n      dup4\n      0xffffffffffffffffffffffffffffffffffffffff\n      and\n      mul\n      or\n      swap1\n      sstore\n      pop\n      swap1\n      pop\n      pop\n        /* \"Lottery.sol\":1293:1772  function enter (string memory _name, uint _phoneNumber) public payable {... */\n      pop\n      pop\n      jump\t// out\n        /* \"Lottery.sol\":730:826  function getBalance () public view returns(uint) {... */\n    tag_26:\n        /* \"Lottery.sol\":773:777  uint */\n      0x00\n        /* \"Lottery.sol\":797:818  address(this).balance */\n      selfbalance\n        /* \"Lottery.sol\":790:818  return address(this).balance */\n      swap1\n      pop\n        /* \"Lottery.sol\":730:826  function getBalance () public view returns(uint) {... */\n      swap1\n      jump\t// out\n        /* \"Lottery.sol\":162:179  bool public ended */\n    tag_31:\n      0x00\n      0x15\n      swap1\n      sload\n      swap1\n      0x0100\n      exp\n      swap1\n      div\n      0xff\n      and\n      dup2\n      jump\t// out\n        /* \"Lottery.sol\":1056:1240  function startLottery () public OnlyOwner {... */\n    tag_36:\n        /* \"Lottery.sol\":615:620  owner */\n      0x00\n      dup1\n      sload\n      swap1\n      0x0100\n      exp\n      swap1\n      div\n      0xffffffffffffffffffffffffffffffffffffffff\n      and\n        /* \"Lottery.sol\":601:620  msg.sender == owner */\n      0xffffffffffffffffffffffffffffffffffffffff\n      and\n        /* \"Lottery.sol\":601:611  msg.sender */\n      caller\n        /* \"Lottery.sol\":601:620  msg.sender == owner */\n      0xffffffffffffffffffffffffffffffffffffffff\n      and\n      eq\n        /* \"Lottery.sol\":593:659  require(msg.sender == owner, \"Only owner can call this function!\") */\n      tag_104\n      jumpi\n      mload(0x40)\n      0x08c379a000000000000000000000000000000000000000000000000000000000\n      dup2\n      mstore\n      0x04\n      add\n      tag_105\n      swap1\n      tag_106\n      jump\t// in\n    tag_105:\n      mload(0x40)\n      dup1\n      swap2\n      sub\n      swap1\n      revert\n    tag_104:\n        /* \"Lottery.sol\":1118:1125  started */\n      0x00\n      0x14\n      swap1\n      sload\n      swap1\n      0x0100\n      exp\n      swap1\n      div\n      0xff\n      and\n        /* \"Lottery.sol\":1117:1125  !started */\n      iszero\n        /* \"Lottery.sol\":1109:1154  require(!started, \"Lottery already started!\") */\n      tag_108\n      jumpi\n      mload(0x40)\n      0x08c379a000000000000000000000000000000000000000000000000000000000\n      dup2\n      mstore\n      0x04\n      add\n      tag_109\n      swap1\n      tag_110\n      jump\t// in\n    tag_109:\n      mload(0x40)\n      dup1\n      swap2\n      sub\n      swap1\n      revert\n    tag_108:\n        /* \"Lottery.sol\":1185:1189  true */\n      0x01\n        /* \"Lottery.sol\":1175:1182  started */\n      0x00\n      0x14\n        /* \"Lottery.sol\":1175:1189  started = true */\n      0x0100\n      exp\n      dup2\n      sload\n      dup2\n      0xff\n      mul\n      not\n      and\n      swap1\n      dup4\n      iszero\n      iszero\n      mul\n      or\n      swap1\n      sstore\n      pop\n        /* \"Lottery.sol\":1226:1232  7 days */\n      0x093a80\n        /* \"Lottery.sol\":1208:1223  block.timestamp */\n      timestamp\n        /* \"Lottery.sol\":1208:1232  block.timestamp + 7 days */\n      tag_111\n      swap2\n      swap1\n      tag_112\n      jump\t// in\n    tag_111:\n        /* \"Lottery.sol\":1200:1205  endAt */\n      0x01\n        /* \"Lottery.sol\":1200:1232  endAt = block.timestamp + 7 days */\n      dup2\n      swap1\n      sstore\n      pop\n        /* \"Lottery.sol\":1056:1240  function startLottery () public OnlyOwner {... */\n      jump\t// out\n        /* \"Lottery.sol\":136:155  bool public started */\n    tag_39:\n      0x00\n      0x14\n      swap1\n      sload\n      swap1\n      0x0100\n      exp\n      swap1\n      div\n      0xff\n      and\n      dup2\n      jump\t// out\n        /* \"Lottery.sol\":882:1003  function getParticipants () public view returns(address payable [] memory) {... */\n    tag_43:\n        /* \"Lottery.sol\":930:955  address payable [] memory */\n      0x60\n        /* \"Lottery.sol\":975:995  participants_Address */\n      0x03\n        /* \"Lottery.sol\":968:995  return participants_Address */\n      dup1\n      sload\n      dup1\n      0x20\n      mul\n      0x20\n      add\n      mload(0x40)\n      swap1\n      dup2\n      add\n      0x40\n      mstore\n      dup1\n      swap3\n      swap2\n      swap1\n      dup2\n      dup2\n      mstore\n      0x20\n      add\n      dup3\n      dup1\n      sload\n      dup1\n      iszero\n      tag_114\n      jumpi\n      0x20\n      mul\n      dup3\n      add\n      swap2\n      swap1\n      0x00\n      mstore\n      keccak256(0x00, 0x20)\n      swap1\n    tag_115:\n      dup2\n      0x00\n      swap1\n      sload\n      swap1\n      0x0100\n      exp\n      swap1\n      div\n      0xffffffffffffffffffffffffffffffffffffffff\n      and\n      0xffffffffffffffffffffffffffffffffffffffff\n      and\n      dup2\n      mstore\n      0x20\n      add\n      swap1\n      0x01\n      add\n      swap1\n      dup1\n      dup4\n      gt\n      tag_115\n      jumpi\n    tag_114:\n      pop\n      pop\n      pop\n      pop\n      pop\n      swap1\n      pop\n        /* \"Lottery.sol\":882:1003  function getParticipants () public view returns(address payable [] memory) {... */\n      swap1\n      jump\t// out\n        /* \"Lottery.sol\":2337:2820  function pickWinner () public OnlyOwner {... */\n    tag_48:\n        /* \"Lottery.sol\":615:620  owner */\n      0x00\n      dup1\n      sload\n      swap1\n      0x0100\n      exp\n      swap1\n      div\n      0xffffffffffffffffffffffffffffffffffffffff\n      and\n        /* \"Lottery.sol\":601:620  msg.sender == owner */\n      0xffffffffffffffffffffffffffffffffffffffff\n      and\n        /* \"Lottery.sol\":601:611  msg.sender */\n      caller\n        /* \"Lottery.sol\":601:620  msg.sender == owner */\n      0xffffffffffffffffffffffffffffffffffffffff\n      and\n      eq\n        /* \"Lottery.sol\":593:659  require(msg.sender == owner, \"Only owner can call this function!\") */\n      tag_117\n      jumpi\n      mload(0x40)\n      0x08c379a000000000000000000000000000000000000000000000000000000000\n      dup2\n      mstore\n      0x04\n      add\n      tag_118\n      swap1\n      tag_106\n      jump\t// in\n    tag_118:\n      mload(0x40)\n      dup1\n      swap2\n      sub\n      swap1\n      revert\n    tag_117:\n        /* \"Lottery.sol\":2396:2401  ended */\n      0x00\n      0x15\n      swap1\n      sload\n      swap1\n      0x0100\n      exp\n      swap1\n      div\n      0xff\n      and\n        /* \"Lottery.sol\":2388:2463  require(ended, \"Lottery should be ended in order to determine the winner!\") */\n      tag_120\n      jumpi\n      mload(0x40)\n      0x08c379a000000000000000000000000000000000000000000000000000000000\n      dup2\n      mstore\n      0x04\n      add\n      tag_121\n      swap1\n      tag_122\n      jump\t// in\n    tag_121:\n      mload(0x40)\n      dup1\n      swap2\n      sub\n      swap1\n      revert\n    tag_120:\n        /* \"Lottery.sol\":2474:2484  uint index */\n      0x00\n        /* \"Lottery.sol\":2507:2527  participants_Address */\n      0x03\n        /* \"Lottery.sol\":2507:2534  participants_Address.length */\n      dup1\n      sload\n      swap1\n      pop\n        /* \"Lottery.sol\":2487:2504  getRandomNumber() */\n      tag_123\n        /* \"Lottery.sol\":2487:2502  getRandomNumber */\n      tag_80\n        /* \"Lottery.sol\":2487:2504  getRandomNumber() */\n      jump\t// in\n    tag_123:\n        /* \"Lottery.sol\":2487:2534  getRandomNumber() % participants_Address.length */\n      tag_124\n      swap2\n      swap1\n      tag_125\n      jump\t// in\n    tag_124:\n        /* \"Lottery.sol\":2474:2534  uint index = getRandomNumber() % participants_Address.length */\n      swap1\n      pop\n        /* \"Lottery.sol\":2571:2591  participants_Address */\n      0x03\n        /* \"Lottery.sol\":2592:2597  index */\n      dup2\n        /* \"Lottery.sol\":2571:2598  participants_Address[index] */\n      dup2\n      sload\n      dup2\n      lt\n      tag_126\n      jumpi\n      tag_127\n      tag_128\n      jump\t// in\n    tag_127:\n    tag_126:\n      swap1\n      0x00\n      mstore\n      keccak256(0x00, 0x20)\n      add\n      0x00\n      swap1\n      sload\n      swap1\n      0x0100\n      exp\n      swap1\n      div\n      0xffffffffffffffffffffffffffffffffffffffff\n      and\n        /* \"Lottery.sol\":2555:2568  winnerAddress */\n      0x02\n      0x00\n        /* \"Lottery.sol\":2555:2598  winnerAddress = participants_Address[index] */\n      0x0100\n      exp\n      dup2\n      sload\n      dup2\n      0xffffffffffffffffffffffffffffffffffffffff\n      mul\n      not\n      and\n      swap1\n      dup4\n      0xffffffffffffffffffffffffffffffffffffffff\n      and\n      mul\n      or\n      swap1\n      sstore\n      pop\n        /* \"Lottery.sol\":2610:2621  bool isSent */\n      0x00\n        /* \"Lottery.sol\":2627:2647  participants_Address */\n      0x03\n        /* \"Lottery.sol\":2648:2653  index */\n      dup3\n        /* \"Lottery.sol\":2627:2654  participants_Address[index] */\n      dup2\n      sload\n      dup2\n      lt\n      tag_130\n      jumpi\n      tag_131\n      tag_128\n      jump\t// in\n    tag_131:\n    tag_130:\n      swap1\n      0x00\n      mstore\n      keccak256(0x00, 0x20)\n      add\n      0x00\n      swap1\n      sload\n      swap1\n      0x0100\n      exp\n      swap1\n      div\n      0xffffffffffffffffffffffffffffffffffffffff\n      and\n        /* \"Lottery.sol\":2627:2659  participants_Address[index].call */\n      0xffffffffffffffffffffffffffffffffffffffff\n      and\n        /* \"Lottery.sol\":2667:2688  address(this).balance */\n      selfbalance\n        /* \"Lottery.sol\":2627:2693  participants_Address[index].call{value: address(this).balance}(\"\") */\n      mload(0x40)\n      tag_133\n      swap1\n      tag_134\n      jump\t// in\n    tag_133:\n      0x00\n      mload(0x40)\n      dup1\n      dup4\n      sub\n      dup2\n      dup6\n      dup8\n      gas\n      call\n      swap3\n      pop\n      pop\n      pop\n      returndatasize\n      dup1\n      0x00\n      dup2\n      eq\n      tag_137\n      jumpi\n      mload(0x40)\n      swap2\n      pop\n      and(add(returndatasize, 0x3f), not(0x1f))\n      dup3\n      add\n      0x40\n      mstore\n      returndatasize\n      dup3\n      mstore\n      returndatasize\n      0x00\n      0x20\n      dup5\n      add\n      returndatacopy\n      jump(tag_136)\n    tag_137:\n      0x60\n      swap2\n      pop\n    tag_136:\n      pop\n        /* \"Lottery.sol\":2609:2693  (bool isSent, ) = participants_Address[index].call{value: address(this).balance}(\"\") */\n      pop\n      swap1\n      pop\n        /* \"Lottery.sol\":2712:2718  isSent */\n      dup1\n        /* \"Lottery.sol\":2704:2743  require(isSent, \"Transfering Failled!\") */\n      tag_138\n      jumpi\n      mload(0x40)\n      0x08c379a000000000000000000000000000000000000000000000000000000000\n      dup2\n      mstore\n      0x04\n      add\n      tag_139\n      swap1\n      tag_140\n      jump\t// in\n    tag_139:\n      mload(0x40)\n      dup1\n      swap2\n      sub\n      swap1\n      revert\n    tag_138:\n        /* \"Lottery.sol\":2802:2803  0 */\n      0x00\n        /* \"Lottery.sol\":2779:2804  new address payable [](0) */\n      0xffffffffffffffff\n      dup2\n      gt\n      iszero\n      tag_141\n      jumpi\n      tag_142\n      tag_143\n      jump\t// in\n    tag_142:\n    tag_141:\n      mload(0x40)\n      swap1\n      dup1\n      dup3\n      mstore\n      dup1\n      0x20\n      mul\n      0x20\n      add\n      dup3\n      add\n      0x40\n      mstore\n      dup1\n      iszero\n      tag_144\n      jumpi\n      dup2\n      0x20\n      add\n      0x20\n      dup3\n      mul\n      dup1\n      calldatasize\n      dup4\n      calldatacopy\n      dup1\n      dup3\n      add\n      swap2\n      pop\n      pop\n      swap1\n      pop\n    tag_144:\n      pop\n        /* \"Lottery.sol\":2756:2776  participants_Address */\n      0x03\n        /* \"Lottery.sol\":2756:2804  participants_Address = new address payable [](0) */\n      swap1\n      dup1\n      mload\n      swap1\n      0x20\n      add\n      swap1\n      tag_145\n      swap3\n      swap2\n      swap1\n      tag_146\n      jump\t// in\n    tag_145:\n      pop\n        /* \"Lottery.sol\":2377:2820  {... */\n      pop\n      pop\n        /* \"Lottery.sol\":2337:2820  function pickWinner () public OnlyOwner {... */\n      jump\t// out\n        /* \"Lottery.sol\":426:492  mapping (address => ParticipantStruct) public participants_Details */\n    tag_53:\n      mstore(0x20, 0x04)\n      dup1\n      0x00\n      mstore\n      keccak256(0x00, 0x40)\n      0x00\n      swap2\n      pop\n      swap1\n      pop\n      dup1\n      0x00\n      add\n      dup1\n      sload\n      tag_147\n      swap1\n      tag_148\n      jump\t// in\n    tag_147:\n      dup1\n      0x1f\n      add\n      0x20\n      dup1\n      swap2\n      div\n      mul\n      0x20\n      add\n      mload(0x40)\n      swap1\n      dup2\n      add\n      0x40\n      mstore\n      dup1\n      swap3\n      swap2\n      swap1\n      dup2\n      dup2\n      mstore\n      0x20\n      add\n      dup3\n      dup1\n      sload\n      tag_149\n      swap1\n      tag_148\n      jump\t// in\n    tag_149:\n      dup1\n      iszero\n      tag_150\n      jumpi\n      dup1\n      0x1f\n      lt\n      tag_151\n      jumpi\n      0x0100\n      dup1\n      dup4\n      sload\n      div\n      mul\n      dup4\n      mstore\n      swap2\n      0x20\n      add\n      swap2\n      jump(tag_150)\n    tag_151:\n      dup3\n      add\n      swap2\n      swap1\n      0x00\n      mstore\n      keccak256(0x00, 0x20)\n      swap1\n    tag_152:\n      dup2\n      sload\n      dup2\n      mstore\n      swap1\n      0x01\n      add\n      swap1\n      0x20\n      add\n      dup1\n      dup4\n      gt\n      tag_152\n      jumpi\n      dup3\n      swap1\n      sub\n      0x1f\n      and\n      dup3\n      add\n      swap2\n    tag_150:\n      pop\n      pop\n      pop\n      pop\n      pop\n      swap1\n      dup1\n      0x01\n      add\n      sload\n      swap1\n      dup1\n      0x02\n      add\n      0x00\n      swap1\n      sload\n      swap1\n      0x0100\n      exp\n      swap1\n      div\n      0xffffffffffffffffffffffffffffffffffffffff\n      and\n      swap1\n      pop\n      dup4\n      jump\t// out\n        /* \"Lottery.sol\":186:203  uint public endAt */\n    tag_58:\n      sload(0x01)\n      dup2\n      jump\t// out\n        /* \"Lottery.sol\":109:129  address public owner */\n    tag_62:\n      0x00\n      dup1\n      sload\n      swap1\n      0x0100\n      exp\n      swap1\n      div\n      0xffffffffffffffffffffffffffffffffffffffff\n      and\n      dup2\n      jump\t// out\n        /* \"Lottery.sol\":373:419  address payable [] public participants_Address */\n    tag_69:\n      0x03\n      dup2\n      dup2\n      sload\n      dup2\n      lt\n      tag_153\n      jumpi\n      0x00\n      dup1\n      revert\n    tag_153:\n      swap1\n      0x00\n      mstore\n      keccak256(0x00, 0x20)\n      add\n      0x00\n      swap2\n      pop\n      sload\n      swap1\n      0x0100\n      exp\n      swap1\n      div\n      0xffffffffffffffffffffffffffffffffffffffff\n      and\n      dup2\n      jump\t// out\n        /* \"Lottery.sol\":2875:3014  function getWinnerInfo (address _addr) public view returns (ParticipantStruct memory) {... */\n    tag_75:\n        /* \"Lottery.sol\":2935:2959  ParticipantStruct memory */\n      tag_155\n      tag_156\n      jump\t// in\n    tag_155:\n        /* \"Lottery.sol\":2979:2999  participants_Details */\n      0x04\n        /* \"Lottery.sol\":2979:3006  participants_Details[_addr] */\n      0x00\n        /* \"Lottery.sol\":3000:3005  _addr */\n      dup4\n        /* \"Lottery.sol\":2979:3006  participants_Details[_addr] */\n      0xffffffffffffffffffffffffffffffffffffffff\n      and\n      0xffffffffffffffffffffffffffffffffffffffff\n      and\n      dup2\n      mstore\n      0x20\n      add\n      swap1\n      dup2\n      mstore\n      0x20\n      add\n      0x00\n      keccak256\n        /* \"Lottery.sol\":2972:3006  return participants_Details[_addr] */\n      mload(0x40)\n      dup1\n      0x60\n      add\n      0x40\n      mstore\n      swap1\n      dup2\n      0x00\n      dup3\n      add\n      dup1\n      sload\n      tag_158\n      swap1\n      tag_148\n      jump\t// in\n    tag_158:\n      dup1\n      0x1f\n      add\n      0x20\n      dup1\n      swap2\n      div\n      mul\n      0x20\n      add\n      mload(0x40)\n      swap1\n      dup2\n      add\n      0x40\n      mstore\n      dup1\n      swap3\n      swap2\n      swap1\n      dup2\n      dup2\n      mstore\n      0x20\n      add\n      dup3\n      dup1\n      sload\n      tag_159\n      swap1\n      tag_148\n      jump\t// in\n    tag_159:\n      dup1\n      iszero\n      tag_160\n      jumpi\n      dup1\n      0x1f\n      lt\n      tag_161\n      jumpi\n      0x0100\n      dup1\n      dup4\n      sload\n      div\n      mul\n      dup4\n      mstore\n      swap2\n      0x20\n      add\n      swap2\n      jump(tag_160)\n    tag_161:\n      dup3\n      add\n      swap2\n      swap1\n      0x00\n      mstore\n      keccak256(0x00, 0x20)\n      swap1\n    tag_162:\n      dup2\n      sload\n      dup2\n      mstore\n      swap1\n      0x01\n      add\n      swap1\n      0x20\n      add\n      dup1\n      dup4\n      gt\n      tag_162\n      jumpi\n      dup3\n      swap1\n      sub\n      0x1f\n      and\n      dup3\n      add\n      swap2\n    tag_160:\n      pop\n      pop\n      pop\n      pop\n      pop\n      dup2\n      mstore\n      0x20\n      add\n      0x01\n      dup3\n      add\n      sload\n      dup2\n      mstore\n      0x20\n      add\n      0x02\n      dup3\n      add\n      0x00\n      swap1\n      sload\n      swap1\n      0x0100\n      exp\n      swap1\n      div\n      0xffffffffffffffffffffffffffffffffffffffff\n      and\n      0xffffffffffffffffffffffffffffffffffffffff\n      and\n      0xffffffffffffffffffffffffffffffffffffffff\n      and\n      dup2\n      mstore\n      pop\n      pop\n      swap1\n      pop\n        /* \"Lottery.sol\":2875:3014  function getWinnerInfo (address _addr) public view returns (ParticipantStruct memory) {... */\n      swap2\n      swap1\n      pop\n      jump\t// out\n        /* \"Lottery.sol\":2141:2284  function getRandomNumber () public view returns (uint) {... */\n    tag_80:\n        /* \"Lottery.sol\":2190:2194  uint */\n      0x00\n        /* \"Lottery.sol\":2246:2261  block.timestamp */\n      timestamp\n        /* \"Lottery.sol\":2263:2273  msg.sender */\n      caller\n        /* \"Lottery.sol\":2229:2274  abi.encodePacked(block.timestamp, msg.sender) */\n      add(0x20, mload(0x40))\n      tag_164\n      swap3\n      swap2\n      swap1\n      tag_165\n      jump\t// in\n    tag_164:\n      mload(0x40)\n      0x20\n      dup2\n      dup4\n      sub\n      sub\n      dup2\n      mstore\n      swap1\n      0x40\n      mstore\n        /* \"Lottery.sol\":2219:2275  keccak256(abi.encodePacked(block.timestamp, msg.sender)) */\n      dup1\n      mload\n      swap1\n      0x20\n      add\n      keccak256\n        /* \"Lottery.sol\":2214:2276  uint(keccak256(abi.encodePacked(block.timestamp, msg.sender))) */\n      0x00\n      shr\n        /* \"Lottery.sol\":2207:2276  return uint(keccak256(abi.encodePacked(block.timestamp, msg.sender))) */\n      swap1\n      pop\n        /* \"Lottery.sol\":2141:2284  function getRandomNumber () public view returns (uint) {... */\n      swap1\n      jump\t// out\n        /* \"Lottery.sol\":210:238  address public winnerAddress */\n    tag_84:\n      0x02\n      0x00\n      swap1\n      sload\n      swap1\n      0x0100\n      exp\n      swap1\n      div\n      0xffffffffffffffffffffffffffffffffffffffff\n      and\n      dup2\n      jump\t// out\n        /* \"Lottery.sol\":1823:2080  function end () public {... */\n    tag_88:\n        /* \"Lottery.sol\":1865:1872  started */\n      0x00\n      0x14\n      swap1\n      sload\n      swap1\n      0x0100\n      exp\n      swap1\n      div\n      0xff\n      and\n        /* \"Lottery.sol\":1857:1924  require(started, \"Lottery should be started first before it ends!\") */\n      tag_167\n      jumpi\n      mload(0x40)\n      0x08c379a000000000000000000000000000000000000000000000000000000000\n      dup2\n      mstore\n      0x04\n      add\n      tag_168\n      swap1\n      tag_169\n      jump\t// in\n    tag_168:\n      mload(0x40)\n      dup1\n      swap2\n      sub\n      swap1\n      revert\n    tag_167:\n        /* \"Lottery.sol\":1944:1949  ended */\n      0x00\n      0x15\n      swap1\n      sload\n      swap1\n      0x0100\n      exp\n      swap1\n      div\n      0xff\n      and\n        /* \"Lottery.sol\":1943:1949  !ended */\n      iszero\n        /* \"Lottery.sol\":1935:1976  require(!ended, \"Lottery already ended!\") */\n      tag_170\n      jumpi\n      mload(0x40)\n      0x08c379a000000000000000000000000000000000000000000000000000000000\n      dup2\n      mstore\n      0x04\n      add\n      tag_171\n      swap1\n      tag_172\n      jump\t// in\n    tag_171:\n      mload(0x40)\n      dup1\n      swap2\n      sub\n      swap1\n      revert\n    tag_170:\n        /* \"Lottery.sol\":2013:2018  endAt */\n      sload(0x01)\n        /* \"Lottery.sol\":1995:2010  block.timestamp */\n      timestamp\n        /* \"Lottery.sol\":1995:2018  block.timestamp > endAt */\n      gt\n        /* \"Lottery.sol\":1987:2047  require(block.timestamp > endAt, \"Lottery is still ongoing\") */\n      tag_173\n      jumpi\n      mload(0x40)\n      0x08c379a000000000000000000000000000000000000000000000000000000000\n      dup2\n      mstore\n      0x04\n      add\n      tag_174\n      swap1\n      tag_175\n      jump\t// in\n    tag_174:\n      mload(0x40)\n      dup1\n      swap2\n      sub\n      swap1\n      revert\n    tag_173:\n        /* \"Lottery.sol\":2068:2072  true */\n      0x01\n        /* \"Lottery.sol\":2060:2065  ended */\n      0x00\n      0x15\n        /* \"Lottery.sol\":2060:2072  ended = true */\n      0x0100\n      exp\n      dup2\n      sload\n      dup2\n      0xff\n      mul\n      not\n      and\n      swap1\n      dup4\n      iszero\n      iszero\n      mul\n      or\n      swap1\n      sstore\n      pop\n        /* \"Lottery.sol\":1823:2080  function end () public {... */\n      jump\t// out\n    tag_146:\n      dup3\n      dup1\n      sload\n      dup3\n      dup3\n      sstore\n      swap1\n      0x00\n      mstore\n      keccak256(0x00, 0x20)\n      swap1\n      dup2\n      add\n      swap3\n      dup3\n      iszero\n      tag_176\n      jumpi\n      swap2\n      0x20\n      mul\n      dup3\n      add\n    tag_177:\n      dup3\n      dup2\n      gt\n      iszero\n      tag_178\n      jumpi\n      dup3\n      mload\n      dup3\n      exp(0x0100, 0x00)\n      dup2\n      sload\n      dup2\n      0xffffffffffffffffffffffffffffffffffffffff\n      mul\n      not\n      and\n      swap1\n      dup4\n      0xffffffffffffffffffffffffffffffffffffffff\n      and\n      mul\n      or\n      swap1\n      sstore\n      pop\n      swap2\n      0x20\n      add\n      swap2\n      swap1\n      0x01\n      add\n      swap1\n      jump(tag_177)\n    tag_178:\n    tag_176:\n      pop\n      swap1\n      pop\n      tag_179\n      swap2\n      swap1\n      tag_180\n      jump\t// in\n    tag_179:\n      pop\n      swap1\n      jump\t// out\n    tag_156:\n      mload(0x40)\n      dup1\n      0x60\n      add\n      0x40\n      mstore\n      dup1\n      0x60\n      dup2\n      mstore\n      0x20\n      add\n      0x00\n      dup2\n      mstore\n      0x20\n      add\n      and(0xffffffffffffffffffffffffffffffffffffffff, 0x00)\n      dup2\n      mstore\n      pop\n      swap1\n      jump\t// out\n    tag_180:\n    tag_181:\n      dup1\n      dup3\n      gt\n      iszero\n      tag_182\n      jumpi\n      0x00\n      dup2\n      0x00\n      swap1\n      sstore\n      pop\n      0x01\n      add\n      jump(tag_181)\n    tag_182:\n      pop\n      swap1\n      jump\t// out\n        /* \"#utility.yul\":7:82   */\n    tag_183:\n        /* \"#utility.yul\":40:46   */\n      0x00\n        /* \"#utility.yul\":73:75   */\n      0x40\n        /* \"#utility.yul\":67:76   */\n      mload\n        /* \"#utility.yul\":57:76   */\n      swap1\n      pop\n        /* \"#utility.yul\":7:82   */\n      swap1\n      jump\t// out\n        /* \"#utility.yul\":88:205   */\n    tag_184:\n        /* \"#utility.yul\":197:198   */\n      0x00\n        /* \"#utility.yul\":194:195   */\n      dup1\n        /* \"#utility.yul\":187:199   */\n      revert\n        /* \"#utility.yul\":211:328   */\n    tag_185:\n        /* \"#utility.yul\":320:321   */\n      0x00\n        /* \"#utility.yul\":317:318   */\n      dup1\n        /* \"#utility.yul\":310:322   */\n      revert\n        /* \"#utility.yul\":334:451   */\n    tag_186:\n        /* \"#utility.yul\":443:444   */\n      0x00\n        /* \"#utility.yul\":440:441   */\n      dup1\n        /* \"#utility.yul\":433:445   */\n      revert\n        /* \"#utility.yul\":457:574   */\n    tag_187:\n        /* \"#utility.yul\":566:567   */\n      0x00\n        /* \"#utility.yul\":563:564   */\n      dup1\n        /* \"#utility.yul\":556:568   */\n      revert\n        /* \"#utility.yul\":580:682   */\n    tag_188:\n        /* \"#utility.yul\":621:627   */\n      0x00\n        /* \"#utility.yul\":672:674   */\n      0x1f\n        /* \"#utility.yul\":668:675   */\n      not\n        /* \"#utility.yul\":663:665   */\n      0x1f\n        /* \"#utility.yul\":656:661   */\n      dup4\n        /* \"#utility.yul\":652:666   */\n      add\n        /* \"#utility.yul\":648:676   */\n      and\n        /* \"#utility.yul\":638:676   */\n      swap1\n      pop\n        /* \"#utility.yul\":580:682   */\n      swap2\n      swap1\n      pop\n      jump\t// out\n        /* \"#utility.yul\":688:868   */\n    tag_143:\n        /* \"#utility.yul\":736:813   */\n      0x4e487b7100000000000000000000000000000000000000000000000000000000\n        /* \"#utility.yul\":733:734   */\n      0x00\n        /* \"#utility.yul\":726:814   */\n      mstore\n        /* \"#utility.yul\":833:837   */\n      0x41\n        /* \"#utility.yul\":830:831   */\n      0x04\n        /* \"#utility.yul\":823:838   */\n      mstore\n        /* \"#utility.yul\":857:861   */\n      0x24\n        /* \"#utility.yul\":854:855   */\n      0x00\n        /* \"#utility.yul\":847:862   */\n      revert\n        /* \"#utility.yul\":874:1155   */\n    tag_189:\n        /* \"#utility.yul\":957:984   */\n      tag_280\n        /* \"#utility.yul\":979:983   */\n      dup3\n        /* \"#utility.yul\":957:984   */\n      tag_188\n      jump\t// in\n    tag_280:\n        /* \"#utility.yul\":949:955   */\n      dup2\n        /* \"#utility.yul\":945:985   */\n      add\n        /* \"#utility.yul\":1087:1093   */\n      dup2\n        /* \"#utility.yul\":1075:1085   */\n      dup2\n        /* \"#utility.yul\":1072:1094   */\n      lt\n        /* \"#utility.yul\":1051:1069   */\n      0xffffffffffffffff\n        /* \"#utility.yul\":1039:1049   */\n      dup3\n        /* \"#utility.yul\":1036:1070   */\n      gt\n        /* \"#utility.yul\":1033:1095   */\n      or\n        /* \"#utility.yul\":1030:1118   */\n      iszero\n      tag_281\n      jumpi\n        /* \"#utility.yul\":1098:1116   */\n      tag_282\n      tag_143\n      jump\t// in\n    tag_282:\n        /* \"#utility.yul\":1030:1118   */\n    tag_281:\n        /* \"#utility.yul\":1138:1148   */\n      dup1\n        /* \"#utility.yul\":1134:1136   */\n      0x40\n        /* \"#utility.yul\":1127:1149   */\n      mstore\n        /* \"#utility.yul\":917:1155   */\n      pop\n        /* \"#utility.yul\":874:1155   */\n      pop\n      pop\n      jump\t// out\n        /* \"#utility.yul\":1161:1290   */\n    tag_190:\n        /* \"#utility.yul\":1195:1201   */\n      0x00\n        /* \"#utility.yul\":1222:1242   */\n      tag_284\n      tag_183\n      jump\t// in\n    tag_284:\n        /* \"#utility.yul\":1212:1242   */\n      swap1\n      pop\n        /* \"#utility.yul\":1251:1284   */\n      tag_285\n        /* \"#utility.yul\":1279:1283   */\n      dup3\n        /* \"#utility.yul\":1271:1277   */\n      dup3\n        /* \"#utility.yul\":1251:1284   */\n      tag_189\n      jump\t// in\n    tag_285:\n        /* \"#utility.yul\":1161:1290   */\n      swap2\n      swap1\n      pop\n      jump\t// out\n        /* \"#utility.yul\":1296:1604   */\n    tag_191:\n        /* \"#utility.yul\":1358:1362   */\n      0x00\n        /* \"#utility.yul\":1448:1466   */\n      0xffffffffffffffff\n        /* \"#utility.yul\":1440:1446   */\n      dup3\n        /* \"#utility.yul\":1437:1467   */\n      gt\n        /* \"#utility.yul\":1434:1490   */\n      iszero\n      tag_287\n      jumpi\n        /* \"#utility.yul\":1470:1488   */\n      tag_288\n      tag_143\n      jump\t// in\n    tag_288:\n        /* \"#utility.yul\":1434:1490   */\n    tag_287:\n        /* \"#utility.yul\":1508:1537   */\n      tag_289\n        /* \"#utility.yul\":1530:1536   */\n      dup3\n        /* \"#utility.yul\":1508:1537   */\n      tag_188\n      jump\t// in\n    tag_289:\n        /* \"#utility.yul\":1500:1537   */\n      swap1\n      pop\n        /* \"#utility.yul\":1592:1596   */\n      0x20\n        /* \"#utility.yul\":1586:1590   */\n      dup2\n        /* \"#utility.yul\":1582:1597   */\n      add\n        /* \"#utility.yul\":1574:1597   */\n      swap1\n      pop\n        /* \"#utility.yul\":1296:1604   */\n      swap2\n      swap1\n      pop\n      jump\t// out\n        /* \"#utility.yul\":1610:1756   */\n    tag_192:\n        /* \"#utility.yul\":1707:1713   */\n      dup3\n        /* \"#utility.yul\":1702:1705   */\n      dup2\n        /* \"#utility.yul\":1697:1700   */\n      dup4\n        /* \"#utility.yul\":1684:1714   */\n      calldatacopy\n        /* \"#utility.yul\":1748:1749   */\n      0x00\n        /* \"#utility.yul\":1739:1745   */\n      dup4\n        /* \"#utility.yul\":1734:1737   */\n      dup4\n        /* \"#utility.yul\":1730:1746   */\n      add\n        /* \"#utility.yul\":1723:1750   */\n      mstore\n        /* \"#utility.yul\":1610:1756   */\n      pop\n      pop\n      pop\n      jump\t// out\n        /* \"#utility.yul\":1762:2187   */\n    tag_193:\n        /* \"#utility.yul\":1840:1845   */\n      0x00\n        /* \"#utility.yul\":1865:1931   */\n      tag_292\n        /* \"#utility.yul\":1881:1930   */\n      tag_293\n        /* \"#utility.yul\":1923:1929   */\n      dup5\n        /* \"#utility.yul\":1881:1930   */\n      tag_191\n      jump\t// in\n    tag_293:\n        /* \"#utility.yul\":1865:1931   */\n      tag_190\n      jump\t// in\n    tag_292:\n        /* \"#utility.yul\":1856:1931   */\n      swap1\n      pop\n        /* \"#utility.yul\":1954:1960   */\n      dup3\n        /* \"#utility.yul\":1947:1952   */\n      dup2\n        /* \"#utility.yul\":1940:1961   */\n      mstore\n        /* \"#utility.yul\":1992:1996   */\n      0x20\n        /* \"#utility.yul\":1985:1990   */\n      dup2\n        /* \"#utility.yul\":1981:1997   */\n      add\n        /* \"#utility.yul\":2030:2033   */\n      dup5\n        /* \"#utility.yul\":2021:2027   */\n      dup5\n        /* \"#utility.yul\":2016:2019   */\n      dup5\n        /* \"#utility.yul\":2012:2028   */\n      add\n        /* \"#utility.yul\":2009:2034   */\n      gt\n        /* \"#utility.yul\":2006:2118   */\n      iszero\n      tag_294\n      jumpi\n        /* \"#utility.yul\":2037:2116   */\n      tag_295\n      tag_187\n      jump\t// in\n    tag_295:\n        /* \"#utility.yul\":2006:2118   */\n    tag_294:\n        /* \"#utility.yul\":2127:2181   */\n      tag_296\n        /* \"#utility.yul\":2174:2180   */\n      dup5\n        /* \"#utility.yul\":2169:2172   */\n      dup3\n        /* \"#utility.yul\":2164:2167   */\n      dup6\n        /* \"#utility.yul\":2127:2181   */\n      tag_192\n      jump\t// in\n    tag_296:\n        /* \"#utility.yul\":1846:2187   */\n      pop\n        /* \"#utility.yul\":1762:2187   */\n      swap4\n      swap3\n      pop\n      pop\n      pop\n      jump\t// out\n        /* \"#utility.yul\":2207:2547   */\n    tag_194:\n        /* \"#utility.yul\":2263:2268   */\n      0x00\n        /* \"#utility.yul\":2312:2315   */\n      dup3\n        /* \"#utility.yul\":2305:2309   */\n      0x1f\n        /* \"#utility.yul\":2297:2303   */\n      dup4\n        /* \"#utility.yul\":2293:2310   */\n      add\n        /* \"#utility.yul\":2289:2316   */\n      slt\n        /* \"#utility.yul\":2279:2401   */\n      tag_298\n      jumpi\n        /* \"#utility.yul\":2320:2399   */\n      tag_299\n      tag_186\n      jump\t// in\n    tag_299:\n        /* \"#utility.yul\":2279:2401   */\n    tag_298:\n        /* \"#utility.yul\":2437:2443   */\n      dup2\n        /* \"#utility.yul\":2424:2444   */\n      calldataload\n        /* \"#utility.yul\":2462:2541   */\n      tag_300\n        /* \"#utility.yul\":2537:2540   */\n      dup5\n        /* \"#utility.yul\":2529:2535   */\n      dup3\n        /* \"#utility.yul\":2522:2526   */\n      0x20\n        /* \"#utility.yul\":2514:2520   */\n      dup7\n        /* \"#utility.yul\":2510:2527   */\n      add\n        /* \"#utility.yul\":2462:2541   */\n      tag_193\n      jump\t// in\n    tag_300:\n        /* \"#utility.yul\":2453:2541   */\n      swap2\n      pop\n        /* \"#utility.yul\":2269:2547   */\n      pop\n        /* \"#utility.yul\":2207:2547   */\n      swap3\n      swap2\n      pop\n      pop\n      jump\t// out\n        /* \"#utility.yul\":2553:2630   */\n    tag_195:\n        /* \"#utility.yul\":2590:2597   */\n      0x00\n        /* \"#utility.yul\":2619:2624   */\n      dup2\n        /* \"#utility.yul\":2608:2624   */\n      swap1\n      pop\n        /* \"#utility.yul\":2553:2630   */\n      swap2\n      swap1\n      pop\n      jump\t// out\n        /* \"#utility.yul\":2636:2758   */\n    tag_196:\n        /* \"#utility.yul\":2709:2733   */\n      tag_303\n        /* \"#utility.yul\":2727:2732   */\n      dup2\n        /* \"#utility.yul\":2709:2733   */\n      tag_195\n      jump\t// in\n    tag_303:\n        /* \"#utility.yul\":2702:2707   */\n      dup2\n        /* \"#utility.yul\":2699:2734   */\n      eq\n        /* \"#utility.yul\":2689:2752   */\n      tag_304\n      jumpi\n        /* \"#utility.yul\":2748:2749   */\n      0x00\n        /* \"#utility.yul\":2745:2746   */\n      dup1\n        /* \"#utility.yul\":2738:2750   */\n      revert\n        /* \"#utility.yul\":2689:2752   */\n    tag_304:\n        /* \"#utility.yul\":2636:2758   */\n      pop\n      jump\t// out\n        /* \"#utility.yul\":2764:2903   */\n    tag_197:\n        /* \"#utility.yul\":2810:2815   */\n      0x00\n        /* \"#utility.yul\":2848:2854   */\n      dup2\n        /* \"#utility.yul\":2835:2855   */\n      calldataload\n        /* \"#utility.yul\":2826:2855   */\n      swap1\n      pop\n        /* \"#utility.yul\":2864:2897   */\n      tag_306\n        /* \"#utility.yul\":2891:2896   */\n      dup2\n        /* \"#utility.yul\":2864:2897   */\n      tag_196\n      jump\t// in\n    tag_306:\n        /* \"#utility.yul\":2764:2903   */\n      swap3\n      swap2\n      pop\n      pop\n      jump\t// out\n        /* \"#utility.yul\":2909:3563   */\n    tag_22:\n        /* \"#utility.yul\":2987:2993   */\n      0x00\n        /* \"#utility.yul\":2995:3001   */\n      dup1\n        /* \"#utility.yul\":3044:3046   */\n      0x40\n        /* \"#utility.yul\":3032:3041   */\n      dup4\n        /* \"#utility.yul\":3023:3030   */\n      dup6\n        /* \"#utility.yul\":3019:3042   */\n      sub\n        /* \"#utility.yul\":3015:3047   */\n      slt\n        /* \"#utility.yul\":3012:3131   */\n      iszero\n      tag_308\n      jumpi\n        /* \"#utility.yul\":3050:3129   */\n      tag_309\n      tag_184\n      jump\t// in\n    tag_309:\n        /* \"#utility.yul\":3012:3131   */\n    tag_308:\n        /* \"#utility.yul\":3198:3199   */\n      0x00\n        /* \"#utility.yul\":3187:3196   */\n      dup4\n        /* \"#utility.yul\":3183:3200   */\n      add\n        /* \"#utility.yul\":3170:3201   */\n      calldataload\n        /* \"#utility.yul\":3228:3246   */\n      0xffffffffffffffff\n        /* \"#utility.yul\":3220:3226   */\n      dup2\n        /* \"#utility.yul\":3217:3247   */\n      gt\n        /* \"#utility.yul\":3214:3331   */\n      iszero\n      tag_310\n      jumpi\n        /* \"#utility.yul\":3250:3329   */\n      tag_311\n      tag_185\n      jump\t// in\n    tag_311:\n        /* \"#utility.yul\":3214:3331   */\n    tag_310:\n        /* \"#utility.yul\":3355:3418   */\n      tag_312\n        /* \"#utility.yul\":3410:3417   */\n      dup6\n        /* \"#utility.yul\":3401:3407   */\n      dup3\n        /* \"#utility.yul\":3390:3399   */\n      dup7\n        /* \"#utility.yul\":3386:3408   */\n      add\n        /* \"#utility.yul\":3355:3418   */\n      tag_194\n      jump\t// in\n    tag_312:\n        /* \"#utility.yul\":3345:3418   */\n      swap3\n      pop\n        /* \"#utility.yul\":3141:3428   */\n      pop\n        /* \"#utility.yul\":3467:3469   */\n      0x20\n        /* \"#utility.yul\":3493:3546   */\n      tag_313\n        /* \"#utility.yul\":3538:3545   */\n      dup6\n        /* \"#utility.yul\":3529:3535   */\n      dup3\n        /* \"#utility.yul\":3518:3527   */\n      dup7\n        /* \"#utility.yul\":3514:3536   */\n      add\n        /* \"#utility.yul\":3493:3546   */\n      tag_197\n      jump\t// in\n    tag_313:\n        /* \"#utility.yul\":3483:3546   */\n      swap2\n      pop\n        /* \"#utility.yul\":3438:3556   */\n      pop\n        /* \"#utility.yul\":2909:3563   */\n      swap3\n      pop\n      swap3\n      swap1\n      pop\n      jump\t// out\n        /* \"#utility.yul\":3569:3687   */\n    tag_198:\n        /* \"#utility.yul\":3656:3680   */\n      tag_315\n        /* \"#utility.yul\":3674:3679   */\n      dup2\n        /* \"#utility.yul\":3656:3680   */\n      tag_195\n      jump\t// in\n    tag_315:\n        /* \"#utility.yul\":3651:3654   */\n      dup3\n        /* \"#utility.yul\":3644:3681   */\n      mstore\n        /* \"#utility.yul\":3569:3687   */\n      pop\n      pop\n      jump\t// out\n        /* \"#utility.yul\":3693:3915   */\n    tag_28:\n        /* \"#utility.yul\":3786:3790   */\n      0x00\n        /* \"#utility.yul\":3824:3826   */\n      0x20\n        /* \"#utility.yul\":3813:3822   */\n      dup3\n        /* \"#utility.yul\":3809:3827   */\n      add\n        /* \"#utility.yul\":3801:3827   */\n      swap1\n      pop\n        /* \"#utility.yul\":3837:3908   */\n      tag_317\n        /* \"#utility.yul\":3905:3906   */\n      0x00\n        /* \"#utility.yul\":3894:3903   */\n      dup4\n        /* \"#utility.yul\":3890:3907   */\n      add\n        /* \"#utility.yul\":3881:3887   */\n      dup5\n        /* \"#utility.yul\":3837:3908   */\n      tag_198\n      jump\t// in\n    tag_317:\n        /* \"#utility.yul\":3693:3915   */\n      swap3\n      swap2\n      pop\n      pop\n      jump\t// out\n        /* \"#utility.yul\":3921:4011   */\n    tag_199:\n        /* \"#utility.yul\":3955:3962   */\n      0x00\n        /* \"#utility.yul\":3998:4003   */\n      dup2\n        /* \"#utility.yul\":3991:4004   */\n      iszero\n        /* \"#utility.yul\":3984:4005   */\n      iszero\n        /* \"#utility.yul\":3973:4005   */\n      swap1\n      pop\n        /* \"#utility.yul\":3921:4011   */\n      swap2\n      swap1\n      pop\n      jump\t// out\n        /* \"#utility.yul\":4017:4126   */\n    tag_200:\n        /* \"#utility.yul\":4098:4119   */\n      tag_320\n        /* \"#utility.yul\":4113:4118   */\n      dup2\n        /* \"#utility.yul\":4098:4119   */\n      tag_199\n      jump\t// in\n    tag_320:\n        /* \"#utility.yul\":4093:4096   */\n      dup3\n        /* \"#utility.yul\":4086:4120   */\n      mstore\n        /* \"#utility.yul\":4017:4126   */\n      pop\n      pop\n      jump\t// out\n        /* \"#utility.yul\":4132:4342   */\n    tag_33:\n        /* \"#utility.yul\":4219:4223   */\n      0x00\n        /* \"#utility.yul\":4257:4259   */\n      0x20\n        /* \"#utility.yul\":4246:4255   */\n      dup3\n        /* \"#utility.yul\":4242:4260   */\n      add\n        /* \"#utility.yul\":4234:4260   */\n      swap1\n      pop\n        /* \"#utility.yul\":4270:4335   */\n      tag_322\n        /* \"#utility.yul\":4332:4333   */\n      0x00\n        /* \"#utility.yul\":4321:4330   */\n      dup4\n        /* \"#utility.yul\":4317:4334   */\n      add\n        /* \"#utility.yul\":4308:4314   */\n      dup5\n        /* \"#utility.yul\":4270:4335   */\n      tag_200\n      jump\t// in\n    tag_322:\n        /* \"#utility.yul\":4132:4342   */\n      swap3\n      swap2\n      pop\n      pop\n      jump\t// out\n        /* \"#utility.yul\":4348:4470   */\n    tag_201:\n        /* \"#utility.yul\":4423:4429   */\n      0x00\n        /* \"#utility.yul\":4457:4462   */\n      dup2\n        /* \"#utility.yul\":4451:4463   */\n      mload\n        /* \"#utility.yul\":4441:4463   */\n      swap1\n      pop\n        /* \"#utility.yul\":4348:4470   */\n      swap2\n      swap1\n      pop\n      jump\t// out\n        /* \"#utility.yul\":4476:4668   */\n    tag_202:\n        /* \"#utility.yul\":4583:4594   */\n      0x00\n        /* \"#utility.yul\":4617:4623   */\n      dup3\n        /* \"#utility.yul\":4612:4615   */\n      dup3\n        /* \"#utility.yul\":4605:4624   */\n      mstore\n        /* \"#utility.yul\":4657:4661   */\n      0x20\n        /* \"#utility.yul\":4652:4655   */\n      dup3\n        /* \"#utility.yul\":4648:4662   */\n      add\n        /* \"#utility.yul\":4633:4662   */\n      swap1\n      pop\n        /* \"#utility.yul\":4476:4668   */\n      swap3\n      swap2\n      pop\n      pop\n      jump\t// out\n        /* \"#utility.yul\":4674:4814   */\n    tag_203:\n        /* \"#utility.yul\":4749:4753   */\n      0x00\n        /* \"#utility.yul\":4772:4775   */\n      dup2\n        /* \"#utility.yul\":4764:4775   */\n      swap1\n      pop\n        /* \"#utility.yul\":4802:4806   */\n      0x20\n        /* \"#utility.yul\":4797:4800   */\n      dup3\n        /* \"#utility.yul\":4793:4807   */\n      add\n        /* \"#utility.yul\":4785:4807   */\n      swap1\n      pop\n        /* \"#utility.yul\":4674:4814   */\n      swap2\n      swap1\n      pop\n      jump\t// out\n        /* \"#utility.yul\":4820:4946   */\n    tag_204:\n        /* \"#utility.yul\":4857:4864   */\n      0x00\n        /* \"#utility.yul\":4897:4939   */\n      0xffffffffffffffffffffffffffffffffffffffff\n        /* \"#utility.yul\":4890:4895   */\n      dup3\n        /* \"#utility.yul\":4886:4940   */\n      and\n        /* \"#utility.yul\":4875:4940   */\n      swap1\n      pop\n        /* \"#utility.yul\":4820:4946   */\n      swap2\n      swap1\n      pop\n      jump\t// out\n        /* \"#utility.yul\":4952:5056   */\n    tag_205:\n        /* \"#utility.yul\":4997:5004   */\n      0x00\n        /* \"#utility.yul\":5026:5050   */\n      tag_328\n        /* \"#utility.yul\":5044:5049   */\n      dup3\n        /* \"#utility.yul\":5026:5050   */\n      tag_204\n      jump\t// in\n    tag_328:\n        /* \"#utility.yul\":5015:5050   */\n      swap1\n      pop\n        /* \"#utility.yul\":4952:5056   */\n      swap2\n      swap1\n      pop\n      jump\t// out\n        /* \"#utility.yul\":5062:5194   */\n    tag_206:\n        /* \"#utility.yul\":5155:5187   */\n      tag_330\n        /* \"#utility.yul\":5181:5186   */\n      dup2\n        /* \"#utility.yul\":5155:5187   */\n      tag_205\n      jump\t// in\n    tag_330:\n        /* \"#utility.yul\":5150:5153   */\n      dup3\n        /* \"#utility.yul\":5143:5188   */\n      mstore\n        /* \"#utility.yul\":5062:5194   */\n      pop\n      pop\n      jump\t// out\n        /* \"#utility.yul\":5200:5411   */\n    tag_207:\n        /* \"#utility.yul\":5285:5295   */\n      0x00\n        /* \"#utility.yul\":5306:5368   */\n      tag_332\n        /* \"#utility.yul\":5364:5367   */\n      dup4\n        /* \"#utility.yul\":5356:5362   */\n      dup4\n        /* \"#utility.yul\":5306:5368   */\n      tag_206\n      jump\t// in\n    tag_332:\n        /* \"#utility.yul\":5400:5404   */\n      0x20\n        /* \"#utility.yul\":5395:5398   */\n      dup4\n        /* \"#utility.yul\":5391:5405   */\n      add\n        /* \"#utility.yul\":5377:5405   */\n      swap1\n      pop\n        /* \"#utility.yul\":5200:5411   */\n      swap3\n      swap2\n      pop\n      pop\n      jump\t// out\n        /* \"#utility.yul\":5417:5538   */\n    tag_208:\n        /* \"#utility.yul\":5495:5499   */\n      0x00\n        /* \"#utility.yul\":5527:5531   */\n      0x20\n        /* \"#utility.yul\":5522:5525   */\n      dup3\n        /* \"#utility.yul\":5518:5532   */\n      add\n        /* \"#utility.yul\":5510:5532   */\n      swap1\n      pop\n        /* \"#utility.yul\":5417:5538   */\n      swap2\n      swap1\n      pop\n      jump\t// out\n        /* \"#utility.yul\":5590:6386   */\n    tag_209:\n        /* \"#utility.yul\":5725:5728   */\n      0x00\n        /* \"#utility.yul\":5754:5816   */\n      tag_335\n        /* \"#utility.yul\":5810:5815   */\n      dup3\n        /* \"#utility.yul\":5754:5816   */\n      tag_201\n      jump\t// in\n    tag_335:\n        /* \"#utility.yul\":5832:5926   */\n      tag_336\n        /* \"#utility.yul\":5919:5925   */\n      dup2\n        /* \"#utility.yul\":5914:5917   */\n      dup6\n        /* \"#utility.yul\":5832:5926   */\n      tag_202\n      jump\t// in\n    tag_336:\n        /* \"#utility.yul\":5825:5926   */\n      swap4\n      pop\n        /* \"#utility.yul\":5950:6014   */\n      tag_337\n        /* \"#utility.yul\":6008:6013   */\n      dup4\n        /* \"#utility.yul\":5950:6014   */\n      tag_203\n      jump\t// in\n    tag_337:\n        /* \"#utility.yul\":6037:6044   */\n      dup1\n        /* \"#utility.yul\":6068:6069   */\n      0x00\n        /* \"#utility.yul\":6053:6361   */\n    tag_338:\n        /* \"#utility.yul\":6078:6084   */\n      dup4\n        /* \"#utility.yul\":6075:6076   */\n      dup2\n        /* \"#utility.yul\":6072:6085   */\n      lt\n        /* \"#utility.yul\":6053:6361   */\n      iszero\n      tag_340\n      jumpi\n        /* \"#utility.yul\":6154:6160   */\n      dup2\n        /* \"#utility.yul\":6148:6161   */\n      mload\n        /* \"#utility.yul\":6181:6260   */\n      tag_341\n        /* \"#utility.yul\":6256:6259   */\n      dup9\n        /* \"#utility.yul\":6241:6254   */\n      dup3\n        /* \"#utility.yul\":6181:6260   */\n      tag_207\n      jump\t// in\n    tag_341:\n        /* \"#utility.yul\":6174:6260   */\n      swap8\n      pop\n        /* \"#utility.yul\":6283:6351   */\n      tag_342\n        /* \"#utility.yul\":6344:6350   */\n      dup4\n        /* \"#utility.yul\":6283:6351   */\n      tag_208\n      jump\t// in\n    tag_342:\n        /* \"#utility.yul\":6273:6351   */\n      swap3\n      pop\n        /* \"#utility.yul\":6113:6361   */\n      pop\n        /* \"#utility.yul\":6100:6101   */\n      0x01\n        /* \"#utility.yul\":6097:6098   */\n      dup2\n        /* \"#utility.yul\":6093:6102   */\n      add\n        /* \"#utility.yul\":6088:6102   */\n      swap1\n      pop\n        /* \"#utility.yul\":6053:6361   */\n      jump(tag_338)\n    tag_340:\n        /* \"#utility.yul\":6057:6071   */\n      pop\n        /* \"#utility.yul\":6377:6380   */\n      dup6\n        /* \"#utility.yul\":6370:6380   */\n      swap4\n      pop\n        /* \"#utility.yul\":5730:6386   */\n      pop\n      pop\n      pop\n        /* \"#utility.yul\":5590:6386   */\n      swap3\n      swap2\n      pop\n      pop\n      jump\t// out\n        /* \"#utility.yul\":6392:6797   */\n    tag_45:\n        /* \"#utility.yul\":6551:6555   */\n      0x00\n        /* \"#utility.yul\":6589:6591   */\n      0x20\n        /* \"#utility.yul\":6578:6587   */\n      dup3\n        /* \"#utility.yul\":6574:6592   */\n      add\n        /* \"#utility.yul\":6566:6592   */\n      swap1\n      pop\n        /* \"#utility.yul\":6638:6647   */\n      dup2\n        /* \"#utility.yul\":6632:6636   */\n      dup2\n        /* \"#utility.yul\":6628:6648   */\n      sub\n        /* \"#utility.yul\":6624:6625   */\n      0x00\n        /* \"#utility.yul\":6613:6622   */\n      dup4\n        /* \"#utility.yul\":6609:6626   */\n      add\n        /* \"#utility.yul\":6602:6649   */\n      mstore\n        /* \"#utility.yul\":6666:6790   */\n      tag_344\n        /* \"#utility.yul\":6785:6789   */\n      dup2\n        /* \"#utility.yul\":6776:6782   */\n      dup5\n        /* \"#utility.yul\":6666:6790   */\n      tag_209\n      jump\t// in\n    tag_344:\n        /* \"#utility.yul\":6658:6790   */\n      swap1\n      pop\n        /* \"#utility.yul\":6392:6797   */\n      swap3\n      swap2\n      pop\n      pop\n      jump\t// out\n        /* \"#utility.yul\":6803:6899   */\n    tag_210:\n        /* \"#utility.yul\":6840:6847   */\n      0x00\n        /* \"#utility.yul\":6869:6893   */\n      tag_346\n        /* \"#utility.yul\":6887:6892   */\n      dup3\n        /* \"#utility.yul\":6869:6893   */\n      tag_204\n      jump\t// in\n    tag_346:\n        /* \"#utility.yul\":6858:6893   */\n      swap1\n      pop\n        /* \"#utility.yul\":6803:6899   */\n      swap2\n      swap1\n      pop\n      jump\t// out\n        /* \"#utility.yul\":6905:7027   */\n    tag_211:\n        /* \"#utility.yul\":6978:7002   */\n      tag_348\n        /* \"#utility.yul\":6996:7001   */\n      dup2\n        /* \"#utility.yul\":6978:7002   */\n      tag_210\n      jump\t// in\n    tag_348:\n        /* \"#utility.yul\":6971:6976   */\n      dup2\n        /* \"#utility.yul\":6968:7003   */\n      eq\n        /* \"#utility.yul\":6958:7021   */\n      tag_349\n      jumpi\n        /* \"#utility.yul\":7017:7018   */\n      0x00\n        /* \"#utility.yul\":7014:7015   */\n      dup1\n        /* \"#utility.yul\":7007:7019   */\n      revert\n        /* \"#utility.yul\":6958:7021   */\n    tag_349:\n        /* \"#utility.yul\":6905:7027   */\n      pop\n      jump\t// out\n        /* \"#utility.yul\":7033:7172   */\n    tag_212:\n        /* \"#utility.yul\":7079:7084   */\n      0x00\n        /* \"#utility.yul\":7117:7123   */\n      dup2\n        /* \"#utility.yul\":7104:7124   */\n      calldataload\n        /* \"#utility.yul\":7095:7124   */\n      swap1\n      pop\n        /* \"#utility.yul\":7133:7166   */\n      tag_351\n        /* \"#utility.yul\":7160:7165   */\n      dup2\n        /* \"#utility.yul\":7133:7166   */\n      tag_211\n      jump\t// in\n    tag_351:\n        /* \"#utility.yul\":7033:7172   */\n      swap3\n      swap2\n      pop\n      pop\n      jump\t// out\n        /* \"#utility.yul\":7178:7507   */\n    tag_52:\n        /* \"#utility.yul\":7237:7243   */\n      0x00\n        /* \"#utility.yul\":7286:7288   */\n      0x20\n        /* \"#utility.yul\":7274:7283   */\n      dup3\n        /* \"#utility.yul\":7265:7272   */\n      dup5\n        /* \"#utility.yul\":7261:7284   */\n      sub\n        /* \"#utility.yul\":7257:7289   */\n      slt\n        /* \"#utility.yul\":7254:7373   */\n      iszero\n      tag_353\n      jumpi\n        /* \"#utility.yul\":7292:7371   */\n      tag_354\n      tag_184\n      jump\t// in\n    tag_354:\n        /* \"#utility.yul\":7254:7373   */\n    tag_353:\n        /* \"#utility.yul\":7412:7413   */\n      0x00\n        /* \"#utility.yul\":7437:7490   */\n      tag_355\n        /* \"#utility.yul\":7482:7489   */\n      dup5\n        /* \"#utility.yul\":7473:7479   */\n      dup3\n        /* \"#utility.yul\":7462:7471   */\n      dup6\n        /* \"#utility.yul\":7458:7480   */\n      add\n        /* \"#utility.yul\":7437:7490   */\n      tag_212\n      jump\t// in\n    tag_355:\n        /* \"#utility.yul\":7427:7490   */\n      swap2\n      pop\n        /* \"#utility.yul\":7383:7500   */\n      pop\n        /* \"#utility.yul\":7178:7507   */\n      swap3\n      swap2\n      pop\n      pop\n      jump\t// out\n        /* \"#utility.yul\":7513:7612   */\n    tag_213:\n        /* \"#utility.yul\":7565:7571   */\n      0x00\n        /* \"#utility.yul\":7599:7604   */\n      dup2\n        /* \"#utility.yul\":7593:7605   */\n      mload\n        /* \"#utility.yul\":7583:7605   */\n      swap1\n      pop\n        /* \"#utility.yul\":7513:7612   */\n      swap2\n      swap1\n      pop\n      jump\t// out\n        /* \"#utility.yul\":7618:7787   */\n    tag_214:\n        /* \"#utility.yul\":7702:7713   */\n      0x00\n        /* \"#utility.yul\":7736:7742   */\n      dup3\n        /* \"#utility.yul\":7731:7734   */\n      dup3\n        /* \"#utility.yul\":7724:7743   */\n      mstore\n        /* \"#utility.yul\":7776:7780   */\n      0x20\n        /* \"#utility.yul\":7771:7774   */\n      dup3\n        /* \"#utility.yul\":7767:7781   */\n      add\n        /* \"#utility.yul\":7752:7781   */\n      swap1\n      pop\n        /* \"#utility.yul\":7618:7787   */\n      swap3\n      swap2\n      pop\n      pop\n      jump\t// out\n        /* \"#utility.yul\":7793:8039   */\n    tag_215:\n        /* \"#utility.yul\":7874:7875   */\n      0x00\n        /* \"#utility.yul\":7884:7997   */\n    tag_359:\n        /* \"#utility.yul\":7898:7904   */\n      dup4\n        /* \"#utility.yul\":7895:7896   */\n      dup2\n        /* \"#utility.yul\":7892:7905   */\n      lt\n        /* \"#utility.yul\":7884:7997   */\n      iszero\n      tag_361\n      jumpi\n        /* \"#utility.yul\":7983:7984   */\n      dup1\n        /* \"#utility.yul\":7978:7981   */\n      dup3\n        /* \"#utility.yul\":7974:7985   */\n      add\n        /* \"#utility.yul\":7968:7986   */\n      mload\n        /* \"#utility.yul\":7964:7965   */\n      dup2\n        /* \"#utility.yul\":7959:7962   */\n      dup5\n        /* \"#utility.yul\":7955:7966   */\n      add\n        /* \"#utility.yul\":7948:7987   */\n      mstore\n        /* \"#utility.yul\":7920:7922   */\n      0x20\n        /* \"#utility.yul\":7917:7918   */\n      dup2\n        /* \"#utility.yul\":7913:7923   */\n      add\n        /* \"#utility.yul\":7908:7923   */\n      swap1\n      pop\n        /* \"#utility.yul\":7884:7997   */\n      jump(tag_359)\n    tag_361:\n        /* \"#utility.yul\":8031:8032   */\n      0x00\n        /* \"#utility.yul\":8022:8028   */\n      dup5\n        /* \"#utility.yul\":8017:8020   */\n      dup5\n        /* \"#utility.yul\":8013:8029   */\n      add\n        /* \"#utility.yul\":8006:8033   */\n      mstore\n        /* \"#utility.yul\":7855:8039   */\n      pop\n        /* \"#utility.yul\":7793:8039   */\n      pop\n      pop\n      pop\n      jump\t// out\n        /* \"#utility.yul\":8045:8422   */\n    tag_216:\n        /* \"#utility.yul\":8133:8136   */\n      0x00\n        /* \"#utility.yul\":8161:8200   */\n      tag_363\n        /* \"#utility.yul\":8194:8199   */\n      dup3\n        /* \"#utility.yul\":8161:8200   */\n      tag_213\n      jump\t// in\n    tag_363:\n        /* \"#utility.yul\":8216:8287   */\n      tag_364\n        /* \"#utility.yul\":8280:8286   */\n      dup2\n        /* \"#utility.yul\":8275:8278   */\n      dup6\n        /* \"#utility.yul\":8216:8287   */\n      tag_214\n      jump\t// in\n    tag_364:\n        /* \"#utility.yul\":8209:8287   */\n      swap4\n      pop\n        /* \"#utility.yul\":8296:8361   */\n      tag_365\n        /* \"#utility.yul\":8354:8360   */\n      dup2\n        /* \"#utility.yul\":8349:8352   */\n      dup6\n        /* \"#utility.yul\":8342:8346   */\n      0x20\n        /* \"#utility.yul\":8335:8340   */\n      dup7\n        /* \"#utility.yul\":8331:8347   */\n      add\n        /* \"#utility.yul\":8296:8361   */\n      tag_215\n      jump\t// in\n    tag_365:\n        /* \"#utility.yul\":8386:8415   */\n      tag_366\n        /* \"#utility.yul\":8408:8414   */\n      dup2\n        /* \"#utility.yul\":8386:8415   */\n      tag_188\n      jump\t// in\n    tag_366:\n        /* \"#utility.yul\":8381:8384   */\n      dup5\n        /* \"#utility.yul\":8377:8416   */\n      add\n        /* \"#utility.yul\":8370:8416   */\n      swap2\n      pop\n        /* \"#utility.yul\":8137:8422   */\n      pop\n        /* \"#utility.yul\":8045:8422   */\n      swap3\n      swap2\n      pop\n      pop\n      jump\t// out\n        /* \"#utility.yul\":8428:8546   */\n    tag_217:\n        /* \"#utility.yul\":8515:8539   */\n      tag_368\n        /* \"#utility.yul\":8533:8538   */\n      dup2\n        /* \"#utility.yul\":8515:8539   */\n      tag_210\n      jump\t// in\n    tag_368:\n        /* \"#utility.yul\":8510:8513   */\n      dup3\n        /* \"#utility.yul\":8503:8540   */\n      mstore\n        /* \"#utility.yul\":8428:8546   */\n      pop\n      pop\n      jump\t// out\n        /* \"#utility.yul\":8552:9085   */\n    tag_55:\n        /* \"#utility.yul\":8721:8725   */\n      0x00\n        /* \"#utility.yul\":8759:8761   */\n      0x60\n        /* \"#utility.yul\":8748:8757   */\n      dup3\n        /* \"#utility.yul\":8744:8762   */\n      add\n        /* \"#utility.yul\":8736:8762   */\n      swap1\n      pop\n        /* \"#utility.yul\":8808:8817   */\n      dup2\n        /* \"#utility.yul\":8802:8806   */\n      dup2\n        /* \"#utility.yul\":8798:8818   */\n      sub\n        /* \"#utility.yul\":8794:8795   */\n      0x00\n        /* \"#utility.yul\":8783:8792   */\n      dup4\n        /* \"#utility.yul\":8779:8796   */\n      add\n        /* \"#utility.yul\":8772:8819   */\n      mstore\n        /* \"#utility.yul\":8836:8914   */\n      tag_370\n        /* \"#utility.yul\":8909:8913   */\n      dup2\n        /* \"#utility.yul\":8900:8906   */\n      dup7\n        /* \"#utility.yul\":8836:8914   */\n      tag_216\n      jump\t// in\n    tag_370:\n        /* \"#utility.yul\":8828:8914   */\n      swap1\n      pop\n        /* \"#utility.yul\":8924:8996   */\n      tag_371\n        /* \"#utility.yul\":8992:8994   */\n      0x20\n        /* \"#utility.yul\":8981:8990   */\n      dup4\n        /* \"#utility.yul\":8977:8995   */\n      add\n        /* \"#utility.yul\":8968:8974   */\n      dup6\n        /* \"#utility.yul\":8924:8996   */\n      tag_198\n      jump\t// in\n    tag_371:\n        /* \"#utility.yul\":9006:9078   */\n      tag_372\n        /* \"#utility.yul\":9074:9076   */\n      0x40\n        /* \"#utility.yul\":9063:9072   */\n      dup4\n        /* \"#utility.yul\":9059:9077   */\n      add\n        /* \"#utility.yul\":9050:9056   */\n      dup5\n        /* \"#utility.yul\":9006:9078   */\n      tag_217\n      jump\t// in\n    tag_372:\n        /* \"#utility.yul\":8552:9085   */\n      swap5\n      swap4\n      pop\n      pop\n      pop\n      pop\n      jump\t// out\n        /* \"#utility.yul\":9091:9313   */\n    tag_64:\n        /* \"#utility.yul\":9184:9188   */\n      0x00\n        /* \"#utility.yul\":9222:9224   */\n      0x20\n        /* \"#utility.yul\":9211:9220   */\n      dup3\n        /* \"#utility.yul\":9207:9225   */\n      add\n        /* \"#utility.yul\":9199:9225   */\n      swap1\n      pop\n        /* \"#utility.yul\":9235:9306   */\n      tag_374\n        /* \"#utility.yul\":9303:9304   */\n      0x00\n        /* \"#utility.yul\":9292:9301   */\n      dup4\n        /* \"#utility.yul\":9288:9305   */\n      add\n        /* \"#utility.yul\":9279:9285   */\n      dup5\n        /* \"#utility.yul\":9235:9306   */\n      tag_217\n      jump\t// in\n    tag_374:\n        /* \"#utility.yul\":9091:9313   */\n      swap3\n      swap2\n      pop\n      pop\n      jump\t// out\n        /* \"#utility.yul\":9319:9648   */\n    tag_68:\n        /* \"#utility.yul\":9378:9384   */\n      0x00\n        /* \"#utility.yul\":9427:9429   */\n      0x20\n        /* \"#utility.yul\":9415:9424   */\n      dup3\n        /* \"#utility.yul\":9406:9413   */\n      dup5\n        /* \"#utility.yul\":9402:9425   */\n      sub\n        /* \"#utility.yul\":9398:9430   */\n      slt\n        /* \"#utility.yul\":9395:9514   */\n      iszero\n      tag_376\n      jumpi\n        /* \"#utility.yul\":9433:9512   */\n      tag_377\n      tag_184\n      jump\t// in\n    tag_377:\n        /* \"#utility.yul\":9395:9514   */\n    tag_376:\n        /* \"#utility.yul\":9553:9554   */\n      0x00\n        /* \"#utility.yul\":9578:9631   */\n      tag_378\n        /* \"#utility.yul\":9623:9630   */\n      dup5\n        /* \"#utility.yul\":9614:9620   */\n      dup3\n        /* \"#utility.yul\":9603:9612   */\n      dup6\n        /* \"#utility.yul\":9599:9621   */\n      add\n        /* \"#utility.yul\":9578:9631   */\n      tag_197\n      jump\t// in\n    tag_378:\n        /* \"#utility.yul\":9568:9631   */\n      swap2\n      pop\n        /* \"#utility.yul\":9524:9641   */\n      pop\n        /* \"#utility.yul\":9319:9648   */\n      swap3\n      swap2\n      pop\n      pop\n      jump\t// out\n        /* \"#utility.yul\":9654:9796   */\n    tag_218:\n        /* \"#utility.yul\":9757:9789   */\n      tag_380\n        /* \"#utility.yul\":9783:9788   */\n      dup2\n        /* \"#utility.yul\":9757:9789   */\n      tag_205\n      jump\t// in\n    tag_380:\n        /* \"#utility.yul\":9752:9755   */\n      dup3\n        /* \"#utility.yul\":9745:9790   */\n      mstore\n        /* \"#utility.yul\":9654:9796   */\n      pop\n      pop\n      jump\t// out\n        /* \"#utility.yul\":9802:10056   */\n    tag_71:\n        /* \"#utility.yul\":9911:9915   */\n      0x00\n        /* \"#utility.yul\":9949:9951   */\n      0x20\n        /* \"#utility.yul\":9938:9947   */\n      dup3\n        /* \"#utility.yul\":9934:9952   */\n      add\n        /* \"#utility.yul\":9926:9952   */\n      swap1\n      pop\n        /* \"#utility.yul\":9962:10049   */\n      tag_382\n        /* \"#utility.yul\":10046:10047   */\n      0x00\n        /* \"#utility.yul\":10035:10044   */\n      dup4\n        /* \"#utility.yul\":10031:10048   */\n      add\n        /* \"#utility.yul\":10022:10028   */\n      dup5\n        /* \"#utility.yul\":9962:10049   */\n      tag_218\n      jump\t// in\n    tag_382:\n        /* \"#utility.yul\":9802:10056   */\n      swap3\n      swap2\n      pop\n      pop\n      jump\t// out\n        /* \"#utility.yul\":10062:10221   */\n    tag_219:\n        /* \"#utility.yul\":10136:10147   */\n      0x00\n        /* \"#utility.yul\":10170:10176   */\n      dup3\n        /* \"#utility.yul\":10165:10168   */\n      dup3\n        /* \"#utility.yul\":10158:10177   */\n      mstore\n        /* \"#utility.yul\":10210:10214   */\n      0x20\n        /* \"#utility.yul\":10205:10208   */\n      dup3\n        /* \"#utility.yul\":10201:10215   */\n      add\n        /* \"#utility.yul\":10186:10215   */\n      swap1\n      pop\n        /* \"#utility.yul\":10062:10221   */\n      swap3\n      swap2\n      pop\n      pop\n      jump\t// out\n        /* \"#utility.yul\":10227:10584   */\n    tag_220:\n        /* \"#utility.yul\":10305:10308   */\n      0x00\n        /* \"#utility.yul\":10333:10372   */\n      tag_385\n        /* \"#utility.yul\":10366:10371   */\n      dup3\n        /* \"#utility.yul\":10333:10372   */\n      tag_213\n      jump\t// in\n    tag_385:\n        /* \"#utility.yul\":10388:10449   */\n      tag_386\n        /* \"#utility.yul\":10442:10448   */\n      dup2\n        /* \"#utility.yul\":10437:10440   */\n      dup6\n        /* \"#utility.yul\":10388:10449   */\n      tag_219\n      jump\t// in\n    tag_386:\n        /* \"#utility.yul\":10381:10449   */\n      swap4\n      pop\n        /* \"#utility.yul\":10458:10523   */\n      tag_387\n        /* \"#utility.yul\":10516:10522   */\n      dup2\n        /* \"#utility.yul\":10511:10514   */\n      dup6\n        /* \"#utility.yul\":10504:10508   */\n      0x20\n        /* \"#utility.yul\":10497:10502   */\n      dup7\n        /* \"#utility.yul\":10493:10509   */\n      add\n        /* \"#utility.yul\":10458:10523   */\n      tag_215\n      jump\t// in\n    tag_387:\n        /* \"#utility.yul\":10548:10577   */\n      tag_388\n        /* \"#utility.yul\":10570:10576   */\n      dup2\n        /* \"#utility.yul\":10548:10577   */\n      tag_188\n      jump\t// in\n    tag_388:\n        /* \"#utility.yul\":10543:10546   */\n      dup5\n        /* \"#utility.yul\":10539:10578   */\n      add\n        /* \"#utility.yul\":10532:10578   */\n      swap2\n      pop\n        /* \"#utility.yul\":10309:10584   */\n      pop\n        /* \"#utility.yul\":10227:10584   */\n      swap3\n      swap2\n      pop\n      pop\n      jump\t// out\n        /* \"#utility.yul\":10590:10698   */\n    tag_221:\n        /* \"#utility.yul\":10667:10691   */\n      tag_390\n        /* \"#utility.yul\":10685:10690   */\n      dup2\n        /* \"#utility.yul\":10667:10691   */\n      tag_195\n      jump\t// in\n    tag_390:\n        /* \"#utility.yul\":10662:10665   */\n      dup3\n        /* \"#utility.yul\":10655:10692   */\n      mstore\n        /* \"#utility.yul\":10590:10698   */\n      pop\n      pop\n      jump\t// out\n        /* \"#utility.yul\":10704:10812   */\n    tag_222:\n        /* \"#utility.yul\":10781:10805   */\n      tag_392\n        /* \"#utility.yul\":10799:10804   */\n      dup2\n        /* \"#utility.yul\":10781:10805   */\n      tag_210\n      jump\t// in\n    tag_392:\n        /* \"#utility.yul\":10776:10779   */\n      dup3\n        /* \"#utility.yul\":10769:10806   */\n      mstore\n        /* \"#utility.yul\":10704:10812   */\n      pop\n      pop\n      jump\t// out\n        /* \"#utility.yul\":10912:11724   */\n    tag_223:\n        /* \"#utility.yul\":11047:11050   */\n      0x00\n        /* \"#utility.yul\":11083:11087   */\n      0x60\n        /* \"#utility.yul\":11078:11081   */\n      dup4\n        /* \"#utility.yul\":11074:11088   */\n      add\n        /* \"#utility.yul\":11170:11174   */\n      0x00\n        /* \"#utility.yul\":11163:11168   */\n      dup4\n        /* \"#utility.yul\":11159:11175   */\n      add\n        /* \"#utility.yul\":11153:11176   */\n      mload\n        /* \"#utility.yul\":11223:11226   */\n      dup5\n        /* \"#utility.yul\":11217:11221   */\n      dup3\n        /* \"#utility.yul\":11213:11227   */\n      sub\n        /* \"#utility.yul\":11206:11210   */\n      0x00\n        /* \"#utility.yul\":11201:11204   */\n      dup7\n        /* \"#utility.yul\":11197:11211   */\n      add\n        /* \"#utility.yul\":11190:11228   */\n      mstore\n        /* \"#utility.yul\":11249:11322   */\n      tag_394\n        /* \"#utility.yul\":11317:11321   */\n      dup3\n        /* \"#utility.yul\":11303:11315   */\n      dup3\n        /* \"#utility.yul\":11249:11322   */\n      tag_220\n      jump\t// in\n    tag_394:\n        /* \"#utility.yul\":11241:11322   */\n      swap2\n      pop\n        /* \"#utility.yul\":11098:11333   */\n      pop\n        /* \"#utility.yul\":11422:11426   */\n      0x20\n        /* \"#utility.yul\":11415:11420   */\n      dup4\n        /* \"#utility.yul\":11411:11427   */\n      add\n        /* \"#utility.yul\":11405:11428   */\n      mload\n        /* \"#utility.yul\":11441:11504   */\n      tag_395\n        /* \"#utility.yul\":11498:11502   */\n      0x20\n        /* \"#utility.yul\":11493:11496   */\n      dup7\n        /* \"#utility.yul\":11489:11503   */\n      add\n        /* \"#utility.yul\":11475:11487   */\n      dup3\n        /* \"#utility.yul\":11441:11504   */\n      tag_221\n      jump\t// in\n    tag_395:\n        /* \"#utility.yul\":11343:11514   */\n      pop\n        /* \"#utility.yul\":11605:11609   */\n      0x40\n        /* \"#utility.yul\":11598:11603   */\n      dup4\n        /* \"#utility.yul\":11594:11610   */\n      add\n        /* \"#utility.yul\":11588:11611   */\n      mload\n        /* \"#utility.yul\":11624:11687   */\n      tag_396\n        /* \"#utility.yul\":11681:11685   */\n      0x40\n        /* \"#utility.yul\":11676:11679   */\n      dup7\n        /* \"#utility.yul\":11672:11686   */\n      add\n        /* \"#utility.yul\":11658:11670   */\n      dup3\n        /* \"#utility.yul\":11624:11687   */\n      tag_222\n      jump\t// in\n    tag_396:\n        /* \"#utility.yul\":11524:11697   */\n      pop\n        /* \"#utility.yul\":11714:11718   */\n      dup1\n        /* \"#utility.yul\":11707:11718   */\n      swap2\n      pop\n        /* \"#utility.yul\":11052:11724   */\n      pop\n        /* \"#utility.yul\":10912:11724   */\n      swap3\n      swap2\n      pop\n      pop\n      jump\t// out\n        /* \"#utility.yul\":11730:12135   */\n    tag_77:\n        /* \"#utility.yul\":11889:11893   */\n      0x00\n        /* \"#utility.yul\":11927:11929   */\n      0x20\n        /* \"#utility.yul\":11916:11925   */\n      dup3\n        /* \"#utility.yul\":11912:11930   */\n      add\n        /* \"#utility.yul\":11904:11930   */\n      swap1\n      pop\n        /* \"#utility.yul\":11976:11985   */\n      dup2\n        /* \"#utility.yul\":11970:11974   */\n      dup2\n        /* \"#utility.yul\":11966:11986   */\n      sub\n        /* \"#utility.yul\":11962:11963   */\n      0x00\n        /* \"#utility.yul\":11951:11960   */\n      dup4\n        /* \"#utility.yul\":11947:11964   */\n      add\n        /* \"#utility.yul\":11940:11987   */\n      mstore\n        /* \"#utility.yul\":12004:12128   */\n      tag_398\n        /* \"#utility.yul\":12123:12127   */\n      dup2\n        /* \"#utility.yul\":12114:12120   */\n      dup5\n        /* \"#utility.yul\":12004:12128   */\n      tag_223\n      jump\t// in\n    tag_398:\n        /* \"#utility.yul\":11996:12128   */\n      swap1\n      pop\n        /* \"#utility.yul\":11730:12135   */\n      swap3\n      swap2\n      pop\n      pop\n      jump\t// out\n        /* \"#utility.yul\":12141:12377   */\n    tag_224:\n        /* \"#utility.yul\":12281:12315   */\n      0x4c6f74746572792073686f756c64206265207374617274656420666972737420\n        /* \"#utility.yul\":12277:12278   */\n      0x00\n        /* \"#utility.yul\":12269:12275   */\n      dup3\n        /* \"#utility.yul\":12265:12279   */\n      add\n        /* \"#utility.yul\":12258:12316   */\n      mstore\n        /* \"#utility.yul\":12350:12369   */\n      0x6265666f726520796f7520656e74657221000000000000000000000000000000\n        /* \"#utility.yul\":12345:12347   */\n      0x20\n        /* \"#utility.yul\":12337:12343   */\n      dup3\n        /* \"#utility.yul\":12333:12348   */\n      add\n        /* \"#utility.yul\":12326:12370   */\n      mstore\n        /* \"#utility.yul\":12141:12377   */\n      pop\n      jump\t// out\n        /* \"#utility.yul\":12383:12749   */\n    tag_225:\n        /* \"#utility.yul\":12525:12528   */\n      0x00\n        /* \"#utility.yul\":12546:12613   */\n      tag_401\n        /* \"#utility.yul\":12610:12612   */\n      0x31\n        /* \"#utility.yul\":12605:12608   */\n      dup4\n        /* \"#utility.yul\":12546:12613   */\n      tag_214\n      jump\t// in\n    tag_401:\n        /* \"#utility.yul\":12539:12613   */\n      swap2\n      pop\n        /* \"#utility.yul\":12622:12715   */\n      tag_402\n        /* \"#utility.yul\":12711:12714   */\n      dup3\n        /* \"#utility.yul\":12622:12715   */\n      tag_224\n      jump\t// in\n    tag_402:\n        /* \"#utility.yul\":12740:12742   */\n      0x40\n        /* \"#utility.yul\":12735:12738   */\n      dup3\n        /* \"#utility.yul\":12731:12743   */\n      add\n        /* \"#utility.yul\":12724:12743   */\n      swap1\n      pop\n        /* \"#utility.yul\":12383:12749   */\n      swap2\n      swap1\n      pop\n      jump\t// out\n        /* \"#utility.yul\":12755:13174   */\n    tag_92:\n        /* \"#utility.yul\":12921:12925   */\n      0x00\n        /* \"#utility.yul\":12959:12961   */\n      0x20\n        /* \"#utility.yul\":12948:12957   */\n      dup3\n        /* \"#utility.yul\":12944:12962   */\n      add\n        /* \"#utility.yul\":12936:12962   */\n      swap1\n      pop\n        /* \"#utility.yul\":13008:13017   */\n      dup2\n        /* \"#utility.yul\":13002:13006   */\n      dup2\n        /* \"#utility.yul\":12998:13018   */\n      sub\n        /* \"#utility.yul\":12994:12995   */\n      0x00\n        /* \"#utility.yul\":12983:12992   */\n      dup4\n        /* \"#utility.yul\":12979:12996   */\n      add\n        /* \"#utility.yul\":12972:13019   */\n      mstore\n        /* \"#utility.yul\":13036:13167   */\n      tag_404\n        /* \"#utility.yul\":13162:13166   */\n      dup2\n        /* \"#utility.yul\":13036:13167   */\n      tag_225\n      jump\t// in\n    tag_404:\n        /* \"#utility.yul\":13028:13167   */\n      swap1\n      pop\n        /* \"#utility.yul\":12755:13174   */\n      swap2\n      swap1\n      pop\n      jump\t// out\n        /* \"#utility.yul\":13180:13356   */\n    tag_226:\n        /* \"#utility.yul\":13320:13348   */\n      0x4c6f74746572792068617320616c726561647920656e64656421000000000000\n        /* \"#utility.yul\":13316:13317   */\n      0x00\n        /* \"#utility.yul\":13308:13314   */\n      dup3\n        /* \"#utility.yul\":13304:13318   */\n      add\n        /* \"#utility.yul\":13297:13349   */\n      mstore\n        /* \"#utility.yul\":13180:13356   */\n      pop\n      jump\t// out\n        /* \"#utility.yul\":13362:13728   */\n    tag_227:\n        /* \"#utility.yul\":13504:13507   */\n      0x00\n        /* \"#utility.yul\":13525:13592   */\n      tag_407\n        /* \"#utility.yul\":13589:13591   */\n      0x1a\n        /* \"#utility.yul\":13584:13587   */\n      dup4\n        /* \"#utility.yul\":13525:13592   */\n      tag_214\n      jump\t// in\n    tag_407:\n        /* \"#utility.yul\":13518:13592   */\n      swap2\n      pop\n        /* \"#utility.yul\":13601:13694   */\n      tag_408\n        /* \"#utility.yul\":13690:13693   */\n      dup3\n        /* \"#utility.yul\":13601:13694   */\n      tag_226\n      jump\t// in\n    tag_408:\n        /* \"#utility.yul\":13719:13721   */\n      0x20\n        /* \"#utility.yul\":13714:13717   */\n      dup3\n        /* \"#utility.yul\":13710:13722   */\n      add\n        /* \"#utility.yul\":13703:13722   */\n      swap1\n      pop\n        /* \"#utility.yul\":13362:13728   */\n      swap2\n      swap1\n      pop\n      jump\t// out\n        /* \"#utility.yul\":13734:14153   */\n    tag_95:\n        /* \"#utility.yul\":13900:13904   */\n      0x00\n        /* \"#utility.yul\":13938:13940   */\n      0x20\n        /* \"#utility.yul\":13927:13936   */\n      dup3\n        /* \"#utility.yul\":13923:13941   */\n      add\n        /* \"#utility.yul\":13915:13941   */\n      swap1\n      pop\n        /* \"#utility.yul\":13987:13996   */\n      dup2\n        /* \"#utility.yul\":13981:13985   */\n      dup2\n        /* \"#utility.yul\":13977:13997   */\n      sub\n        /* \"#utility.yul\":13973:13974   */\n      0x00\n        /* \"#utility.yul\":13962:13971   */\n      dup4\n        /* \"#utility.yul\":13958:13975   */\n      add\n        /* \"#utility.yul\":13951:13998   */\n      mstore\n        /* \"#utility.yul\":14015:14146   */\n      tag_410\n        /* \"#utility.yul\":14141:14145   */\n      dup2\n        /* \"#utility.yul\":14015:14146   */\n      tag_227\n      jump\t// in\n    tag_410:\n        /* \"#utility.yul\":14007:14146   */\n      swap1\n      pop\n        /* \"#utility.yul\":13734:14153   */\n      swap2\n      swap1\n      pop\n      jump\t// out\n        /* \"#utility.yul\":14159:14393   */\n    tag_228:\n        /* \"#utility.yul\":14299:14333   */\n      0x596f75206e6565642061746c65617374202e303120657468657220746f20656e\n        /* \"#utility.yul\":14295:14296   */\n      0x00\n        /* \"#utility.yul\":14287:14293   */\n      dup3\n        /* \"#utility.yul\":14283:14297   */\n      add\n        /* \"#utility.yul\":14276:14334   */\n      mstore\n        /* \"#utility.yul\":14368:14385   */\n      0x74657220746865206c6f74746572790000000000000000000000000000000000\n        /* \"#utility.yul\":14363:14365   */\n      0x20\n        /* \"#utility.yul\":14355:14361   */\n      dup3\n        /* \"#utility.yul\":14351:14366   */\n      add\n        /* \"#utility.yul\":14344:14386   */\n      mstore\n        /* \"#utility.yul\":14159:14393   */\n      pop\n      jump\t// out\n        /* \"#utility.yul\":14399:14765   */\n    tag_229:\n        /* \"#utility.yul\":14541:14544   */\n      0x00\n        /* \"#utility.yul\":14562:14629   */\n      tag_413\n        /* \"#utility.yul\":14626:14628   */\n      0x2f\n        /* \"#utility.yul\":14621:14624   */\n      dup4\n        /* \"#utility.yul\":14562:14629   */\n      tag_214\n      jump\t// in\n    tag_413:\n        /* \"#utility.yul\":14555:14629   */\n      swap2\n      pop\n        /* \"#utility.yul\":14638:14731   */\n      tag_414\n        /* \"#utility.yul\":14727:14730   */\n      dup3\n        /* \"#utility.yul\":14638:14731   */\n      tag_228\n      jump\t// in\n    tag_414:\n        /* \"#utility.yul\":14756:14758   */\n      0x40\n        /* \"#utility.yul\":14751:14754   */\n      dup3\n        /* \"#utility.yul\":14747:14759   */\n      add\n        /* \"#utility.yul\":14740:14759   */\n      swap1\n      pop\n        /* \"#utility.yul\":14399:14765   */\n      swap2\n      swap1\n      pop\n      jump\t// out\n        /* \"#utility.yul\":14771:15190   */\n    tag_98:\n        /* \"#utility.yul\":14937:14941   */\n      0x00\n        /* \"#utility.yul\":14975:14977   */\n      0x20\n        /* \"#utility.yul\":14964:14973   */\n      dup3\n        /* \"#utility.yul\":14960:14978   */\n      add\n        /* \"#utility.yul\":14952:14978   */\n      swap1\n      pop\n        /* \"#utility.yul\":15024:15033   */\n      dup2\n        /* \"#utility.yul\":15018:15022   */\n      dup2\n        /* \"#utility.yul\":15014:15034   */\n      sub\n        /* \"#utility.yul\":15010:15011   */\n      0x00\n        /* \"#utility.yul\":14999:15008   */\n      dup4\n        /* \"#utility.yul\":14995:15012   */\n      add\n        /* \"#utility.yul\":14988:15035   */\n      mstore\n        /* \"#utility.yul\":15052:15183   */\n      tag_416\n        /* \"#utility.yul\":15178:15182   */\n      dup2\n        /* \"#utility.yul\":15052:15183   */\n      tag_229\n      jump\t// in\n    tag_416:\n        /* \"#utility.yul\":15044:15183   */\n      swap1\n      pop\n        /* \"#utility.yul\":14771:15190   */\n      swap2\n      swap1\n      pop\n      jump\t// out\n        /* \"#utility.yul\":15196:15376   */\n    tag_230:\n        /* \"#utility.yul\":15244:15321   */\n      0x4e487b7100000000000000000000000000000000000000000000000000000000\n        /* \"#utility.yul\":15241:15242   */\n      0x00\n        /* \"#utility.yul\":15234:15322   */\n      mstore\n        /* \"#utility.yul\":15341:15345   */\n      0x22\n        /* \"#utility.yul\":15338:15339   */\n      0x04\n        /* \"#utility.yul\":15331:15346   */\n      mstore\n        /* \"#utility.yul\":15365:15369   */\n      0x24\n        /* \"#utility.yul\":15362:15363   */\n      0x00\n        /* \"#utility.yul\":15355:15370   */\n      revert\n        /* \"#utility.yul\":15382:15702   */\n    tag_148:\n        /* \"#utility.yul\":15426:15432   */\n      0x00\n        /* \"#utility.yul\":15463:15464   */\n      0x02\n        /* \"#utility.yul\":15457:15461   */\n      dup3\n        /* \"#utility.yul\":15453:15465   */\n      div\n        /* \"#utility.yul\":15443:15465   */\n      swap1\n      pop\n        /* \"#utility.yul\":15510:15511   */\n      0x01\n        /* \"#utility.yul\":15504:15508   */\n      dup3\n        /* \"#utility.yul\":15500:15512   */\n      and\n        /* \"#utility.yul\":15531:15549   */\n      dup1\n        /* \"#utility.yul\":15521:15602   */\n      tag_419\n      jumpi\n        /* \"#utility.yul\":15587:15591   */\n      0x7f\n        /* \"#utility.yul\":15579:15585   */\n      dup3\n        /* \"#utility.yul\":15575:15592   */\n      and\n        /* \"#utility.yul\":15565:15592   */\n      swap2\n      pop\n        /* \"#utility.yul\":15521:15602   */\n    tag_419:\n        /* \"#utility.yul\":15649:15651   */\n      0x20\n        /* \"#utility.yul\":15641:15647   */\n      dup3\n        /* \"#utility.yul\":15638:15652   */\n      lt\n        /* \"#utility.yul\":15618:15636   */\n      dup2\n        /* \"#utility.yul\":15615:15653   */\n      sub\n        /* \"#utility.yul\":15612:15696   */\n      tag_420\n      jumpi\n        /* \"#utility.yul\":15668:15686   */\n      tag_421\n      tag_230\n      jump\t// in\n    tag_421:\n        /* \"#utility.yul\":15612:15696   */\n    tag_420:\n        /* \"#utility.yul\":15433:15702   */\n      pop\n        /* \"#utility.yul\":15382:15702   */\n      swap2\n      swap1\n      pop\n      jump\t// out\n        /* \"#utility.yul\":15708:15849   */\n    tag_231:\n        /* \"#utility.yul\":15757:15761   */\n      0x00\n        /* \"#utility.yul\":15780:15783   */\n      dup2\n        /* \"#utility.yul\":15772:15783   */\n      swap1\n      pop\n        /* \"#utility.yul\":15803:15806   */\n      dup2\n        /* \"#utility.yul\":15800:15801   */\n      0x00\n        /* \"#utility.yul\":15793:15807   */\n      mstore\n        /* \"#utility.yul\":15837:15841   */\n      0x20\n        /* \"#utility.yul\":15834:15835   */\n      0x00\n        /* \"#utility.yul\":15824:15842   */\n      keccak256\n        /* \"#utility.yul\":15816:15842   */\n      swap1\n      pop\n        /* \"#utility.yul\":15708:15849   */\n      swap2\n      swap1\n      pop\n      jump\t// out\n        /* \"#utility.yul\":15855:15948   */\n    tag_232:\n        /* \"#utility.yul\":15892:15898   */\n      0x00\n        /* \"#utility.yul\":15939:15941   */\n      0x20\n        /* \"#utility.yul\":15934:15936   */\n      0x1f\n        /* \"#utility.yul\":15927:15932   */\n      dup4\n        /* \"#utility.yul\":15923:15937   */\n      add\n        /* \"#utility.yul\":15919:15942   */\n      div\n        /* \"#utility.yul\":15909:15942   */\n      swap1\n      pop\n        /* \"#utility.yul\":15855:15948   */\n      swap2\n      swap1\n      pop\n      jump\t// out\n        /* \"#utility.yul\":15954:16061   */\n    tag_233:\n        /* \"#utility.yul\":15998:16006   */\n      0x00\n        /* \"#utility.yul\":16048:16053   */\n      dup3\n        /* \"#utility.yul\":16042:16046   */\n      dup3\n        /* \"#utility.yul\":16038:16054   */\n      shl\n        /* \"#utility.yul\":16017:16054   */\n      swap1\n      pop\n        /* \"#utility.yul\":15954:16061   */\n      swap3\n      swap2\n      pop\n      pop\n      jump\t// out\n        /* \"#utility.yul\":16067:16460   */\n    tag_234:\n        /* \"#utility.yul\":16136:16142   */\n      0x00\n        /* \"#utility.yul\":16186:16187   */\n      0x08\n        /* \"#utility.yul\":16174:16184   */\n      dup4\n        /* \"#utility.yul\":16170:16188   */\n      mul\n        /* \"#utility.yul\":16209:16306   */\n      tag_426\n        /* \"#utility.yul\":16239:16305   */\n      0xffffffffffffffffffffffffffffffffffffffffffffffffffffffffffffffff\n        /* \"#utility.yul\":16228:16237   */\n      dup3\n        /* \"#utility.yul\":16209:16306   */\n      tag_233\n      jump\t// in\n    tag_426:\n        /* \"#utility.yul\":16327:16366   */\n      tag_427\n        /* \"#utility.yul\":16357:16365   */\n      dup7\n        /* \"#utility.yul\":16346:16355   */\n      dup4\n        /* \"#utility.yul\":16327:16366   */\n      tag_233\n      jump\t// in\n    tag_427:\n        /* \"#utility.yul\":16315:16366   */\n      swap6\n      pop\n        /* \"#utility.yul\":16399:16403   */\n      dup1\n        /* \"#utility.yul\":16395:16404   */\n      not\n        /* \"#utility.yul\":16388:16393   */\n      dup5\n        /* \"#utility.yul\":16384:16405   */\n      and\n        /* \"#utility.yul\":16375:16405   */\n      swap4\n      pop\n        /* \"#utility.yul\":16448:16452   */\n      dup1\n        /* \"#utility.yul\":16438:16446   */\n      dup7\n        /* \"#utility.yul\":16434:16453   */\n      and\n        /* \"#utility.yul\":16427:16432   */\n      dup5\n        /* \"#utility.yul\":16424:16454   */\n      or\n        /* \"#utility.yul\":16414:16454   */\n      swap3\n      pop\n        /* \"#utility.yul\":16143:16460   */\n      pop\n      pop\n        /* \"#utility.yul\":16067:16460   */\n      swap4\n      swap3\n      pop\n      pop\n      pop\n      jump\t// out\n        /* \"#utility.yul\":16466:16526   */\n    tag_235:\n        /* \"#utility.yul\":16494:16497   */\n      0x00\n        /* \"#utility.yul\":16515:16520   */\n      dup2\n        /* \"#utility.yul\":16508:16520   */\n      swap1\n      pop\n        /* \"#utility.yul\":16466:16526   */\n      swap2\n      swap1\n      pop\n      jump\t// out\n        /* \"#utility.yul\":16532:16674   */\n    tag_236:\n        /* \"#utility.yul\":16582:16591   */\n      0x00\n        /* \"#utility.yul\":16615:16668   */\n      tag_430\n        /* \"#utility.yul\":16633:16667   */\n      tag_431\n        /* \"#utility.yul\":16642:16666   */\n      tag_432\n        /* \"#utility.yul\":16660:16665   */\n      dup5\n        /* \"#utility.yul\":16642:16666   */\n      tag_195\n      jump\t// in\n    tag_432:\n        /* \"#utility.yul\":16633:16667   */\n      tag_235\n      jump\t// in\n    tag_431:\n        /* \"#utility.yul\":16615:16668   */\n      tag_195\n      jump\t// in\n    tag_430:\n        /* \"#utility.yul\":16602:16668   */\n      swap1\n      pop\n        /* \"#utility.yul\":16532:16674   */\n      swap2\n      swap1\n      pop\n      jump\t// out\n        /* \"#utility.yul\":16680:16755   */\n    tag_237:\n        /* \"#utility.yul\":16723:16726   */\n      0x00\n        /* \"#utility.yul\":16744:16749   */\n      dup2\n        /* \"#utility.yul\":16737:16749   */\n      swap1\n      pop\n        /* \"#utility.yul\":16680:16755   */\n      swap2\n      swap1\n      pop\n      jump\t// out\n        /* \"#utility.yul\":16761:17030   */\n    tag_238:\n        /* \"#utility.yul\":16871:16910   */\n      tag_435\n        /* \"#utility.yul\":16902:16909   */\n      dup4\n        /* \"#utility.yul\":16871:16910   */\n      tag_236\n      jump\t// in\n    tag_435:\n        /* \"#utility.yul\":16932:17023   */\n      tag_436\n        /* \"#utility.yul\":16981:17022   */\n      tag_437\n        /* \"#utility.yul\":17005:17021   */\n      dup3\n        /* \"#utility.yul\":16981:17022   */\n      tag_237\n      jump\t// in\n    tag_437:\n        /* \"#utility.yul\":16973:16979   */\n      dup5\n        /* \"#utility.yul\":16966:16970   */\n      dup5\n        /* \"#utility.yul\":16960:16971   */\n      sload\n        /* \"#utility.yul\":16932:17023   */\n      tag_234\n      jump\t// in\n    tag_436:\n        /* \"#utility.yul\":16926:16930   */\n      dup3\n        /* \"#utility.yul\":16919:17024   */\n      sstore\n        /* \"#utility.yul\":16837:17030   */\n      pop\n        /* \"#utility.yul\":16761:17030   */\n      pop\n      pop\n      pop\n      jump\t// out\n        /* \"#utility.yul\":17036:17109   */\n    tag_239:\n        /* \"#utility.yul\":17081:17084   */\n      0x00\n        /* \"#utility.yul\":17036:17109   */\n      swap1\n      jump\t// out\n        /* \"#utility.yul\":17115:17304   */\n    tag_240:\n        /* \"#utility.yul\":17192:17224   */\n      tag_440\n      tag_239\n      jump\t// in\n    tag_440:\n        /* \"#utility.yul\":17233:17298   */\n      tag_441\n        /* \"#utility.yul\":17291:17297   */\n      dup2\n        /* \"#utility.yul\":17283:17289   */\n      dup5\n        /* \"#utility.yul\":17277:17281   */\n      dup5\n        /* \"#utility.yul\":17233:17298   */\n      tag_238\n      jump\t// in\n    tag_441:\n        /* \"#utility.yul\":17168:17304   */\n      pop\n        /* \"#utility.yul\":17115:17304   */\n      pop\n      pop\n      jump\t// out\n        /* \"#utility.yul\":17310:17496   */\n    tag_241:\n        /* \"#utility.yul\":17370:17490   */\n    tag_443:\n        /* \"#utility.yul\":17387:17390   */\n      dup2\n        /* \"#utility.yul\":17380:17385   */\n      dup2\n        /* \"#utility.yul\":17377:17391   */\n      lt\n        /* \"#utility.yul\":17370:17490   */\n      iszero\n      tag_445\n      jumpi\n        /* \"#utility.yul\":17441:17480   */\n      tag_446\n        /* \"#utility.yul\":17478:17479   */\n      0x00\n        /* \"#utility.yul\":17471:17476   */\n      dup3\n        /* \"#utility.yul\":17441:17480   */\n      tag_240\n      jump\t// in\n    tag_446:\n        /* \"#utility.yul\":17414:17415   */\n      0x01\n        /* \"#utility.yul\":17407:17412   */\n      dup2\n        /* \"#utility.yul\":17403:17416   */\n      add\n        /* \"#utility.yul\":17394:17416   */\n      swap1\n      pop\n        /* \"#utility.yul\":17370:17490   */\n      jump(tag_443)\n    tag_445:\n        /* \"#utility.yul\":17310:17496   */\n      pop\n      pop\n      jump\t// out\n        /* \"#utility.yul\":17502:18045   */\n    tag_242:\n        /* \"#utility.yul\":17603:17605   */\n      0x1f\n        /* \"#utility.yul\":17598:17601   */\n      dup3\n        /* \"#utility.yul\":17595:17606   */\n      gt\n        /* \"#utility.yul\":17592:18038   */\n      iszero\n      tag_448\n      jumpi\n        /* \"#utility.yul\":17637:17675   */\n      tag_449\n        /* \"#utility.yul\":17669:17674   */\n      dup2\n        /* \"#utility.yul\":17637:17675   */\n      tag_231\n      jump\t// in\n    tag_449:\n        /* \"#utility.yul\":17721:17750   */\n      tag_450\n        /* \"#utility.yul\":17739:17749   */\n      dup5\n        /* \"#utility.yul\":17721:17750   */\n      tag_232\n      jump\t// in\n    tag_450:\n        /* \"#utility.yul\":17711:17719   */\n      dup2\n        /* \"#utility.yul\":17707:17751   */\n      add\n        /* \"#utility.yul\":17904:17906   */\n      0x20\n        /* \"#utility.yul\":17892:17902   */\n      dup6\n        /* \"#utility.yul\":17889:17907   */\n      lt\n        /* \"#utility.yul\":17886:17935   */\n      iszero\n      tag_451\n      jumpi\n        /* \"#utility.yul\":17925:17933   */\n      dup2\n        /* \"#utility.yul\":17910:17933   */\n      swap1\n      pop\n        /* \"#utility.yul\":17886:17935   */\n    tag_451:\n        /* \"#utility.yul\":17948:18028   */\n      tag_452\n        /* \"#utility.yul\":18004:18026   */\n      tag_453\n        /* \"#utility.yul\":18022:18025   */\n      dup6\n        /* \"#utility.yul\":18004:18026   */\n      tag_232\n      jump\t// in\n    tag_453:\n        /* \"#utility.yul\":17994:18002   */\n      dup4\n        /* \"#utility.yul\":17990:18027   */\n      add\n        /* \"#utility.yul\":17977:17988   */\n      dup3\n        /* \"#utility.yul\":17948:18028   */\n      tag_241\n      jump\t// in\n    tag_452:\n        /* \"#utility.yul\":17607:18038   */\n      pop\n      pop\n        /* \"#utility.yul\":17592:18038   */\n    tag_448:\n        /* \"#utility.yul\":17502:18045   */\n      pop\n      pop\n      pop\n      jump\t// out\n        /* \"#utility.yul\":18051:18168   */\n    tag_243:\n        /* \"#utility.yul\":18105:18113   */\n      0x00\n        /* \"#utility.yul\":18155:18160   */\n      dup3\n        /* \"#utility.yul\":18149:18153   */\n      dup3\n        /* \"#utility.yul\":18145:18161   */\n      shr\n        /* \"#utility.yul\":18124:18161   */\n      swap1\n      pop\n        /* \"#utility.yul\":18051:18168   */\n      swap3\n      swap2\n      pop\n      pop\n      jump\t// out\n        /* \"#utility.yul\":18174:18343   */\n    tag_244:\n        /* \"#utility.yul\":18218:18224   */\n      0x00\n        /* \"#utility.yul\":18251:18302   */\n      tag_456\n        /* \"#utility.yul\":18299:18300   */\n      0x00\n        /* \"#utility.yul\":18295:18301   */\n      not\n        /* \"#utility.yul\":18287:18292   */\n      dup5\n        /* \"#utility.yul\":18284:18285   */\n      0x08\n        /* \"#utility.yul\":18280:18293   */\n      mul\n        /* \"#utility.yul\":18251:18302   */\n      tag_243\n      jump\t// in\n    tag_456:\n        /* \"#utility.yul\":18247:18303   */\n      not\n        /* \"#utility.yul\":18332:18336   */\n      dup1\n        /* \"#utility.yul\":18326:18330   */\n      dup4\n        /* \"#utility.yul\":18322:18337   */\n      and\n        /* \"#utility.yul\":18312:18337   */\n      swap2\n      pop\n        /* \"#utility.yul\":18225:18343   */\n      pop\n        /* \"#utility.yul\":18174:18343   */\n      swap3\n      swap2\n      pop\n      pop\n      jump\t// out\n        /* \"#utility.yul\":18348:18643   */\n    tag_245:\n        /* \"#utility.yul\":18424:18428   */\n      0x00\n        /* \"#utility.yul\":18570:18599   */\n      tag_458\n        /* \"#utility.yul\":18595:18598   */\n      dup4\n        /* \"#utility.yul\":18589:18593   */\n      dup4\n        /* \"#utility.yul\":18570:18599   */\n      tag_244\n      jump\t// in\n    tag_458:\n        /* \"#utility.yul\":18562:18599   */\n      swap2\n      pop\n        /* \"#utility.yul\":18632:18635   */\n      dup3\n        /* \"#utility.yul\":18629:18630   */\n      0x02\n        /* \"#utility.yul\":18625:18636   */\n      mul\n        /* \"#utility.yul\":18619:18623   */\n      dup3\n        /* \"#utility.yul\":18616:18637   */\n      or\n        /* \"#utility.yul\":18608:18637   */\n      swap1\n      pop\n        /* \"#utility.yul\":18348:18643   */\n      swap3\n      swap2\n      pop\n      pop\n      jump\t// out\n        /* \"#utility.yul\":18648:20043   */\n    tag_101:\n        /* \"#utility.yul\":18765:18802   */\n      tag_460\n        /* \"#utility.yul\":18798:18801   */\n      dup3\n        /* \"#utility.yul\":18765:18802   */\n      tag_213\n      jump\t// in\n    tag_460:\n        /* \"#utility.yul\":18867:18885   */\n      0xffffffffffffffff\n        /* \"#utility.yul\":18859:18865   */\n      dup2\n        /* \"#utility.yul\":18856:18886   */\n      gt\n        /* \"#utility.yul\":18853:18909   */\n      iszero\n      tag_461\n      jumpi\n        /* \"#utility.yul\":18889:18907   */\n      tag_462\n      tag_143\n      jump\t// in\n    tag_462:\n        /* \"#utility.yul\":18853:18909   */\n    tag_461:\n        /* \"#utility.yul\":18933:18971   */\n      tag_463\n        /* \"#utility.yul\":18965:18969   */\n      dup3\n        /* \"#utility.yul\":18959:18970   */\n      sload\n        /* \"#utility.yul\":18933:18971   */\n      tag_148\n      jump\t// in\n    tag_463:\n        /* \"#utility.yul\":19018:19085   */\n      tag_464\n        /* \"#utility.yul\":19078:19084   */\n      dup3\n        /* \"#utility.yul\":19070:19076   */\n      dup3\n        /* \"#utility.yul\":19064:19068   */\n      dup6\n        /* \"#utility.yul\":19018:19085   */\n      tag_242\n      jump\t// in\n    tag_464:\n        /* \"#utility.yul\":19112:19113   */\n      0x00\n        /* \"#utility.yul\":19136:19140   */\n      0x20\n        /* \"#utility.yul\":19123:19140   */\n      swap1\n      pop\n        /* \"#utility.yul\":19168:19170   */\n      0x1f\n        /* \"#utility.yul\":19160:19166   */\n      dup4\n        /* \"#utility.yul\":19157:19171   */\n      gt\n        /* \"#utility.yul\":19185:19186   */\n      0x01\n        /* \"#utility.yul\":19180:19798   */\n      dup2\n      eq\n      tag_466\n      jumpi\n        /* \"#utility.yul\":19842:19843   */\n      0x00\n        /* \"#utility.yul\":19859:19865   */\n      dup5\n        /* \"#utility.yul\":19856:19933   */\n      iszero\n      tag_467\n      jumpi\n        /* \"#utility.yul\":19908:19917   */\n      dup3\n        /* \"#utility.yul\":19903:19906   */\n      dup8\n        /* \"#utility.yul\":19899:19918   */\n      add\n        /* \"#utility.yul\":19893:19919   */\n      mload\n        /* \"#utility.yul\":19884:19919   */\n      swap1\n      pop\n        /* \"#utility.yul\":19856:19933   */\n    tag_467:\n        /* \"#utility.yul\":19959:20026   */\n      tag_468\n        /* \"#utility.yul\":20019:20025   */\n      dup6\n        /* \"#utility.yul\":20012:20017   */\n      dup3\n        /* \"#utility.yul\":19959:20026   */\n      tag_245\n      jump\t// in\n    tag_468:\n        /* \"#utility.yul\":19953:19957   */\n      dup7\n        /* \"#utility.yul\":19946:20027   */\n      sstore\n        /* \"#utility.yul\":19815:20037   */\n      pop\n        /* \"#utility.yul\":19150:20037   */\n      jump(tag_465)\n        /* \"#utility.yul\":19180:19798   */\n    tag_466:\n        /* \"#utility.yul\":19232:19236   */\n      0x1f\n        /* \"#utility.yul\":19228:19237   */\n      not\n        /* \"#utility.yul\":19220:19226   */\n      dup5\n        /* \"#utility.yul\":19216:19238   */\n      and\n        /* \"#utility.yul\":19266:19303   */\n      tag_469\n        /* \"#utility.yul\":19298:19302   */\n      dup7\n        /* \"#utility.yul\":19266:19303   */\n      tag_231\n      jump\t// in\n    tag_469:\n        /* \"#utility.yul\":19325:19326   */\n      0x00\n        /* \"#utility.yul\":19339:19547   */\n    tag_470:\n        /* \"#utility.yul\":19353:19360   */\n      dup3\n        /* \"#utility.yul\":19350:19351   */\n      dup2\n        /* \"#utility.yul\":19347:19361   */\n      lt\n        /* \"#utility.yul\":19339:19547   */\n      iszero\n      tag_472\n      jumpi\n        /* \"#utility.yul\":19432:19441   */\n      dup5\n        /* \"#utility.yul\":19427:19430   */\n      dup10\n        /* \"#utility.yul\":19423:19442   */\n      add\n        /* \"#utility.yul\":19417:19443   */\n      mload\n        /* \"#utility.yul\":19409:19415   */\n      dup3\n        /* \"#utility.yul\":19402:19444   */\n      sstore\n        /* \"#utility.yul\":19483:19484   */\n      0x01\n        /* \"#utility.yul\":19475:19481   */\n      dup3\n        /* \"#utility.yul\":19471:19485   */\n      add\n        /* \"#utility.yul\":19461:19485   */\n      swap2\n      pop\n        /* \"#utility.yul\":19530:19532   */\n      0x20\n        /* \"#utility.yul\":19519:19528   */\n      dup6\n        /* \"#utility.yul\":19515:19533   */\n      add\n        /* \"#utility.yul\":19502:19533   */\n      swap5\n      pop\n        /* \"#utility.yul\":19376:19380   */\n      0x20\n        /* \"#utility.yul\":19373:19374   */\n      dup2\n        /* \"#utility.yul\":19369:19381   */\n      add\n        /* \"#utility.yul\":19364:19381   */\n      swap1\n      pop\n        /* \"#utility.yul\":19339:19547   */\n      jump(tag_470)\n    tag_472:\n        /* \"#utility.yul\":19575:19581   */\n      dup7\n        /* \"#utility.yul\":19566:19573   */\n      dup4\n        /* \"#utility.yul\":19563:19582   */\n      lt\n        /* \"#utility.yul\":19560:19739   */\n      iszero\n      tag_473\n      jumpi\n        /* \"#utility.yul\":19633:19642   */\n      dup5\n        /* \"#utility.yul\":19628:19631   */\n      dup10\n        /* \"#utility.yul\":19624:19643   */\n      add\n        /* \"#utility.yul\":19618:19644   */\n      mload\n        /* \"#utility.yul\":19676:19724   */\n      tag_474\n        /* \"#utility.yul\":19718:19722   */\n      0x1f\n        /* \"#utility.yul\":19710:19716   */\n      dup10\n        /* \"#utility.yul\":19706:19723   */\n      and\n        /* \"#utility.yul\":19695:19704   */\n      dup3\n        /* \"#utility.yul\":19676:19724   */\n      tag_244\n      jump\t// in\n    tag_474:\n        /* \"#utility.yul\":19668:19674   */\n      dup4\n        /* \"#utility.yul\":19661:19725   */\n      sstore\n        /* \"#utility.yul\":19583:19739   */\n      pop\n        /* \"#utility.yul\":19560:19739   */\n    tag_473:\n        /* \"#utility.yul\":19785:19786   */\n      0x01\n        /* \"#utility.yul\":19781:19782   */\n      0x02\n        /* \"#utility.yul\":19773:19779   */\n      dup9\n        /* \"#utility.yul\":19769:19783   */\n      mul\n        /* \"#utility.yul\":19765:19787   */\n      add\n        /* \"#utility.yul\":19759:19763   */\n      dup9\n        /* \"#utility.yul\":19752:19788   */\n      sstore\n        /* \"#utility.yul\":19187:19798   */\n      pop\n      pop\n      pop\n        /* \"#utility.yul\":19150:20037   */\n    tag_465:\n      pop\n        /* \"#utility.yul\":18740:20043   */\n      pop\n      pop\n      pop\n        /* \"#utility.yul\":18648:20043   */\n      pop\n      pop\n      jump\t// out\n        /* \"#utility.yul\":20049:20270   */\n    tag_246:\n        /* \"#utility.yul\":20189:20223   */\n      0x4f6e6c79206f776e65722063616e2063616c6c20746869732066756e6374696f\n        /* \"#utility.yul\":20185:20186   */\n      0x00\n        /* \"#utility.yul\":20177:20183   */\n      dup3\n        /* \"#utility.yul\":20173:20187   */\n      add\n        /* \"#utility.yul\":20166:20224   */\n      mstore\n        /* \"#utility.yul\":20258:20262   */\n      0x6e21000000000000000000000000000000000000000000000000000000000000\n        /* \"#utility.yul\":20253:20255   */\n      0x20\n        /* \"#utility.yul\":20245:20251   */\n      dup3\n        /* \"#utility.yul\":20241:20256   */\n      add\n        /* \"#utility.yul\":20234:20263   */\n      mstore\n        /* \"#utility.yul\":20049:20270   */\n      pop\n      jump\t// out\n        /* \"#utility.yul\":20276:20642   */\n    tag_247:\n        /* \"#utility.yul\":20418:20421   */\n      0x00\n        /* \"#utility.yul\":20439:20506   */\n      tag_477\n        /* \"#utility.yul\":20503:20505   */\n      0x22\n        /* \"#utility.yul\":20498:20501   */\n      dup4\n        /* \"#utility.yul\":20439:20506   */\n      tag_214\n      jump\t// in\n    tag_477:\n        /* \"#utility.yul\":20432:20506   */\n      swap2\n      pop\n        /* \"#utility.yul\":20515:20608   */\n      tag_478\n        /* \"#utility.yul\":20604:20607   */\n      dup3\n        /* \"#utility.yul\":20515:20608   */\n      tag_246\n      jump\t// in\n    tag_478:\n        /* \"#utility.yul\":20633:20635   */\n      0x40\n        /* \"#utility.yul\":20628:20631   */\n      dup3\n        /* \"#utility.yul\":20624:20636   */\n      add\n        /* \"#utility.yul\":20617:20636   */\n      swap1\n      pop\n        /* \"#utility.yul\":20276:20642   */\n      swap2\n      swap1\n      pop\n      jump\t// out\n        /* \"#utility.yul\":20648:21067   */\n    tag_106:\n        /* \"#utility.yul\":20814:20818   */\n      0x00\n        /* \"#utility.yul\":20852:20854   */\n      0x20\n        /* \"#utility.yul\":20841:20850   */\n      dup3\n        /* \"#utility.yul\":20837:20855   */\n      add\n        /* \"#utility.yul\":20829:20855   */\n      swap1\n      pop\n        /* \"#utility.yul\":20901:20910   */\n      dup2\n        /* \"#utility.yul\":20895:20899   */\n      dup2\n        /* \"#utility.yul\":20891:20911   */\n      sub\n        /* \"#utility.yul\":20887:20888   */\n      0x00\n        /* \"#utility.yul\":20876:20885   */\n      dup4\n        /* \"#utility.yul\":20872:20889   */\n      add\n        /* \"#utility.yul\":20865:20912   */\n      mstore\n        /* \"#utility.yul\":20929:21060   */\n      tag_480\n        /* \"#utility.yul\":21055:21059   */\n      dup2\n        /* \"#utility.yul\":20929:21060   */\n      tag_247\n      jump\t// in\n    tag_480:\n        /* \"#utility.yul\":20921:21060   */\n      swap1\n      pop\n        /* \"#utility.yul\":20648:21067   */\n      swap2\n      swap1\n      pop\n      jump\t// out\n        /* \"#utility.yul\":21073:21247   */\n    tag_248:\n        /* \"#utility.yul\":21213:21239   */\n      0x4c6f747465727920616c72656164792073746172746564210000000000000000\n        /* \"#utility.yul\":21209:21210   */\n      0x00\n        /* \"#utility.yul\":21201:21207   */\n      dup3\n        /* \"#utility.yul\":21197:21211   */\n      add\n        /* \"#utility.yul\":21190:21240   */\n      mstore\n        /* \"#utility.yul\":21073:21247   */\n      pop\n      jump\t// out\n        /* \"#utility.yul\":21253:21619   */\n    tag_249:\n        /* \"#utility.yul\":21395:21398   */\n      0x00\n        /* \"#utility.yul\":21416:21483   */\n      tag_483\n        /* \"#utility.yul\":21480:21482   */\n      0x18\n        /* \"#utility.yul\":21475:21478   */\n      dup4\n        /* \"#utility.yul\":21416:21483   */\n      tag_214\n      jump\t// in\n    tag_483:\n        /* \"#utility.yul\":21409:21483   */\n      swap2\n      pop\n        /* \"#utility.yul\":21492:21585   */\n      tag_484\n        /* \"#utility.yul\":21581:21584   */\n      dup3\n        /* \"#utility.yul\":21492:21585   */\n      tag_248\n      jump\t// in\n    tag_484:\n        /* \"#utility.yul\":21610:21612   */\n      0x20\n        /* \"#utility.yul\":21605:21608   */\n      dup3\n        /* \"#utility.yul\":21601:21613   */\n      add\n        /* \"#utility.yul\":21594:21613   */\n      swap1\n      pop\n        /* \"#utility.yul\":21253:21619   */\n      swap2\n      swap1\n      pop\n      jump\t// out\n        /* \"#utility.yul\":21625:22044   */\n    tag_110:\n        /* \"#utility.yul\":21791:21795   */\n      0x00\n        /* \"#utility.yul\":21829:21831   */\n      0x20\n        /* \"#utility.yul\":21818:21827   */\n      dup3\n        /* \"#utility.yul\":21814:21832   */\n      add\n        /* \"#utility.yul\":21806:21832   */\n      swap1\n      pop\n        /* \"#utility.yul\":21878:21887   */\n      dup2\n        /* \"#utility.yul\":21872:21876   */\n      dup2\n        /* \"#utility.yul\":21868:21888   */\n      sub\n        /* \"#utility.yul\":21864:21865   */\n      0x00\n        /* \"#utility.yul\":21853:21862   */\n      dup4\n        /* \"#utility.yul\":21849:21866   */\n      add\n        /* \"#utility.yul\":21842:21889   */\n      mstore\n        /* \"#utility.yul\":21906:22037   */\n      tag_486\n        /* \"#utility.yul\":22032:22036   */\n      dup2\n        /* \"#utility.yul\":21906:22037   */\n      tag_249\n      jump\t// in\n    tag_486:\n        /* \"#utility.yul\":21898:22037   */\n      swap1\n      pop\n        /* \"#utility.yul\":21625:22044   */\n      swap2\n      swap1\n      pop\n      jump\t// out\n        /* \"#utility.yul\":22050:22230   */\n    tag_250:\n        /* \"#utility.yul\":22098:22175   */\n      0x4e487b7100000000000000000000000000000000000000000000000000000000\n        /* \"#utility.yul\":22095:22096   */\n      0x00\n        /* \"#utility.yul\":22088:22176   */\n      mstore\n        /* \"#utility.yul\":22195:22199   */\n      0x11\n        /* \"#utility.yul\":22192:22193   */\n      0x04\n        /* \"#utility.yul\":22185:22200   */\n      mstore\n        /* \"#utility.yul\":22219:22223   */\n      0x24\n        /* \"#utility.yul\":22216:22217   */\n      0x00\n        /* \"#utility.yul\":22209:22224   */\n      revert\n        /* \"#utility.yul\":22236:22427   */\n    tag_112:\n        /* \"#utility.yul\":22276:22279   */\n      0x00\n        /* \"#utility.yul\":22295:22315   */\n      tag_489\n        /* \"#utility.yul\":22313:22314   */\n      dup3\n        /* \"#utility.yul\":22295:22315   */\n      tag_195\n      jump\t// in\n    tag_489:\n        /* \"#utility.yul\":22290:22315   */\n      swap2\n      pop\n        /* \"#utility.yul\":22329:22349   */\n      tag_490\n        /* \"#utility.yul\":22347:22348   */\n      dup4\n        /* \"#utility.yul\":22329:22349   */\n      tag_195\n      jump\t// in\n    tag_490:\n        /* \"#utility.yul\":22324:22349   */\n      swap3\n      pop\n        /* \"#utility.yul\":22372:22373   */\n      dup3\n        /* \"#utility.yul\":22369:22370   */\n      dup3\n        /* \"#utility.yul\":22365:22374   */\n      add\n        /* \"#utility.yul\":22358:22374   */\n      swap1\n      pop\n        /* \"#utility.yul\":22393:22396   */\n      dup1\n        /* \"#utility.yul\":22390:22391   */\n      dup3\n        /* \"#utility.yul\":22387:22397   */\n      gt\n        /* \"#utility.yul\":22384:22420   */\n      iszero\n      tag_491\n      jumpi\n        /* \"#utility.yul\":22400:22418   */\n      tag_492\n      tag_250\n      jump\t// in\n    tag_492:\n        /* \"#utility.yul\":22384:22420   */\n    tag_491:\n        /* \"#utility.yul\":22236:22427   */\n      swap3\n      swap2\n      pop\n      pop\n      jump\t// out\n        /* \"#utility.yul\":22433:22677   */\n    tag_251:\n        /* \"#utility.yul\":22573:22607   */\n      0x4c6f74746572792073686f756c6420626520656e64656420696e206f72646572\n        /* \"#utility.yul\":22569:22570   */\n      0x00\n        /* \"#utility.yul\":22561:22567   */\n      dup3\n        /* \"#utility.yul\":22557:22571   */\n      add\n        /* \"#utility.yul\":22550:22608   */\n      mstore\n        /* \"#utility.yul\":22642:22669   */\n      0x20746f2064657465726d696e65207468652077696e6e65722100000000000000\n        /* \"#utility.yul\":22637:22639   */\n      0x20\n        /* \"#utility.yul\":22629:22635   */\n      dup3\n        /* \"#utility.yul\":22625:22640   */\n      add\n        /* \"#utility.yul\":22618:22670   */\n      mstore\n        /* \"#utility.yul\":22433:22677   */\n      pop\n      jump\t// out\n        /* \"#utility.yul\":22683:23049   */\n    tag_252:\n        /* \"#utility.yul\":22825:22828   */\n      0x00\n        /* \"#utility.yul\":22846:22913   */\n      tag_495\n        /* \"#utility.yul\":22910:22912   */\n      0x39\n        /* \"#utility.yul\":22905:22908   */\n      dup4\n        /* \"#utility.yul\":22846:22913   */\n      tag_214\n      jump\t// in\n    tag_495:\n        /* \"#utility.yul\":22839:22913   */\n      swap2\n      pop\n        /* \"#utility.yul\":22922:23015   */\n      tag_496\n        /* \"#utility.yul\":23011:23014   */\n      dup3\n        /* \"#utility.yul\":22922:23015   */\n      tag_251\n      jump\t// in\n    tag_496:\n        /* \"#utility.yul\":23040:23042   */\n      0x40\n        /* \"#utility.yul\":23035:23038   */\n      dup3\n        /* \"#utility.yul\":23031:23043   */\n      add\n        /* \"#utility.yul\":23024:23043   */\n      swap1\n      pop\n        /* \"#utility.yul\":22683:23049   */\n      swap2\n      swap1\n      pop\n      jump\t// out\n        /* \"#utility.yul\":23055:23474   */\n    tag_122:\n        /* \"#utility.yul\":23221:23225   */\n      0x00\n        /* \"#utility.yul\":23259:23261   */\n      0x20\n        /* \"#utility.yul\":23248:23257   */\n      dup3\n        /* \"#utility.yul\":23244:23262   */\n      add\n        /* \"#utility.yul\":23236:23262   */\n      swap1\n      pop\n        /* \"#utility.yul\":23308:23317   */\n      dup2\n        /* \"#utility.yul\":23302:23306   */\n      dup2\n        /* \"#utility.yul\":23298:23318   */\n      sub\n        /* \"#utility.yul\":23294:23295   */\n      0x00\n        /* \"#utility.yul\":23283:23292   */\n      dup4\n        /* \"#utility.yul\":23279:23296   */\n      add\n        /* \"#utility.yul\":23272:23319   */\n      mstore\n        /* \"#utility.yul\":23336:23467   */\n      tag_498\n        /* \"#utility.yul\":23462:23466   */\n      dup2\n        /* \"#utility.yul\":23336:23467   */\n      tag_252\n      jump\t// in\n    tag_498:\n        /* \"#utility.yul\":23328:23467   */\n      swap1\n      pop\n        /* \"#utility.yul\":23055:23474   */\n      swap2\n      swap1\n      pop\n      jump\t// out\n        /* \"#utility.yul\":23480:23660   */\n    tag_253:\n        /* \"#utility.yul\":23528:23605   */\n      0x4e487b7100000000000000000000000000000000000000000000000000000000\n        /* \"#utility.yul\":23525:23526   */\n      0x00\n        /* \"#utility.yul\":23518:23606   */\n      mstore\n        /* \"#utility.yul\":23625:23629   */\n      0x12\n        /* \"#utility.yul\":23622:23623   */\n      0x04\n        /* \"#utility.yul\":23615:23630   */\n      mstore\n        /* \"#utility.yul\":23649:23653   */\n      0x24\n        /* \"#utility.yul\":23646:23647   */\n      0x00\n        /* \"#utility.yul\":23639:23654   */\n      revert\n        /* \"#utility.yul\":23666:23842   */\n    tag_125:\n        /* \"#utility.yul\":23698:23699   */\n      0x00\n        /* \"#utility.yul\":23715:23735   */\n      tag_501\n        /* \"#utility.yul\":23733:23734   */\n      dup3\n        /* \"#utility.yul\":23715:23735   */\n      tag_195\n      jump\t// in\n    tag_501:\n        /* \"#utility.yul\":23710:23735   */\n      swap2\n      pop\n        /* \"#utility.yul\":23749:23769   */\n      tag_502\n        /* \"#utility.yul\":23767:23768   */\n      dup4\n        /* \"#utility.yul\":23749:23769   */\n      tag_195\n      jump\t// in\n    tag_502:\n        /* \"#utility.yul\":23744:23769   */\n      swap3\n      pop\n        /* \"#utility.yul\":23788:23789   */\n      dup3\n        /* \"#utility.yul\":23778:23813   */\n      tag_503\n      jumpi\n        /* \"#utility.yul\":23793:23811   */\n      tag_504\n      tag_253\n      jump\t// in\n    tag_504:\n        /* \"#utility.yul\":23778:23813   */\n    tag_503:\n        /* \"#utility.yul\":23834:23835   */\n      dup3\n        /* \"#utility.yul\":23831:23832   */\n      dup3\n        /* \"#utility.yul\":23827:23836   */\n      mod\n        /* \"#utility.yul\":23822:23836   */\n      swap1\n      pop\n        /* \"#utility.yul\":23666:23842   */\n      swap3\n      swap2\n      pop\n      pop\n      jump\t// out\n        /* \"#utility.yul\":23848:24028   */\n    tag_128:\n        /* \"#utility.yul\":23896:23973   */\n      0x4e487b7100000000000000000000000000000000000000000000000000000000\n        /* \"#utility.yul\":23893:23894   */\n      0x00\n        /* \"#utility.yul\":23886:23974   */\n      mstore\n        /* \"#utility.yul\":23993:23997   */\n      0x32\n        /* \"#utility.yul\":23990:23991   */\n      0x04\n        /* \"#utility.yul\":23983:23998   */\n      mstore\n        /* \"#utility.yul\":24017:24021   */\n      0x24\n        /* \"#utility.yul\":24014:24015   */\n      0x00\n        /* \"#utility.yul\":24007:24022   */\n      revert\n        /* \"#utility.yul\":24034:24181   */\n    tag_254:\n        /* \"#utility.yul\":24135:24146   */\n      0x00\n        /* \"#utility.yul\":24172:24175   */\n      dup2\n        /* \"#utility.yul\":24157:24175   */\n      swap1\n      pop\n        /* \"#utility.yul\":24034:24181   */\n      swap3\n      swap2\n      pop\n      pop\n      jump\t// out\n        /* \"#utility.yul\":24187:24301   */\n    tag_255:\n      pop\n      jump\t// out\n        /* \"#utility.yul\":24307:24705   */\n    tag_256:\n        /* \"#utility.yul\":24466:24469   */\n      0x00\n        /* \"#utility.yul\":24487:24570   */\n      tag_509\n        /* \"#utility.yul\":24568:24569   */\n      0x00\n        /* \"#utility.yul\":24563:24566   */\n      dup4\n        /* \"#utility.yul\":24487:24570   */\n      tag_254\n      jump\t// in\n    tag_509:\n        /* \"#utility.yul\":24480:24570   */\n      swap2\n      pop\n        /* \"#utility.yul\":24579:24672   */\n      tag_510\n        /* \"#utility.yul\":24668:24671   */\n      dup3\n        /* \"#utility.yul\":24579:24672   */\n      tag_255\n      jump\t// in\n    tag_510:\n        /* \"#utility.yul\":24697:24698   */\n      0x00\n        /* \"#utility.yul\":24692:24695   */\n      dup3\n        /* \"#utility.yul\":24688:24699   */\n      add\n        /* \"#utility.yul\":24681:24699   */\n      swap1\n      pop\n        /* \"#utility.yul\":24307:24705   */\n      swap2\n      swap1\n      pop\n      jump\t// out\n        /* \"#utility.yul\":24711:25090   */\n    tag_134:\n        /* \"#utility.yul\":24895:24898   */\n      0x00\n        /* \"#utility.yul\":24917:25064   */\n      tag_512\n        /* \"#utility.yul\":25060:25063   */\n      dup3\n        /* \"#utility.yul\":24917:25064   */\n      tag_256\n      jump\t// in\n    tag_512:\n        /* \"#utility.yul\":24910:25064   */\n      swap2\n      pop\n        /* \"#utility.yul\":25081:25084   */\n      dup2\n        /* \"#utility.yul\":25074:25084   */\n      swap1\n      pop\n        /* \"#utility.yul\":24711:25090   */\n      swap2\n      swap1\n      pop\n      jump\t// out\n        /* \"#utility.yul\":25096:25266   */\n    tag_257:\n        /* \"#utility.yul\":25236:25258   */\n      0x5472616e73666572696e67204661696c6c656421000000000000000000000000\n        /* \"#utility.yul\":25232:25233   */\n      0x00\n        /* \"#utility.yul\":25224:25230   */\n      dup3\n        /* \"#utility.yul\":25220:25234   */\n      add\n        /* \"#utility.yul\":25213:25259   */\n      mstore\n        /* \"#utility.yul\":25096:25266   */\n      pop\n      jump\t// out\n        /* \"#utility.yul\":25272:25638   */\n    tag_258:\n        /* \"#utility.yul\":25414:25417   */\n      0x00\n        /* \"#utility.yul\":25435:25502   */\n      tag_515\n        /* \"#utility.yul\":25499:25501   */\n      0x14\n        /* \"#utility.yul\":25494:25497   */\n      dup4\n        /* \"#utility.yul\":25435:25502   */\n      tag_214\n      jump\t// in\n    tag_515:\n        /* \"#utility.yul\":25428:25502   */\n      swap2\n      pop\n        /* \"#utility.yul\":25511:25604   */\n      tag_516\n        /* \"#utility.yul\":25600:25603   */\n      dup3\n        /* \"#utility.yul\":25511:25604   */\n      tag_257\n      jump\t// in\n    tag_516:\n        /* \"#utility.yul\":25629:25631   */\n      0x20\n        /* \"#utility.yul\":25624:25627   */\n      dup3\n        /* \"#utility.yul\":25620:25632   */\n      add\n        /* \"#utility.yul\":25613:25632   */\n      swap1\n      pop\n        /* \"#utility.yul\":25272:25638   */\n      swap2\n      swap1\n      pop\n      jump\t// out\n        /* \"#utility.yul\":25644:26063   */\n    tag_140:\n        /* \"#utility.yul\":25810:25814   */\n      0x00\n        /* \"#utility.yul\":25848:25850   */\n      0x20\n        /* \"#utility.yul\":25837:25846   */\n      dup3\n        /* \"#utility.yul\":25833:25851   */\n      add\n        /* \"#utility.yul\":25825:25851   */\n      swap1\n      pop\n        /* \"#utility.yul\":25897:25906   */\n      dup2\n        /* \"#utility.yul\":25891:25895   */\n      dup2\n        /* \"#utility.yul\":25887:25907   */\n      sub\n        /* \"#utility.yul\":25883:25884   */\n      0x00\n        /* \"#utility.yul\":25872:25881   */\n      dup4\n        /* \"#utility.yul\":25868:25885   */\n      add\n        /* \"#utility.yul\":25861:25908   */\n      mstore\n        /* \"#utility.yul\":25925:26056   */\n      tag_518\n        /* \"#utility.yul\":26051:26055   */\n      dup2\n        /* \"#utility.yul\":25925:26056   */\n      tag_258\n      jump\t// in\n    tag_518:\n        /* \"#utility.yul\":25917:26056   */\n      swap1\n      pop\n        /* \"#utility.yul\":25644:26063   */\n      swap2\n      swap1\n      pop\n      jump\t// out\n        /* \"#utility.yul\":26069:26148   */\n    tag_259:\n        /* \"#utility.yul\":26108:26115   */\n      0x00\n        /* \"#utility.yul\":26137:26142   */\n      dup2\n        /* \"#utility.yul\":26126:26142   */\n      swap1\n      pop\n        /* \"#utility.yul\":26069:26148   */\n      swap2\n      swap1\n      pop\n      jump\t// out\n        /* \"#utility.yul\":26154:26311   */\n    tag_260:\n        /* \"#utility.yul\":26259:26304   */\n      tag_521\n        /* \"#utility.yul\":26279:26303   */\n      tag_522\n        /* \"#utility.yul\":26297:26302   */\n      dup3\n        /* \"#utility.yul\":26279:26303   */\n      tag_195\n      jump\t// in\n    tag_522:\n        /* \"#utility.yul\":26259:26304   */\n      tag_259\n      jump\t// in\n    tag_521:\n        /* \"#utility.yul\":26254:26257   */\n      dup3\n        /* \"#utility.yul\":26247:26305   */\n      mstore\n        /* \"#utility.yul\":26154:26311   */\n      pop\n      pop\n      jump\t// out\n        /* \"#utility.yul\":26317:26411   */\n    tag_261:\n        /* \"#utility.yul\":26350:26358   */\n      0x00\n        /* \"#utility.yul\":26398:26403   */\n      dup2\n        /* \"#utility.yul\":26394:26396   */\n      0x60\n        /* \"#utility.yul\":26390:26404   */\n      shl\n        /* \"#utility.yul\":26369:26404   */\n      swap1\n      pop\n        /* \"#utility.yul\":26317:26411   */\n      swap2\n      swap1\n      pop\n      jump\t// out\n        /* \"#utility.yul\":26417:26511   */\n    tag_262:\n        /* \"#utility.yul\":26456:26463   */\n      0x00\n        /* \"#utility.yul\":26485:26505   */\n      tag_525\n        /* \"#utility.yul\":26499:26504   */\n      dup3\n        /* \"#utility.yul\":26485:26505   */\n      tag_261\n      jump\t// in\n    tag_525:\n        /* \"#utility.yul\":26474:26505   */\n      swap1\n      pop\n        /* \"#utility.yul\":26417:26511   */\n      swap2\n      swap1\n      pop\n      jump\t// out\n        /* \"#utility.yul\":26517:26617   */\n    tag_263:\n        /* \"#utility.yul\":26556:26563   */\n      0x00\n        /* \"#utility.yul\":26585:26611   */\n      tag_527\n        /* \"#utility.yul\":26605:26610   */\n      dup3\n        /* \"#utility.yul\":26585:26611   */\n      tag_262\n      jump\t// in\n    tag_527:\n        /* \"#utility.yul\":26574:26611   */\n      swap1\n      pop\n        /* \"#utility.yul\":26517:26617   */\n      swap2\n      swap1\n      pop\n      jump\t// out\n        /* \"#utility.yul\":26623:26780   */\n    tag_264:\n        /* \"#utility.yul\":26728:26773   */\n      tag_529\n        /* \"#utility.yul\":26748:26772   */\n      tag_530\n        /* \"#utility.yul\":26766:26771   */\n      dup3\n        /* \"#utility.yul\":26748:26772   */\n      tag_210\n      jump\t// in\n    tag_530:\n        /* \"#utility.yul\":26728:26773   */\n      tag_263\n      jump\t// in\n    tag_529:\n        /* \"#utility.yul\":26723:26726   */\n      dup3\n        /* \"#utility.yul\":26716:26774   */\n      mstore\n        /* \"#utility.yul\":26623:26780   */\n      pop\n      pop\n      jump\t// out\n        /* \"#utility.yul\":26786:27183   */\n    tag_165:\n        /* \"#utility.yul\":26926:26929   */\n      0x00\n        /* \"#utility.yul\":26941:27016   */\n      tag_532\n        /* \"#utility.yul\":27012:27015   */\n      dup3\n        /* \"#utility.yul\":27003:27009   */\n      dup6\n        /* \"#utility.yul\":26941:27016   */\n      tag_260\n      jump\t// in\n    tag_532:\n        /* \"#utility.yul\":27041:27043   */\n      0x20\n        /* \"#utility.yul\":27036:27039   */\n      dup3\n        /* \"#utility.yul\":27032:27044   */\n      add\n        /* \"#utility.yul\":27025:27044   */\n      swap2\n      pop\n        /* \"#utility.yul\":27054:27129   */\n      tag_533\n        /* \"#utility.yul\":27125:27128   */\n      dup3\n        /* \"#utility.yul\":27116:27122   */\n      dup5\n        /* \"#utility.yul\":27054:27129   */\n      tag_264\n      jump\t// in\n    tag_533:\n        /* \"#utility.yul\":27154:27156   */\n      0x14\n        /* \"#utility.yul\":27149:27152   */\n      dup3\n        /* \"#utility.yul\":27145:27157   */\n      add\n        /* \"#utility.yul\":27138:27157   */\n      swap2\n      pop\n        /* \"#utility.yul\":27174:27177   */\n      dup2\n        /* \"#utility.yul\":27167:27177   */\n      swap1\n      pop\n        /* \"#utility.yul\":26786:27183   */\n      swap4\n      swap3\n      pop\n      pop\n      pop\n      jump\t// out\n        /* \"#utility.yul\":27189:27423   */\n    tag_265:\n        /* \"#utility.yul\":27329:27363   */\n      0x4c6f74746572792073686f756c64206265207374617274656420666972737420\n        /* \"#utility.yul\":27325:27326   */\n      0x00\n        /* \"#utility.yul\":27317:27323   */\n      dup3\n        /* \"#utility.yul\":27313:27327   */\n      add\n        /* \"#utility.yul\":27306:27364   */\n      mstore\n        /* \"#utility.yul\":27398:27415   */\n      0x6265666f726520697420656e6473210000000000000000000000000000000000\n        /* \"#utility.yul\":27393:27395   */\n      0x20\n        /* \"#utility.yul\":27385:27391   */\n      dup3\n        /* \"#utility.yul\":27381:27396   */\n      add\n        /* \"#utility.yul\":27374:27416   */\n      mstore\n        /* \"#utility.yul\":27189:27423   */\n      pop\n      jump\t// out\n        /* \"#utility.yul\":27429:27795   */\n    tag_266:\n        /* \"#utility.yul\":27571:27574   */\n      0x00\n        /* \"#utility.yul\":27592:27659   */\n      tag_536\n        /* \"#utility.yul\":27656:27658   */\n      0x2f\n        /* \"#utility.yul\":27651:27654   */\n      dup4\n        /* \"#utility.yul\":27592:27659   */\n      tag_214\n      jump\t// in\n    tag_536:\n        /* \"#utility.yul\":27585:27659   */\n      swap2\n      pop\n        /* \"#utility.yul\":27668:27761   */\n      tag_537\n        /* \"#utility.yul\":27757:27760   */\n      dup3\n        /* \"#utility.yul\":27668:27761   */\n      tag_265\n      jump\t// in\n    tag_537:\n        /* \"#utility.yul\":27786:27788   */\n      0x40\n        /* \"#utility.yul\":27781:27784   */\n      dup3\n        /* \"#utility.yul\":27777:27789   */\n      add\n        /* \"#utility.yul\":27770:27789   */\n      swap1\n      pop\n        /* \"#utility.yul\":27429:27795   */\n      swap2\n      swap1\n      pop\n      jump\t// out\n        /* \"#utility.yul\":27801:28220   */\n    tag_169:\n        /* \"#utility.yul\":27967:27971   */\n      0x00\n        /* \"#utility.yul\":28005:28007   */\n      0x20\n        /* \"#utility.yul\":27994:28003   */\n      dup3\n        /* \"#utility.yul\":27990:28008   */\n      add\n        /* \"#utility.yul\":27982:28008   */\n      swap1\n      pop\n        /* \"#utility.yul\":28054:28063   */\n      dup2\n        /* \"#utility.yul\":28048:28052   */\n      dup2\n        /* \"#utility.yul\":28044:28064   */\n      sub\n        /* \"#utility.yul\":28040:28041   */\n      0x00\n        /* \"#utility.yul\":28029:28038   */\n      dup4\n        /* \"#utility.yul\":28025:28042   */\n      add\n        /* \"#utility.yul\":28018:28065   */\n      mstore\n        /* \"#utility.yul\":28082:28213   */\n      tag_539\n        /* \"#utility.yul\":28208:28212   */\n      dup2\n        /* \"#utility.yul\":28082:28213   */\n      tag_266\n      jump\t// in\n    tag_539:\n        /* \"#utility.yul\":28074:28213   */\n      swap1\n      pop\n        /* \"#utility.yul\":27801:28220   */\n      swap2\n      swap1\n      pop\n      jump\t// out\n        /* \"#utility.yul\":28226:28398   */\n    tag_267:\n        /* \"#utility.yul\":28366:28390   */\n      0x4c6f747465727920616c726561647920656e6465642100000000000000000000\n        /* \"#utility.yul\":28362:28363   */\n      0x00\n        /* \"#utility.yul\":28354:28360   */\n      dup3\n        /* \"#utility.yul\":28350:28364   */\n      add\n        /* \"#utility.yul\":28343:28391   */\n      mstore\n        /* \"#utility.yul\":28226:28398   */\n      pop\n      jump\t// out\n        /* \"#utility.yul\":28404:28770   */\n    tag_268:\n        /* \"#utility.yul\":28546:28549   */\n      0x00\n        /* \"#utility.yul\":28567:28634   */\n      tag_542\n        /* \"#utility.yul\":28631:28633   */\n      0x16\n        /* \"#utility.yul\":28626:28629   */\n      dup4\n        /* \"#utility.yul\":28567:28634   */\n      tag_214\n      jump\t// in\n    tag_542:\n        /* \"#utility.yul\":28560:28634   */\n      swap2\n      pop\n        /* \"#utility.yul\":28643:28736   */\n      tag_543\n        /* \"#utility.yul\":28732:28735   */\n      dup3\n        /* \"#utility.yul\":28643:28736   */\n      tag_267\n      jump\t// in\n    tag_543:\n        /* \"#utility.yul\":28761:28763   */\n      0x20\n        /* \"#utility.yul\":28756:28759   */\n      dup3\n        /* \"#utility.yul\":28752:28764   */\n      add\n        /* \"#utility.yul\":28745:28764   */\n      swap1\n      pop\n        /* \"#utility.yul\":28404:28770   */\n      swap2\n      swap1\n      pop\n      jump\t// out\n        /* \"#utility.yul\":28776:29195   */\n    tag_172:\n        /* \"#utility.yul\":28942:28946   */\n      0x00\n        /* \"#utility.yul\":28980:28982   */\n      0x20\n        /* \"#utility.yul\":28969:28978   */\n      dup3\n        /* \"#utility.yul\":28965:28983   */\n      add\n        /* \"#utility.yul\":28957:28983   */\n      swap1\n      pop\n        /* \"#utility.yul\":29029:29038   */\n      dup2\n        /* \"#utility.yul\":29023:29027   */\n      dup2\n        /* \"#utility.yul\":29019:29039   */\n      sub\n        /* \"#utility.yul\":29015:29016   */\n      0x00\n        /* \"#utility.yul\":29004:29013   */\n      dup4\n        /* \"#utility.yul\":29000:29017   */\n      add\n        /* \"#utility.yul\":28993:29040   */\n      mstore\n        /* \"#utility.yul\":29057:29188   */\n      tag_545\n        /* \"#utility.yul\":29183:29187   */\n      dup2\n        /* \"#utility.yul\":29057:29188   */\n      tag_268\n      jump\t// in\n    tag_545:\n        /* \"#utility.yul\":29049:29188   */\n      swap1\n      pop\n        /* \"#utility.yul\":28776:29195   */\n      swap2\n      swap1\n      pop\n      jump\t// out\n        /* \"#utility.yul\":29201:29375   */\n    tag_269:\n        /* \"#utility.yul\":29341:29367   */\n      0x4c6f7474657279206973207374696c6c206f6e676f696e670000000000000000\n        /* \"#utility.yul\":29337:29338   */\n      0x00\n        /* \"#utility.yul\":29329:29335   */\n      dup3\n        /* \"#utility.yul\":29325:29339   */\n      add\n        /* \"#utility.yul\":29318:29368   */\n      mstore\n        /* \"#utility.yul\":29201:29375   */\n      pop\n      jump\t// out\n        /* \"#utility.yul\":29381:29747   */\n    tag_270:\n        /* \"#utility.yul\":29523:29526   */\n      0x00\n        /* \"#utility.yul\":29544:29611   */\n      tag_548\n        /* \"#utility.yul\":29608:29610   */\n      0x18\n        /* \"#utility.yul\":29603:29606   */\n      dup4\n        /* \"#utility.yul\":29544:29611   */\n      tag_214\n      jump\t// in\n    tag_548:\n        /* \"#utility.yul\":29537:29611   */\n      swap2\n      pop\n        /* \"#utility.yul\":29620:29713   */\n      tag_549\n        /* \"#utility.yul\":29709:29712   */\n      dup3\n        /* \"#utility.yul\":29620:29713   */\n      tag_269\n      jump\t// in\n    tag_549:\n        /* \"#utility.yul\":29738:29740   */\n      0x20\n        /* \"#utility.yul\":29733:29736   */\n      dup3\n        /* \"#utility.yul\":29729:29741   */\n      add\n        /* \"#utility.yul\":29722:29741   */\n      swap1\n      pop\n        /* \"#utility.yul\":29381:29747   */\n      swap2\n      swap1\n      pop\n      jump\t// out\n        /* \"#utility.yul\":29753:30172   */\n    tag_175:\n        /* \"#utility.yul\":29919:29923   */\n      0x00\n        /* \"#utility.yul\":29957:29959   */\n      0x20\n        /* \"#utility.yul\":29946:29955   */\n      dup3\n        /* \"#utility.yul\":29942:29960   */\n      add\n        /* \"#utility.yul\":29934:29960   */\n      swap1\n      pop\n        /* \"#utility.yul\":30006:30015   */\n      dup2\n        /* \"#utility.yul\":30000:30004   */\n      dup2\n        /* \"#utility.yul\":29996:30016   */\n      sub\n        /* \"#utility.yul\":29992:29993   */\n      0x00\n        /* \"#utility.yul\":29981:29990   */\n      dup4\n        /* \"#utility.yul\":29977:29994   */\n      add\n        /* \"#utility.yul\":29970:30017   */\n      mstore\n        /* \"#utility.yul\":30034:30165   */\n      tag_551\n        /* \"#utility.yul\":30160:30164   */\n      dup2\n        /* \"#utility.yul\":30034:30165   */\n      tag_270\n      jump\t// in\n    tag_551:\n        /* \"#utility.yul\":30026:30165   */\n      swap1\n      pop\n        /* \"#utility.yul\":29753:30172   */\n      swap2\n      swap1\n      pop\n      jump\t// out\n\n    auxdata: 0xa2646970667358221220203327a2432a01605936425dbd97f87073ccd5a0391b3f0fa57c4d0f5888e1f864736f6c63430008120033\n}\n",
				"bytecode": {
					"linkReferences": {},
					"object": "608060405234801561001057600080fd5b50336000806101000a81548173ffffffffffffffffffffffffffffffffffffffff021916908373ffffffffffffffffffffffffffffffffffffffff160217905550611e97806100606000396000f3fe6080604052600436106100e85760003560e01c8063799fb6ee1161008a578063d9618d8011610059578063d9618d80146102b5578063dbdff2c1146102f2578063ed7a4e0b1461031d578063efbe1c1c14610348576100e8565b8063799fb6ee146101e35780637cc3ae8c146102225780638da5cb5b1461024d578063c6ba821114610278576100e8565b8063160344e2116100c6578063160344e21461015f5780631f2698ab146101765780635aa68ac0146101a15780635d495aea146101cc576100e8565b806307400f09146100ed57806312065fe01461010957806312fa6feb14610134575b600080fd5b6101076004803603810190610102919061106f565b61035f565b005b34801561011557600080fd5b5061011e610590565b60405161012b91906110da565b60405180910390f35b34801561014057600080fd5b50610149610598565b6040516101569190611110565b60405180910390f35b34801561016b57600080fd5b506101746105ab565b005b34801561018257600080fd5b5061018b6106bb565b6040516101989190611110565b60405180910390f35b3480156101ad57600080fd5b506101b66106ce565b6040516101c3919061121b565b60405180910390f35b3480156101d857600080fd5b506101e161075c565b005b3480156101ef57600080fd5b5061020a6004803603810190610205919061127b565b610a22565b60405161021993929190611336565b60405180910390f35b34801561022e57600080fd5b50610237610af4565b60405161024491906110da565b60405180910390f35b34801561025957600080fd5b50610262610afa565b60405161026f9190611374565b60405180910390f35b34801561028457600080fd5b5061029f600480360381019061029a919061138f565b610b1e565b6040516102ac91906113cb565b60405180910390f35b3480156102c157600080fd5b506102dc60048036038101906102d7919061127b565b610b5d565b6040516102e9919061149e565b60405180910390f35b3480156102fe57600080fd5b50610307610ca8565b60405161031491906110da565b60405180910390f35b34801561032957600080fd5b50610332610cdb565b60405161033f9190611374565b60405180910390f35b34801561035457600080fd5b5061035d610d01565b005b60011515600060149054906101000a900460ff161515146103b5576040517f08c379a00000000000000000000000000000000000000000000000000000000081526004016103ac90611532565b60405180910390fd5b600060159054906101000a900460ff1615610405576040517f08c379a00000000000000000000000000000000000000000000000000000000081526004016103fc9061159e565b60405180910390fd5b662386f26fc1000034101561044f576040517f08c379a000000000000000000000000000000000000000000000000000000000815260040161044690611630565b60405180910390fd5b6003339080600181540180825580915050600190039060005260206000200160009091909190916101000a81548173ffffffffffffffffffffffffffffffffffffffff021916908373ffffffffffffffffffffffffffffffffffffffff16021790555060405180606001604052808381526020018281526020013373ffffffffffffffffffffffffffffffffffffffff16815250600460003373ffffffffffffffffffffffffffffffffffffffff1673ffffffffffffffffffffffffffffffffffffffff1681526020019081526020016000206000820151816000019081610537919061185c565b506020820151816001015560408201518160020160006101000a81548173ffffffffffffffffffffffffffffffffffffffff021916908373ffffffffffffffffffffffffffffffffffffffff1602179055509050505050565b600047905090565b600060159054906101000a900460ff1681565b60008054906101000a900473ffffffffffffffffffffffffffffffffffffffff1673ffffffffffffffffffffffffffffffffffffffff163373ffffffffffffffffffffffffffffffffffffffff1614610639576040517f08c379a0000000000000000000000000000000000000000000000000000000008152600401610630906119a0565b60405180910390fd5b600060149054906101000a900460ff1615610689576040517f08c379a000000000000000000000000000000000000000000000000000000000815260040161068090611a0c565b60405180910390fd5b6001600060146101000a81548160ff02191690831515021790555062093a80426106b39190611a5b565b600181905550565b600060149054906101000a900460ff1681565b6060600380548060200260200160405190810160405280929190818152602001828054801561075257602002820191906000526020600020905b8160009054906101000a900473ffffffffffffffffffffffffffffffffffffffff1673ffffffffffffffffffffffffffffffffffffffff1681526020019060010190808311610708575b5050505050905090565b60008054906101000a900473ffffffffffffffffffffffffffffffffffffffff1673ffffffffffffffffffffffffffffffffffffffff163373ffffffffffffffffffffffffffffffffffffffff16146107ea576040517f08c379a00000000000000000000000000000000000000000000000000000000081526004016107e1906119a0565b60405180910390fd5b600060159054906101000a900460ff16610839576040517f08c379a000000000000000000000000000000000000000000000000000000000815260040161083090611b01565b60405180910390fd5b6000600380549050610849610ca8565b6108539190611b50565b90506003818154811061086957610868611b81565b5b9060005260206000200160009054906101000a900473ffffffffffffffffffffffffffffffffffffffff16600260006101000a81548173ffffffffffffffffffffffffffffffffffffffff021916908373ffffffffffffffffffffffffffffffffffffffff1602179055506000600382815481106108ea576108e9611b81565b5b9060005260206000200160009054906101000a900473ffffffffffffffffffffffffffffffffffffffff1673ffffffffffffffffffffffffffffffffffffffff164760405161093890611be1565b60006040518083038185875af1925050503d8060008114610975576040519150601f19603f3d011682016040523d82523d6000602084013e61097a565b606091505b50509050806109be576040517f08c379a00000000000000000000000000000000000000000000000000000000081526004016109b590611c42565b60405180910390fd5b600067ffffffffffffffff8111156109d9576109d8610f0e565b5b604051908082528060200260200182016040528015610a075781602001602082028036833780820191505090505b5060039080519060200190610a1d929190610e01565b505050565b6004602052806000526040600020600091509050806000018054610a459061167f565b80601f0160208091040260200160405190810160405280929190818152602001828054610a719061167f565b8015610abe5780601f10610a9357610100808354040283529160200191610abe565b820191906000526020600020905b815481529060010190602001808311610aa157829003601f168201915b5050505050908060010154908060020160009054906101000a900473ffffffffffffffffffffffffffffffffffffffff16905083565b60015481565b60008054906101000a900473ffffffffffffffffffffffffffffffffffffffff1681565b60038181548110610b2e57600080fd5b906000526020600020016000915054906101000a900473ffffffffffffffffffffffffffffffffffffffff1681565b610b65610e8b565b600460008373ffffffffffffffffffffffffffffffffffffffff1673ffffffffffffffffffffffffffffffffffffffff168152602001908152602001600020604051806060016040529081600082018054610bbf9061167f565b80601f0160208091040260200160405190810160405280929190818152602001828054610beb9061167f565b8015610c385780601f10610c0d57610100808354040283529160200191610c38565b820191906000526020600020905b815481529060010190602001808311610c1b57829003601f168201915b50505050508152602001600182015481526020016002820160009054906101000a900473ffffffffffffffffffffffffffffffffffffffff1673ffffffffffffffffffffffffffffffffffffffff1673ffffffffffffffffffffffffffffffffffffffff16815250509050919050565b60004233604051602001610cbd929190611ccb565b6040516020818303038152906040528051906020012060001c905090565b600260009054906101000a900473ffffffffffffffffffffffffffffffffffffffff1681565b600060149054906101000a900460ff16610d50576040517f08c379a0000000000000000000000000000000000000000000000000000000008152600401610d4790611d69565b60405180910390fd5b600060159054906101000a900460ff1615610da0576040517f08c379a0000000000000000000000000000000000000000000000000000000008152600401610d9790611dd5565b60405180910390fd5b6001544211610de4576040517f08c379a0000000000000000000000000000000000000000000000000000000008152600401610ddb90611e41565b60405180910390fd5b6001600060156101000a81548160ff021916908315150217905550565b828054828255906000526020600020908101928215610e7a579160200282015b82811115610e795782518260006101000a81548173ffffffffffffffffffffffffffffffffffffffff021916908373ffffffffffffffffffffffffffffffffffffffff16021790555091602001919060010190610e21565b5b509050610e879190610ec2565b5090565b60405180606001604052806060815260200160008152602001600073ffffffffffffffffffffffffffffffffffffffff1681525090565b5b80821115610edb576000816000905550600101610ec3565b5090565b6000604051905090565b600080fd5b600080fd5b600080fd5b600080fd5b6000601f19601f8301169050919050565b7f4e487b7100000000000000000000000000000000000000000000000000000000600052604160045260246000fd5b610f4682610efd565b810181811067ffffffffffffffff82111715610f6557610f64610f0e565b5b80604052505050565b6000610f78610edf565b9050610f848282610f3d565b919050565b600067ffffffffffffffff821115610fa457610fa3610f0e565b5b610fad82610efd565b9050602081019050919050565b82818337600083830152505050565b6000610fdc610fd784610f89565b610f6e565b905082815260208101848484011115610ff857610ff7610ef8565b5b611003848285610fba565b509392505050565b600082601f8301126110205761101f610ef3565b5b8135611030848260208601610fc9565b91505092915050565b6000819050919050565b61104c81611039565b811461105757600080fd5b50565b60008135905061106981611043565b92915050565b6000806040838503121561108657611085610ee9565b5b600083013567ffffffffffffffff8111156110a4576110a3610eee565b5b6110b08582860161100b565b92505060206110c18582860161105a565b9150509250929050565b6110d481611039565b82525050565b60006020820190506110ef60008301846110cb565b92915050565b60008115159050919050565b61110a816110f5565b82525050565b60006020820190506111256000830184611101565b92915050565b600081519050919050565b600082825260208201905092915050565b6000819050602082019050919050565b600073ffffffffffffffffffffffffffffffffffffffff82169050919050565b600061118282611157565b9050919050565b61119281611177565b82525050565b60006111a48383611189565b60208301905092915050565b6000602082019050919050565b60006111c88261112b565b6111d28185611136565b93506111dd83611147565b8060005b8381101561120e5781516111f58882611198565b9750611200836111b0565b9250506001810190506111e1565b5085935050505092915050565b6000602082019050818103600083015261123581846111bd565b905092915050565b600061124882611157565b9050919050565b6112588161123d565b811461126357600080fd5b50565b6000813590506112758161124f565b92915050565b60006020828403121561129157611290610ee9565b5b600061129f84828501611266565b91505092915050565b600081519050919050565b600082825260208201905092915050565b60005b838110156112e25780820151818401526020810190506112c7565b60008484015250505050565b60006112f9826112a8565b61130381856112b3565b93506113138185602086016112c4565b61131c81610efd565b840191505092915050565b6113308161123d565b82525050565b6000606082019050818103600083015261135081866112ee565b905061135f60208301856110cb565b61136c6040830184611327565b949350505050565b60006020820190506113896000830184611327565b92915050565b6000602082840312156113a5576113a4610ee9565b5b60006113b38482850161105a565b91505092915050565b6113c581611177565b82525050565b60006020820190506113e060008301846113bc565b92915050565b600082825260208201905092915050565b6000611402826112a8565b61140c81856113e6565b935061141c8185602086016112c4565b61142581610efd565b840191505092915050565b61143981611039565b82525050565b6114488161123d565b82525050565b6000606083016000830151848203600086015261146b82826113f7565b91505060208301516114806020860182611430565b506040830151611493604086018261143f565b508091505092915050565b600060208201905081810360008301526114b8818461144e565b905092915050565b7f4c6f74746572792073686f756c6420626520737461727465642066697273742060008201527f6265666f726520796f7520656e74657221000000000000000000000000000000602082015250565b600061151c6031836112b3565b9150611527826114c0565b604082019050919050565b6000602082019050818103600083015261154b8161150f565b9050919050565b7f4c6f74746572792068617320616c726561647920656e64656421000000000000600082015250565b6000611588601a836112b3565b915061159382611552565b602082019050919050565b600060208201905081810360008301526115b78161157b565b9050919050565b7f596f75206e6565642061746c65617374202e303120657468657220746f20656e60008201527f74657220746865206c6f74746572790000000000000000000000000000000000602082015250565b600061161a602f836112b3565b9150611625826115be565b604082019050919050565b600060208201905081810360008301526116498161160d565b9050919050565b7f4e487b7100000000000000000000000000000000000000000000000000000000600052602260045260246000fd5b6000600282049050600182168061169757607f821691505b6020821081036116aa576116a9611650565b5b50919050565b60008190508160005260206000209050919050565b60006020601f8301049050919050565b600082821b905092915050565b6000600883026117127fffffffffffffffffffffffffffffffffffffffffffffffffffffffffffffffff826116d5565b61171c86836116d5565b95508019841693508086168417925050509392505050565b6000819050919050565b600061175961175461174f84611039565b611734565b611039565b9050919050565b6000819050919050565b6117738361173e565b61178761177f82611760565b8484546116e2565b825550505050565b600090565b61179c61178f565b6117a781848461176a565b505050565b5b818110156117cb576117c0600082611794565b6001810190506117ad565b5050565b601f821115611810576117e1816116b0565b6117ea846116c5565b810160208510156117f9578190505b61180d611805856116c5565b8301826117ac565b50505b505050565b600082821c905092915050565b600061183360001984600802611815565b1980831691505092915050565b600061184c8383611822565b9150826002028217905092915050565b611865826112a8565b67ffffffffffffffff81111561187e5761187d610f0e565b5b611888825461167f565b6118938282856117cf565b600060209050601f8311600181146118c657600084156118b4578287015190505b6118be8582611840565b865550611926565b601f1984166118d4866116b0565b60005b828110156118fc578489015182556001820191506020850194506020810190506118d7565b868310156119195784890151611915601f891682611822565b8355505b6001600288020188555050505b505050505050565b7f4f6e6c79206f776e65722063616e2063616c6c20746869732066756e6374696f60008201527f6e21000000000000000000000000000000000000000000000000000000000000602082015250565b600061198a6022836112b3565b91506119958261192e565b604082019050919050565b600060208201905081810360008301526119b98161197d565b9050919050565b7f4c6f747465727920616c72656164792073746172746564210000000000000000600082015250565b60006119f66018836112b3565b9150611a01826119c0565b602082019050919050565b60006020820190508181036000830152611a25816119e9565b9050919050565b7f4e487b7100000000000000000000000000000000000000000000000000000000600052601160045260246000fd5b6000611a6682611039565b9150611a7183611039565b9250828201905080821115611a8957611a88611a2c565b5b92915050565b7f4c6f74746572792073686f756c6420626520656e64656420696e206f7264657260008201527f20746f2064657465726d696e65207468652077696e6e65722100000000000000602082015250565b6000611aeb6039836112b3565b9150611af682611a8f565b604082019050919050565b60006020820190508181036000830152611b1a81611ade565b9050919050565b7f4e487b7100000000000000000000000000000000000000000000000000000000600052601260045260246000fd5b6000611b5b82611039565b9150611b6683611039565b925082611b7657611b75611b21565b5b828206905092915050565b7f4e487b7100000000000000000000000000000000000000000000000000000000600052603260045260246000fd5b600081905092915050565b50565b6000611bcb600083611bb0565b9150611bd682611bbb565b600082019050919050565b6000611bec82611bbe565b9150819050919050565b7f5472616e73666572696e67204661696c6c656421000000000000000000000000600082015250565b6000611c2c6014836112b3565b9150611c3782611bf6565b602082019050919050565b60006020820190508181036000830152611c5b81611c1f565b9050919050565b6000819050919050565b611c7d611c7882611039565b611c62565b82525050565b60008160601b9050919050565b6000611c9b82611c83565b9050919050565b6000611cad82611c90565b9050919050565b611cc5611cc08261123d565b611ca2565b82525050565b6000611cd78285611c6c565b602082019150611ce78284611cb4565b6014820191508190509392505050565b7f4c6f74746572792073686f756c6420626520737461727465642066697273742060008201527f6265666f726520697420656e6473210000000000000000000000000000000000602082015250565b6000611d53602f836112b3565b9150611d5e82611cf7565b604082019050919050565b60006020820190508181036000830152611d8281611d46565b9050919050565b7f4c6f747465727920616c726561647920656e6465642100000000000000000000600082015250565b6000611dbf6016836112b3565b9150611dca82611d89565b602082019050919050565b60006020820190508181036000830152611dee81611db2565b9050919050565b7f4c6f7474657279206973207374696c6c206f6e676f696e670000000000000000600082015250565b6000611e2b6018836112b3565b9150611e3682611df5565b602082019050919050565b60006020820190508181036000830152611e5a81611e1e565b905091905056fea2646970667358221220203327a2432a01605936425dbd97f87073ccd5a0391b3f0fa57c4d0f5888e1f864736f6c63430008120033",
					"opcodes": "PUSH1 0x80 PUSH1 0x40 MSTORE CALLVALUE DUP1 ISZERO PUSH2 0x10 JUMPI PUSH1 0x0 DUP1 REVERT JUMPDEST POP CALLER PUSH1 0x0 DUP1 PUSH2 0x100 EXP DUP2 SLOAD DUP2 PUSH20 0xFFFFFFFFFFFFFFFFFFFFFFFFFFFFFFFFFFFFFFFF MUL NOT AND SWAP1 DUP4 PUSH20 0xFFFFFFFFFFFFFFFFFFFFFFFFFFFFFFFFFFFFFFFF AND MUL OR SWAP1 SSTORE POP PUSH2 0x1E97 DUP1 PUSH2 0x60 PUSH1 0x0 CODECOPY PUSH1 0x0 RETURN INVALID PUSH1 0x80 PUSH1 0x40 MSTORE PUSH1 0x4 CALLDATASIZE LT PUSH2 0xE8 JUMPI PUSH1 0x0 CALLDATALOAD PUSH1 0xE0 SHR DUP1 PUSH4 0x799FB6EE GT PUSH2 0x8A JUMPI DUP1 PUSH4 0xD9618D80 GT PUSH2 0x59 JUMPI DUP1 PUSH4 0xD9618D80 EQ PUSH2 0x2B5 JUMPI DUP1 PUSH4 0xDBDFF2C1 EQ PUSH2 0x2F2 JUMPI DUP1 PUSH4 0xED7A4E0B EQ PUSH2 0x31D JUMPI DUP1 PUSH4 0xEFBE1C1C EQ PUSH2 0x348 JUMPI PUSH2 0xE8 JUMP JUMPDEST DUP1 PUSH4 0x799FB6EE EQ PUSH2 0x1E3 JUMPI DUP1 PUSH4 0x7CC3AE8C EQ PUSH2 0x222 JUMPI DUP1 PUSH4 0x8DA5CB5B EQ PUSH2 0x24D JUMPI DUP1 PUSH4 0xC6BA8211 EQ PUSH2 0x278 JUMPI PUSH2 0xE8 JUMP JUMPDEST DUP1 PUSH4 0x160344E2 GT PUSH2 0xC6 JUMPI DUP1 PUSH4 0x160344E2 EQ PUSH2 0x15F JUMPI DUP1 PUSH4 0x1F2698AB EQ PUSH2 0x176 JUMPI DUP1 PUSH4 0x5AA68AC0 EQ PUSH2 0x1A1 JUMPI DUP1 PUSH4 0x5D495AEA EQ PUSH2 0x1CC JUMPI PUSH2 0xE8 JUMP JUMPDEST DUP1 PUSH4 0x7400F09 EQ PUSH2 0xED JUMPI DUP1 PUSH4 0x12065FE0 EQ PUSH2 0x109 JUMPI DUP1 PUSH4 0x12FA6FEB EQ PUSH2 0x134 JUMPI JUMPDEST PUSH1 0x0 DUP1 REVERT JUMPDEST PUSH2 0x107 PUSH1 0x4 DUP1 CALLDATASIZE SUB DUP2 ADD SWAP1 PUSH2 0x102 SWAP2 SWAP1 PUSH2 0x106F JUMP JUMPDEST PUSH2 0x35F JUMP JUMPDEST STOP JUMPDEST CALLVALUE DUP1 ISZERO PUSH2 0x115 JUMPI PUSH1 0x0 DUP1 REVERT JUMPDEST POP PUSH2 0x11E PUSH2 0x590 JUMP JUMPDEST PUSH1 0x40 MLOAD PUSH2 0x12B SWAP2 SWAP1 PUSH2 0x10DA JUMP JUMPDEST PUSH1 0x40 MLOAD DUP1 SWAP2 SUB SWAP1 RETURN JUMPDEST CALLVALUE DUP1 ISZERO PUSH2 0x140 JUMPI PUSH1 0x0 DUP1 REVERT JUMPDEST POP PUSH2 0x149 PUSH2 0x598 JUMP JUMPDEST PUSH1 0x40 MLOAD PUSH2 0x156 SWAP2 SWAP1 PUSH2 0x1110 JUMP JUMPDEST PUSH1 0x40 MLOAD DUP1 SWAP2 SUB SWAP1 RETURN JUMPDEST CALLVALUE DUP1 ISZERO PUSH2 0x16B JUMPI PUSH1 0x0 DUP1 REVERT JUMPDEST POP PUSH2 0x174 PUSH2 0x5AB JUMP JUMPDEST STOP JUMPDEST CALLVALUE DUP1 ISZERO PUSH2 0x182 JUMPI PUSH1 0x0 DUP1 REVERT JUMPDEST POP PUSH2 0x18B PUSH2 0x6BB JUMP JUMPDEST PUSH1 0x40 MLOAD PUSH2 0x198 SWAP2 SWAP1 PUSH2 0x1110 JUMP JUMPDEST PUSH1 0x40 MLOAD DUP1 SWAP2 SUB SWAP1 RETURN JUMPDEST CALLVALUE DUP1 ISZERO PUSH2 0x1AD JUMPI PUSH1 0x0 DUP1 REVERT JUMPDEST POP PUSH2 0x1B6 PUSH2 0x6CE JUMP JUMPDEST PUSH1 0x40 MLOAD PUSH2 0x1C3 SWAP2 SWAP1 PUSH2 0x121B JUMP JUMPDEST PUSH1 0x40 MLOAD DUP1 SWAP2 SUB SWAP1 RETURN JUMPDEST CALLVALUE DUP1 ISZERO PUSH2 0x1D8 JUMPI PUSH1 0x0 DUP1 REVERT JUMPDEST POP PUSH2 0x1E1 PUSH2 0x75C JUMP JUMPDEST STOP JUMPDEST CALLVALUE DUP1 ISZERO PUSH2 0x1EF JUMPI PUSH1 0x0 DUP1 REVERT JUMPDEST POP PUSH2 0x20A PUSH1 0x4 DUP1 CALLDATASIZE SUB DUP2 ADD SWAP1 PUSH2 0x205 SWAP2 SWAP1 PUSH2 0x127B JUMP JUMPDEST PUSH2 0xA22 JUMP JUMPDEST PUSH1 0x40 MLOAD PUSH2 0x219 SWAP4 SWAP3 SWAP2 SWAP1 PUSH2 0x1336 JUMP JUMPDEST PUSH1 0x40 MLOAD DUP1 SWAP2 SUB SWAP1 RETURN JUMPDEST CALLVALUE DUP1 ISZERO PUSH2 0x22E JUMPI PUSH1 0x0 DUP1 REVERT JUMPDEST POP PUSH2 0x237 PUSH2 0xAF4 JUMP JUMPDEST PUSH1 0x40 MLOAD PUSH2 0x244 SWAP2 SWAP1 PUSH2 0x10DA JUMP JUMPDEST PUSH1 0x40 MLOAD DUP1 SWAP2 SUB SWAP1 RETURN JUMPDEST CALLVALUE DUP1 ISZERO PUSH2 0x259 JUMPI PUSH1 0x0 DUP1 REVERT JUMPDEST POP PUSH2 0x262 PUSH2 0xAFA JUMP JUMPDEST PUSH1 0x40 MLOAD PUSH2 0x26F SWAP2 SWAP1 PUSH2 0x1374 JUMP JUMPDEST PUSH1 0x40 MLOAD DUP1 SWAP2 SUB SWAP1 RETURN JUMPDEST CALLVALUE DUP1 ISZERO PUSH2 0x284 JUMPI PUSH1 0x0 DUP1 REVERT JUMPDEST POP PUSH2 0x29F PUSH1 0x4 DUP1 CALLDATASIZE SUB DUP2 ADD SWAP1 PUSH2 0x29A SWAP2 SWAP1 PUSH2 0x138F JUMP JUMPDEST PUSH2 0xB1E JUMP JUMPDEST PUSH1 0x40 MLOAD PUSH2 0x2AC SWAP2 SWAP1 PUSH2 0x13CB JUMP JUMPDEST PUSH1 0x40 MLOAD DUP1 SWAP2 SUB SWAP1 RETURN JUMPDEST CALLVALUE DUP1 ISZERO PUSH2 0x2C1 JUMPI PUSH1 0x0 DUP1 REVERT JUMPDEST POP PUSH2 0x2DC PUSH1 0x4 DUP1 CALLDATASIZE SUB DUP2 ADD SWAP1 PUSH2 0x2D7 SWAP2 SWAP1 PUSH2 0x127B JUMP JUMPDEST PUSH2 0xB5D JUMP JUMPDEST PUSH1 0x40 MLOAD PUSH2 0x2E9 SWAP2 SWAP1 PUSH2 0x149E JUMP JUMPDEST PUSH1 0x40 MLOAD DUP1 SWAP2 SUB SWAP1 RETURN JUMPDEST CALLVALUE DUP1 ISZERO PUSH2 0x2FE JUMPI PUSH1 0x0 DUP1 REVERT JUMPDEST POP PUSH2 0x307 PUSH2 0xCA8 JUMP JUMPDEST PUSH1 0x40 MLOAD PUSH2 0x314 SWAP2 SWAP1 PUSH2 0x10DA JUMP JUMPDEST PUSH1 0x40 MLOAD DUP1 SWAP2 SUB SWAP1 RETURN JUMPDEST CALLVALUE DUP1 ISZERO PUSH2 0x329 JUMPI PUSH1 0x0 DUP1 REVERT JUMPDEST POP PUSH2 0x332 PUSH2 0xCDB JUMP JUMPDEST PUSH1 0x40 MLOAD PUSH2 0x33F SWAP2 SWAP1 PUSH2 0x1374 JUMP JUMPDEST PUSH1 0x40 MLOAD DUP1 SWAP2 SUB SWAP1 RETURN JUMPDEST CALLVALUE DUP1 ISZERO PUSH2 0x354 JUMPI PUSH1 0x0 DUP1 REVERT JUMPDEST POP PUSH2 0x35D PUSH2 0xD01 JUMP JUMPDEST STOP JUMPDEST PUSH1 0x1 ISZERO ISZERO PUSH1 0x0 PUSH1 0x14 SWAP1 SLOAD SWAP1 PUSH2 0x100 EXP SWAP1 DIV PUSH1 0xFF AND ISZERO ISZERO EQ PUSH2 0x3B5 JUMPI PUSH1 0x40 MLOAD PUSH32 0x8C379A000000000000000000000000000000000000000000000000000000000 DUP2 MSTORE PUSH1 0x4 ADD PUSH2 0x3AC SWAP1 PUSH2 0x1532 JUMP JUMPDEST PUSH1 0x40 MLOAD DUP1 SWAP2 SUB SWAP1 REVERT JUMPDEST PUSH1 0x0 PUSH1 0x15 SWAP1 SLOAD SWAP1 PUSH2 0x100 EXP SWAP1 DIV PUSH1 0xFF AND ISZERO PUSH2 0x405 JUMPI PUSH1 0x40 MLOAD PUSH32 0x8C379A000000000000000000000000000000000000000000000000000000000 DUP2 MSTORE PUSH1 0x4 ADD PUSH2 0x3FC SWAP1 PUSH2 0x159E JUMP JUMPDEST PUSH1 0x40 MLOAD DUP1 SWAP2 SUB SWAP1 REVERT JUMPDEST PUSH7 0x2386F26FC10000 CALLVALUE LT ISZERO PUSH2 0x44F JUMPI PUSH1 0x40 MLOAD PUSH32 0x8C379A000000000000000000000000000000000000000000000000000000000 DUP2 MSTORE PUSH1 0x4 ADD PUSH2 0x446 SWAP1 PUSH2 0x1630 JUMP JUMPDEST PUSH1 0x40 MLOAD DUP1 SWAP2 SUB SWAP1 REVERT JUMPDEST PUSH1 0x3 CALLER SWAP1 DUP1 PUSH1 0x1 DUP2 SLOAD ADD DUP1 DUP3 SSTORE DUP1 SWAP2 POP POP PUSH1 0x1 SWAP1 SUB SWAP1 PUSH1 0x0 MSTORE PUSH1 0x20 PUSH1 0x0 KECCAK256 ADD PUSH1 0x0 SWAP1 SWAP2 SWAP1 SWAP2 SWAP1 SWAP2 PUSH2 0x100 EXP DUP2 SLOAD DUP2 PUSH20 0xFFFFFFFFFFFFFFFFFFFFFFFFFFFFFFFFFFFFFFFF MUL NOT AND SWAP1 DUP4 PUSH20 0xFFFFFFFFFFFFFFFFFFFFFFFFFFFFFFFFFFFFFFFF AND MUL OR SWAP1 SSTORE POP PUSH1 0x40 MLOAD DUP1 PUSH1 0x60 ADD PUSH1 0x40 MSTORE DUP1 DUP4 DUP2 MSTORE PUSH1 0x20 ADD DUP3 DUP2 MSTORE PUSH1 0x20 ADD CALLER PUSH20 0xFFFFFFFFFFFFFFFFFFFFFFFFFFFFFFFFFFFFFFFF AND DUP2 MSTORE POP PUSH1 0x4 PUSH1 0x0 CALLER PUSH20 0xFFFFFFFFFFFFFFFFFFFFFFFFFFFFFFFFFFFFFFFF AND PUSH20 0xFFFFFFFFFFFFFFFFFFFFFFFFFFFFFFFFFFFFFFFF AND DUP2 MSTORE PUSH1 0x20 ADD SWAP1 DUP2 MSTORE PUSH1 0x20 ADD PUSH1 0x0 KECCAK256 PUSH1 0x0 DUP3 ADD MLOAD DUP2 PUSH1 0x0 ADD SWAP1 DUP2 PUSH2 0x537 SWAP2 SWAP1 PUSH2 0x185C JUMP JUMPDEST POP PUSH1 0x20 DUP3 ADD MLOAD DUP2 PUSH1 0x1 ADD SSTORE PUSH1 0x40 DUP3 ADD MLOAD DUP2 PUSH1 0x2 ADD PUSH1 0x0 PUSH2 0x100 EXP DUP2 SLOAD DUP2 PUSH20 0xFFFFFFFFFFFFFFFFFFFFFFFFFFFFFFFFFFFFFFFF MUL NOT AND SWAP1 DUP4 PUSH20 0xFFFFFFFFFFFFFFFFFFFFFFFFFFFFFFFFFFFFFFFF AND MUL OR SWAP1 SSTORE POP SWAP1 POP POP POP POP JUMP JUMPDEST PUSH1 0x0 SELFBALANCE SWAP1 POP SWAP1 JUMP JUMPDEST PUSH1 0x0 PUSH1 0x15 SWAP1 SLOAD SWAP1 PUSH2 0x100 EXP SWAP1 DIV PUSH1 0xFF AND DUP2 JUMP JUMPDEST PUSH1 0x0 DUP1 SLOAD SWAP1 PUSH2 0x100 EXP SWAP1 DIV PUSH20 0xFFFFFFFFFFFFFFFFFFFFFFFFFFFFFFFFFFFFFFFF AND PUSH20 0xFFFFFFFFFFFFFFFFFFFFFFFFFFFFFFFFFFFFFFFF AND CALLER PUSH20 0xFFFFFFFFFFFFFFFFFFFFFFFFFFFFFFFFFFFFFFFF AND EQ PUSH2 0x639 JUMPI PUSH1 0x40 MLOAD PUSH32 0x8C379A000000000000000000000000000000000000000000000000000000000 DUP2 MSTORE PUSH1 0x4 ADD PUSH2 0x630 SWAP1 PUSH2 0x19A0 JUMP JUMPDEST PUSH1 0x40 MLOAD DUP1 SWAP2 SUB SWAP1 REVERT JUMPDEST PUSH1 0x0 PUSH1 0x14 SWAP1 SLOAD SWAP1 PUSH2 0x100 EXP SWAP1 DIV PUSH1 0xFF AND ISZERO PUSH2 0x689 JUMPI PUSH1 0x40 MLOAD PUSH32 0x8C379A000000000000000000000000000000000000000000000000000000000 DUP2 MSTORE PUSH1 0x4 ADD PUSH2 0x680 SWAP1 PUSH2 0x1A0C JUMP JUMPDEST PUSH1 0x40 MLOAD DUP1 SWAP2 SUB SWAP1 REVERT JUMPDEST PUSH1 0x1 PUSH1 0x0 PUSH1 0x14 PUSH2 0x100 EXP DUP2 SLOAD DUP2 PUSH1 0xFF MUL NOT AND SWAP1 DUP4 ISZERO ISZERO MUL OR SWAP1 SSTORE POP PUSH3 0x93A80 TIMESTAMP PUSH2 0x6B3 SWAP2 SWAP1 PUSH2 0x1A5B JUMP JUMPDEST PUSH1 0x1 DUP2 SWAP1 SSTORE POP JUMP JUMPDEST PUSH1 0x0 PUSH1 0x14 SWAP1 SLOAD SWAP1 PUSH2 0x100 EXP SWAP1 DIV PUSH1 0xFF AND DUP2 JUMP JUMPDEST PUSH1 0x60 PUSH1 0x3 DUP1 SLOAD DUP1 PUSH1 0x20 MUL PUSH1 0x20 ADD PUSH1 0x40 MLOAD SWAP1 DUP2 ADD PUSH1 0x40 MSTORE DUP1 SWAP3 SWAP2 SWAP1 DUP2 DUP2 MSTORE PUSH1 0x20 ADD DUP3 DUP1 SLOAD DUP1 ISZERO PUSH2 0x752 JUMPI PUSH1 0x20 MUL DUP3 ADD SWAP2 SWAP1 PUSH1 0x0 MSTORE PUSH1 0x20 PUSH1 0x0 KECCAK256 SWAP1 JUMPDEST DUP2 PUSH1 0x0 SWAP1 SLOAD SWAP1 PUSH2 0x100 EXP SWAP1 DIV PUSH20 0xFFFFFFFFFFFFFFFFFFFFFFFFFFFFFFFFFFFFFFFF AND PUSH20 0xFFFFFFFFFFFFFFFFFFFFFFFFFFFFFFFFFFFFFFFF AND DUP2 MSTORE PUSH1 0x20 ADD SWAP1 PUSH1 0x1 ADD SWAP1 DUP1 DUP4 GT PUSH2 0x708 JUMPI JUMPDEST POP POP POP POP POP SWAP1 POP SWAP1 JUMP JUMPDEST PUSH1 0x0 DUP1 SLOAD SWAP1 PUSH2 0x100 EXP SWAP1 DIV PUSH20 0xFFFFFFFFFFFFFFFFFFFFFFFFFFFFFFFFFFFFFFFF AND PUSH20 0xFFFFFFFFFFFFFFFFFFFFFFFFFFFFFFFFFFFFFFFF AND CALLER PUSH20 0xFFFFFFFFFFFFFFFFFFFFFFFFFFFFFFFFFFFFFFFF AND EQ PUSH2 0x7EA JUMPI PUSH1 0x40 MLOAD PUSH32 0x8C379A000000000000000000000000000000000000000000000000000000000 DUP2 MSTORE PUSH1 0x4 ADD PUSH2 0x7E1 SWAP1 PUSH2 0x19A0 JUMP JUMPDEST PUSH1 0x40 MLOAD DUP1 SWAP2 SUB SWAP1 REVERT JUMPDEST PUSH1 0x0 PUSH1 0x15 SWAP1 SLOAD SWAP1 PUSH2 0x100 EXP SWAP1 DIV PUSH1 0xFF AND PUSH2 0x839 JUMPI PUSH1 0x40 MLOAD PUSH32 0x8C379A000000000000000000000000000000000000000000000000000000000 DUP2 MSTORE PUSH1 0x4 ADD PUSH2 0x830 SWAP1 PUSH2 0x1B01 JUMP JUMPDEST PUSH1 0x40 MLOAD DUP1 SWAP2 SUB SWAP1 REVERT JUMPDEST PUSH1 0x0 PUSH1 0x3 DUP1 SLOAD SWAP1 POP PUSH2 0x849 PUSH2 0xCA8 JUMP JUMPDEST PUSH2 0x853 SWAP2 SWAP1 PUSH2 0x1B50 JUMP JUMPDEST SWAP1 POP PUSH1 0x3 DUP2 DUP2 SLOAD DUP2 LT PUSH2 0x869 JUMPI PUSH2 0x868 PUSH2 0x1B81 JUMP JUMPDEST JUMPDEST SWAP1 PUSH1 0x0 MSTORE PUSH1 0x20 PUSH1 0x0 KECCAK256 ADD PUSH1 0x0 SWAP1 SLOAD SWAP1 PUSH2 0x100 EXP SWAP1 DIV PUSH20 0xFFFFFFFFFFFFFFFFFFFFFFFFFFFFFFFFFFFFFFFF AND PUSH1 0x2 PUSH1 0x0 PUSH2 0x100 EXP DUP2 SLOAD DUP2 PUSH20 0xFFFFFFFFFFFFFFFFFFFFFFFFFFFFFFFFFFFFFFFF MUL NOT AND SWAP1 DUP4 PUSH20 0xFFFFFFFFFFFFFFFFFFFFFFFFFFFFFFFFFFFFFFFF AND MUL OR SWAP1 SSTORE POP PUSH1 0x0 PUSH1 0x3 DUP3 DUP2 SLOAD DUP2 LT PUSH2 0x8EA JUMPI PUSH2 0x8E9 PUSH2 0x1B81 JUMP JUMPDEST JUMPDEST SWAP1 PUSH1 0x0 MSTORE PUSH1 0x20 PUSH1 0x0 KECCAK256 ADD PUSH1 0x0 SWAP1 SLOAD SWAP1 PUSH2 0x100 EXP SWAP1 DIV PUSH20 0xFFFFFFFFFFFFFFFFFFFFFFFFFFFFFFFFFFFFFFFF AND PUSH20 0xFFFFFFFFFFFFFFFFFFFFFFFFFFFFFFFFFFFFFFFF AND SELFBALANCE PUSH1 0x40 MLOAD PUSH2 0x938 SWAP1 PUSH2 0x1BE1 JUMP JUMPDEST PUSH1 0x0 PUSH1 0x40 MLOAD DUP1 DUP4 SUB DUP2 DUP6 DUP8 GAS CALL SWAP3 POP POP POP RETURNDATASIZE DUP1 PUSH1 0x0 DUP2 EQ PUSH2 0x975 JUMPI PUSH1 0x40 MLOAD SWAP2 POP PUSH1 0x1F NOT PUSH1 0x3F RETURNDATASIZE ADD AND DUP3 ADD PUSH1 0x40 MSTORE RETURNDATASIZE DUP3 MSTORE RETURNDATASIZE PUSH1 0x0 PUSH1 0x20 DUP5 ADD RETURNDATACOPY PUSH2 0x97A JUMP JUMPDEST PUSH1 0x60 SWAP2 POP JUMPDEST POP POP SWAP1 POP DUP1 PUSH2 0x9BE JUMPI PUSH1 0x40 MLOAD PUSH32 0x8C379A000000000000000000000000000000000000000000000000000000000 DUP2 MSTORE PUSH1 0x4 ADD PUSH2 0x9B5 SWAP1 PUSH2 0x1C42 JUMP JUMPDEST PUSH1 0x40 MLOAD DUP1 SWAP2 SUB SWAP1 REVERT JUMPDEST PUSH1 0x0 PUSH8 0xFFFFFFFFFFFFFFFF DUP2 GT ISZERO PUSH2 0x9D9 JUMPI PUSH2 0x9D8 PUSH2 0xF0E JUMP JUMPDEST JUMPDEST PUSH1 0x40 MLOAD SWAP1 DUP1 DUP3 MSTORE DUP1 PUSH1 0x20 MUL PUSH1 0x20 ADD DUP3 ADD PUSH1 0x40 MSTORE DUP1 ISZERO PUSH2 0xA07 JUMPI DUP2 PUSH1 0x20 ADD PUSH1 0x20 DUP3 MUL DUP1 CALLDATASIZE DUP4 CALLDATACOPY DUP1 DUP3 ADD SWAP2 POP POP SWAP1 POP JUMPDEST POP PUSH1 0x3 SWAP1 DUP1 MLOAD SWAP1 PUSH1 0x20 ADD SWAP1 PUSH2 0xA1D SWAP3 SWAP2 SWAP1 PUSH2 0xE01 JUMP JUMPDEST POP POP POP JUMP JUMPDEST PUSH1 0x4 PUSH1 0x20 MSTORE DUP1 PUSH1 0x0 MSTORE PUSH1 0x40 PUSH1 0x0 KECCAK256 PUSH1 0x0 SWAP2 POP SWAP1 POP DUP1 PUSH1 0x0 ADD DUP1 SLOAD PUSH2 0xA45 SWAP1 PUSH2 0x167F JUMP JUMPDEST DUP1 PUSH1 0x1F ADD PUSH1 0x20 DUP1 SWAP2 DIV MUL PUSH1 0x20 ADD PUSH1 0x40 MLOAD SWAP1 DUP2 ADD PUSH1 0x40 MSTORE DUP1 SWAP3 SWAP2 SWAP1 DUP2 DUP2 MSTORE PUSH1 0x20 ADD DUP3 DUP1 SLOAD PUSH2 0xA71 SWAP1 PUSH2 0x167F JUMP JUMPDEST DUP1 ISZERO PUSH2 0xABE JUMPI DUP1 PUSH1 0x1F LT PUSH2 0xA93 JUMPI PUSH2 0x100 DUP1 DUP4 SLOAD DIV MUL DUP4 MSTORE SWAP2 PUSH1 0x20 ADD SWAP2 PUSH2 0xABE JUMP JUMPDEST DUP3 ADD SWAP2 SWAP1 PUSH1 0x0 MSTORE PUSH1 0x20 PUSH1 0x0 KECCAK256 SWAP1 JUMPDEST DUP2 SLOAD DUP2 MSTORE SWAP1 PUSH1 0x1 ADD SWAP1 PUSH1 0x20 ADD DUP1 DUP4 GT PUSH2 0xAA1 JUMPI DUP3 SWAP1 SUB PUSH1 0x1F AND DUP3 ADD SWAP2 JUMPDEST POP POP POP POP POP SWAP1 DUP1 PUSH1 0x1 ADD SLOAD SWAP1 DUP1 PUSH1 0x2 ADD PUSH1 0x0 SWAP1 SLOAD SWAP1 PUSH2 0x100 EXP SWAP1 DIV PUSH20 0xFFFFFFFFFFFFFFFFFFFFFFFFFFFFFFFFFFFFFFFF AND SWAP1 POP DUP4 JUMP JUMPDEST PUSH1 0x1 SLOAD DUP2 JUMP JUMPDEST PUSH1 0x0 DUP1 SLOAD SWAP1 PUSH2 0x100 EXP SWAP1 DIV PUSH20 0xFFFFFFFFFFFFFFFFFFFFFFFFFFFFFFFFFFFFFFFF AND DUP2 JUMP JUMPDEST PUSH1 0x3 DUP2 DUP2 SLOAD DUP2 LT PUSH2 0xB2E JUMPI PUSH1 0x0 DUP1 REVERT JUMPDEST SWAP1 PUSH1 0x0 MSTORE PUSH1 0x20 PUSH1 0x0 KECCAK256 ADD PUSH1 0x0 SWAP2 POP SLOAD SWAP1 PUSH2 0x100 EXP SWAP1 DIV PUSH20 0xFFFFFFFFFFFFFFFFFFFFFFFFFFFFFFFFFFFFFFFF AND DUP2 JUMP JUMPDEST PUSH2 0xB65 PUSH2 0xE8B JUMP JUMPDEST PUSH1 0x4 PUSH1 0x0 DUP4 PUSH20 0xFFFFFFFFFFFFFFFFFFFFFFFFFFFFFFFFFFFFFFFF AND PUSH20 0xFFFFFFFFFFFFFFFFFFFFFFFFFFFFFFFFFFFFFFFF AND DUP2 MSTORE PUSH1 0x20 ADD SWAP1 DUP2 MSTORE PUSH1 0x20 ADD PUSH1 0x0 KECCAK256 PUSH1 0x40 MLOAD DUP1 PUSH1 0x60 ADD PUSH1 0x40 MSTORE SWAP1 DUP2 PUSH1 0x0 DUP3 ADD DUP1 SLOAD PUSH2 0xBBF SWAP1 PUSH2 0x167F JUMP JUMPDEST DUP1 PUSH1 0x1F ADD PUSH1 0x20 DUP1 SWAP2 DIV MUL PUSH1 0x20 ADD PUSH1 0x40 MLOAD SWAP1 DUP2 ADD PUSH1 0x40 MSTORE DUP1 SWAP3 SWAP2 SWAP1 DUP2 DUP2 MSTORE PUSH1 0x20 ADD DUP3 DUP1 SLOAD PUSH2 0xBEB SWAP1 PUSH2 0x167F JUMP JUMPDEST DUP1 ISZERO PUSH2 0xC38 JUMPI DUP1 PUSH1 0x1F LT PUSH2 0xC0D JUMPI PUSH2 0x100 DUP1 DUP4 SLOAD DIV MUL DUP4 MSTORE SWAP2 PUSH1 0x20 ADD SWAP2 PUSH2 0xC38 JUMP JUMPDEST DUP3 ADD SWAP2 SWAP1 PUSH1 0x0 MSTORE PUSH1 0x20 PUSH1 0x0 KECCAK256 SWAP1 JUMPDEST DUP2 SLOAD DUP2 MSTORE SWAP1 PUSH1 0x1 ADD SWAP1 PUSH1 0x20 ADD DUP1 DUP4 GT PUSH2 0xC1B JUMPI DUP3 SWAP1 SUB PUSH1 0x1F AND DUP3 ADD SWAP2 JUMPDEST POP POP POP POP POP DUP2 MSTORE PUSH1 0x20 ADD PUSH1 0x1 DUP3 ADD SLOAD DUP2 MSTORE PUSH1 0x20 ADD PUSH1 0x2 DUP3 ADD PUSH1 0x0 SWAP1 SLOAD SWAP1 PUSH2 0x100 EXP SWAP1 DIV PUSH20 0xFFFFFFFFFFFFFFFFFFFFFFFFFFFFFFFFFFFFFFFF AND PUSH20 0xFFFFFFFFFFFFFFFFFFFFFFFFFFFFFFFFFFFFFFFF AND PUSH20 0xFFFFFFFFFFFFFFFFFFFFFFFFFFFFFFFFFFFFFFFF AND DUP2 MSTORE POP POP SWAP1 POP SWAP2 SWAP1 POP JUMP JUMPDEST PUSH1 0x0 TIMESTAMP CALLER PUSH1 0x40 MLOAD PUSH1 0x20 ADD PUSH2 0xCBD SWAP3 SWAP2 SWAP1 PUSH2 0x1CCB JUMP JUMPDEST PUSH1 0x40 MLOAD PUSH1 0x20 DUP2 DUP4 SUB SUB DUP2 MSTORE SWAP1 PUSH1 0x40 MSTORE DUP1 MLOAD SWAP1 PUSH1 0x20 ADD KECCAK256 PUSH1 0x0 SHR SWAP1 POP SWAP1 JUMP JUMPDEST PUSH1 0x2 PUSH1 0x0 SWAP1 SLOAD SWAP1 PUSH2 0x100 EXP SWAP1 DIV PUSH20 0xFFFFFFFFFFFFFFFFFFFFFFFFFFFFFFFFFFFFFFFF AND DUP2 JUMP JUMPDEST PUSH1 0x0 PUSH1 0x14 SWAP1 SLOAD SWAP1 PUSH2 0x100 EXP SWAP1 DIV PUSH1 0xFF AND PUSH2 0xD50 JUMPI PUSH1 0x40 MLOAD PUSH32 0x8C379A000000000000000000000000000000000000000000000000000000000 DUP2 MSTORE PUSH1 0x4 ADD PUSH2 0xD47 SWAP1 PUSH2 0x1D69 JUMP JUMPDEST PUSH1 0x40 MLOAD DUP1 SWAP2 SUB SWAP1 REVERT JUMPDEST PUSH1 0x0 PUSH1 0x15 SWAP1 SLOAD SWAP1 PUSH2 0x100 EXP SWAP1 DIV PUSH1 0xFF AND ISZERO PUSH2 0xDA0 JUMPI PUSH1 0x40 MLOAD PUSH32 0x8C379A000000000000000000000000000000000000000000000000000000000 DUP2 MSTORE PUSH1 0x4 ADD PUSH2 0xD97 SWAP1 PUSH2 0x1DD5 JUMP JUMPDEST PUSH1 0x40 MLOAD DUP1 SWAP2 SUB SWAP1 REVERT JUMPDEST PUSH1 0x1 SLOAD TIMESTAMP GT PUSH2 0xDE4 JUMPI PUSH1 0x40 MLOAD PUSH32 0x8C379A000000000000000000000000000000000000000000000000000000000 DUP2 MSTORE PUSH1 0x4 ADD PUSH2 0xDDB SWAP1 PUSH2 0x1E41 JUMP JUMPDEST PUSH1 0x40 MLOAD DUP1 SWAP2 SUB SWAP1 REVERT JUMPDEST PUSH1 0x1 PUSH1 0x0 PUSH1 0x15 PUSH2 0x100 EXP DUP2 SLOAD DUP2 PUSH1 0xFF MUL NOT AND SWAP1 DUP4 ISZERO ISZERO MUL OR SWAP1 SSTORE POP JUMP JUMPDEST DUP3 DUP1 SLOAD DUP3 DUP3 SSTORE SWAP1 PUSH1 0x0 MSTORE PUSH1 0x20 PUSH1 0x0 KECCAK256 SWAP1 DUP2 ADD SWAP3 DUP3 ISZERO PUSH2 0xE7A JUMPI SWAP2 PUSH1 0x20 MUL DUP3 ADD JUMPDEST DUP3 DUP2 GT ISZERO PUSH2 0xE79 JUMPI DUP3 MLOAD DUP3 PUSH1 0x0 PUSH2 0x100 EXP DUP2 SLOAD DUP2 PUSH20 0xFFFFFFFFFFFFFFFFFFFFFFFFFFFFFFFFFFFFFFFF MUL NOT AND SWAP1 DUP4 PUSH20 0xFFFFFFFFFFFFFFFFFFFFFFFFFFFFFFFFFFFFFFFF AND MUL OR SWAP1 SSTORE POP SWAP2 PUSH1 0x20 ADD SWAP2 SWAP1 PUSH1 0x1 ADD SWAP1 PUSH2 0xE21 JUMP JUMPDEST JUMPDEST POP SWAP1 POP PUSH2 0xE87 SWAP2 SWAP1 PUSH2 0xEC2 JUMP JUMPDEST POP SWAP1 JUMP JUMPDEST PUSH1 0x40 MLOAD DUP1 PUSH1 0x60 ADD PUSH1 0x40 MSTORE DUP1 PUSH1 0x60 DUP2 MSTORE PUSH1 0x20 ADD PUSH1 0x0 DUP2 MSTORE PUSH1 0x20 ADD PUSH1 0x0 PUSH20 0xFFFFFFFFFFFFFFFFFFFFFFFFFFFFFFFFFFFFFFFF AND DUP2 MSTORE POP SWAP1 JUMP JUMPDEST JUMPDEST DUP1 DUP3 GT ISZERO PUSH2 0xEDB JUMPI PUSH1 0x0 DUP2 PUSH1 0x0 SWAP1 SSTORE POP PUSH1 0x1 ADD PUSH2 0xEC3 JUMP JUMPDEST POP SWAP1 JUMP JUMPDEST PUSH1 0x0 PUSH1 0x40 MLOAD SWAP1 POP SWAP1 JUMP JUMPDEST PUSH1 0x0 DUP1 REVERT JUMPDEST PUSH1 0x0 DUP1 REVERT JUMPDEST PUSH1 0x0 DUP1 REVERT JUMPDEST PUSH1 0x0 DUP1 REVERT JUMPDEST PUSH1 0x0 PUSH1 0x1F NOT PUSH1 0x1F DUP4 ADD AND SWAP1 POP SWAP2 SWAP1 POP JUMP JUMPDEST PUSH32 0x4E487B7100000000000000000000000000000000000000000000000000000000 PUSH1 0x0 MSTORE PUSH1 0x41 PUSH1 0x4 MSTORE PUSH1 0x24 PUSH1 0x0 REVERT JUMPDEST PUSH2 0xF46 DUP3 PUSH2 0xEFD JUMP JUMPDEST DUP2 ADD DUP2 DUP2 LT PUSH8 0xFFFFFFFFFFFFFFFF DUP3 GT OR ISZERO PUSH2 0xF65 JUMPI PUSH2 0xF64 PUSH2 0xF0E JUMP JUMPDEST JUMPDEST DUP1 PUSH1 0x40 MSTORE POP POP POP JUMP JUMPDEST PUSH1 0x0 PUSH2 0xF78 PUSH2 0xEDF JUMP JUMPDEST SWAP1 POP PUSH2 0xF84 DUP3 DUP3 PUSH2 0xF3D JUMP JUMPDEST SWAP2 SWAP1 POP JUMP JUMPDEST PUSH1 0x0 PUSH8 0xFFFFFFFFFFFFFFFF DUP3 GT ISZERO PUSH2 0xFA4 JUMPI PUSH2 0xFA3 PUSH2 0xF0E JUMP JUMPDEST JUMPDEST PUSH2 0xFAD DUP3 PUSH2 0xEFD JUMP JUMPDEST SWAP1 POP PUSH1 0x20 DUP2 ADD SWAP1 POP SWAP2 SWAP1 POP JUMP JUMPDEST DUP3 DUP2 DUP4 CALLDATACOPY PUSH1 0x0 DUP4 DUP4 ADD MSTORE POP POP POP JUMP JUMPDEST PUSH1 0x0 PUSH2 0xFDC PUSH2 0xFD7 DUP5 PUSH2 0xF89 JUMP JUMPDEST PUSH2 0xF6E JUMP JUMPDEST SWAP1 POP DUP3 DUP2 MSTORE PUSH1 0x20 DUP2 ADD DUP5 DUP5 DUP5 ADD GT ISZERO PUSH2 0xFF8 JUMPI PUSH2 0xFF7 PUSH2 0xEF8 JUMP JUMPDEST JUMPDEST PUSH2 0x1003 DUP5 DUP3 DUP6 PUSH2 0xFBA JUMP JUMPDEST POP SWAP4 SWAP3 POP POP POP JUMP JUMPDEST PUSH1 0x0 DUP3 PUSH1 0x1F DUP4 ADD SLT PUSH2 0x1020 JUMPI PUSH2 0x101F PUSH2 0xEF3 JUMP JUMPDEST JUMPDEST DUP2 CALLDATALOAD PUSH2 0x1030 DUP5 DUP3 PUSH1 0x20 DUP7 ADD PUSH2 0xFC9 JUMP JUMPDEST SWAP2 POP POP SWAP3 SWAP2 POP POP JUMP JUMPDEST PUSH1 0x0 DUP2 SWAP1 POP SWAP2 SWAP1 POP JUMP JUMPDEST PUSH2 0x104C DUP2 PUSH2 0x1039 JUMP JUMPDEST DUP2 EQ PUSH2 0x1057 JUMPI PUSH1 0x0 DUP1 REVERT JUMPDEST POP JUMP JUMPDEST PUSH1 0x0 DUP2 CALLDATALOAD SWAP1 POP PUSH2 0x1069 DUP2 PUSH2 0x1043 JUMP JUMPDEST SWAP3 SWAP2 POP POP JUMP JUMPDEST PUSH1 0x0 DUP1 PUSH1 0x40 DUP4 DUP6 SUB SLT ISZERO PUSH2 0x1086 JUMPI PUSH2 0x1085 PUSH2 0xEE9 JUMP JUMPDEST JUMPDEST PUSH1 0x0 DUP4 ADD CALLDATALOAD PUSH8 0xFFFFFFFFFFFFFFFF DUP2 GT ISZERO PUSH2 0x10A4 JUMPI PUSH2 0x10A3 PUSH2 0xEEE JUMP JUMPDEST JUMPDEST PUSH2 0x10B0 DUP6 DUP3 DUP7 ADD PUSH2 0x100B JUMP JUMPDEST SWAP3 POP POP PUSH1 0x20 PUSH2 0x10C1 DUP6 DUP3 DUP7 ADD PUSH2 0x105A JUMP JUMPDEST SWAP2 POP POP SWAP3 POP SWAP3 SWAP1 POP JUMP JUMPDEST PUSH2 0x10D4 DUP2 PUSH2 0x1039 JUMP JUMPDEST DUP3 MSTORE POP POP JUMP JUMPDEST PUSH1 0x0 PUSH1 0x20 DUP3 ADD SWAP1 POP PUSH2 0x10EF PUSH1 0x0 DUP4 ADD DUP5 PUSH2 0x10CB JUMP JUMPDEST SWAP3 SWAP2 POP POP JUMP JUMPDEST PUSH1 0x0 DUP2 ISZERO ISZERO SWAP1 POP SWAP2 SWAP1 POP JUMP JUMPDEST PUSH2 0x110A DUP2 PUSH2 0x10F5 JUMP JUMPDEST DUP3 MSTORE POP POP JUMP JUMPDEST PUSH1 0x0 PUSH1 0x20 DUP3 ADD SWAP1 POP PUSH2 0x1125 PUSH1 0x0 DUP4 ADD DUP5 PUSH2 0x1101 JUMP JUMPDEST SWAP3 SWAP2 POP POP JUMP JUMPDEST PUSH1 0x0 DUP2 MLOAD SWAP1 POP SWAP2 SWAP1 POP JUMP JUMPDEST PUSH1 0x0 DUP3 DUP3 MSTORE PUSH1 0x20 DUP3 ADD SWAP1 POP SWAP3 SWAP2 POP POP JUMP JUMPDEST PUSH1 0x0 DUP2 SWAP1 POP PUSH1 0x20 DUP3 ADD SWAP1 POP SWAP2 SWAP1 POP JUMP JUMPDEST PUSH1 0x0 PUSH20 0xFFFFFFFFFFFFFFFFFFFFFFFFFFFFFFFFFFFFFFFF DUP3 AND SWAP1 POP SWAP2 SWAP1 POP JUMP JUMPDEST PUSH1 0x0 PUSH2 0x1182 DUP3 PUSH2 0x1157 JUMP JUMPDEST SWAP1 POP SWAP2 SWAP1 POP JUMP JUMPDEST PUSH2 0x1192 DUP2 PUSH2 0x1177 JUMP JUMPDEST DUP3 MSTORE POP POP JUMP JUMPDEST PUSH1 0x0 PUSH2 0x11A4 DUP4 DUP4 PUSH2 0x1189 JUMP JUMPDEST PUSH1 0x20 DUP4 ADD SWAP1 POP SWAP3 SWAP2 POP POP JUMP JUMPDEST PUSH1 0x0 PUSH1 0x20 DUP3 ADD SWAP1 POP SWAP2 SWAP1 POP JUMP JUMPDEST PUSH1 0x0 PUSH2 0x11C8 DUP3 PUSH2 0x112B JUMP JUMPDEST PUSH2 0x11D2 DUP2 DUP6 PUSH2 0x1136 JUMP JUMPDEST SWAP4 POP PUSH2 0x11DD DUP4 PUSH2 0x1147 JUMP JUMPDEST DUP1 PUSH1 0x0 JUMPDEST DUP4 DUP2 LT ISZERO PUSH2 0x120E JUMPI DUP2 MLOAD PUSH2 0x11F5 DUP9 DUP3 PUSH2 0x1198 JUMP JUMPDEST SWAP8 POP PUSH2 0x1200 DUP4 PUSH2 0x11B0 JUMP JUMPDEST SWAP3 POP POP PUSH1 0x1 DUP2 ADD SWAP1 POP PUSH2 0x11E1 JUMP JUMPDEST POP DUP6 SWAP4 POP POP POP POP SWAP3 SWAP2 POP POP JUMP JUMPDEST PUSH1 0x0 PUSH1 0x20 DUP3 ADD SWAP1 POP DUP2 DUP2 SUB PUSH1 0x0 DUP4 ADD MSTORE PUSH2 0x1235 DUP2 DUP5 PUSH2 0x11BD JUMP JUMPDEST SWAP1 POP SWAP3 SWAP2 POP POP JUMP JUMPDEST PUSH1 0x0 PUSH2 0x1248 DUP3 PUSH2 0x1157 JUMP JUMPDEST SWAP1 POP SWAP2 SWAP1 POP JUMP JUMPDEST PUSH2 0x1258 DUP2 PUSH2 0x123D JUMP JUMPDEST DUP2 EQ PUSH2 0x1263 JUMPI PUSH1 0x0 DUP1 REVERT JUMPDEST POP JUMP JUMPDEST PUSH1 0x0 DUP2 CALLDATALOAD SWAP1 POP PUSH2 0x1275 DUP2 PUSH2 0x124F JUMP JUMPDEST SWAP3 SWAP2 POP POP JUMP JUMPDEST PUSH1 0x0 PUSH1 0x20 DUP3 DUP5 SUB SLT ISZERO PUSH2 0x1291 JUMPI PUSH2 0x1290 PUSH2 0xEE9 JUMP JUMPDEST JUMPDEST PUSH1 0x0 PUSH2 0x129F DUP5 DUP3 DUP6 ADD PUSH2 0x1266 JUMP JUMPDEST SWAP2 POP POP SWAP3 SWAP2 POP POP JUMP JUMPDEST PUSH1 0x0 DUP2 MLOAD SWAP1 POP SWAP2 SWAP1 POP JUMP JUMPDEST PUSH1 0x0 DUP3 DUP3 MSTORE PUSH1 0x20 DUP3 ADD SWAP1 POP SWAP3 SWAP2 POP POP JUMP JUMPDEST PUSH1 0x0 JUMPDEST DUP4 DUP2 LT ISZERO PUSH2 0x12E2 JUMPI DUP1 DUP3 ADD MLOAD DUP2 DUP5 ADD MSTORE PUSH1 0x20 DUP2 ADD SWAP1 POP PUSH2 0x12C7 JUMP JUMPDEST PUSH1 0x0 DUP5 DUP5 ADD MSTORE POP POP POP POP JUMP JUMPDEST PUSH1 0x0 PUSH2 0x12F9 DUP3 PUSH2 0x12A8 JUMP JUMPDEST PUSH2 0x1303 DUP2 DUP6 PUSH2 0x12B3 JUMP JUMPDEST SWAP4 POP PUSH2 0x1313 DUP2 DUP6 PUSH1 0x20 DUP7 ADD PUSH2 0x12C4 JUMP JUMPDEST PUSH2 0x131C DUP2 PUSH2 0xEFD JUMP JUMPDEST DUP5 ADD SWAP2 POP POP SWAP3 SWAP2 POP POP JUMP JUMPDEST PUSH2 0x1330 DUP2 PUSH2 0x123D JUMP JUMPDEST DUP3 MSTORE POP POP JUMP JUMPDEST PUSH1 0x0 PUSH1 0x60 DUP3 ADD SWAP1 POP DUP2 DUP2 SUB PUSH1 0x0 DUP4 ADD MSTORE PUSH2 0x1350 DUP2 DUP7 PUSH2 0x12EE JUMP JUMPDEST SWAP1 POP PUSH2 0x135F PUSH1 0x20 DUP4 ADD DUP6 PUSH2 0x10CB JUMP JUMPDEST PUSH2 0x136C PUSH1 0x40 DUP4 ADD DUP5 PUSH2 0x1327 JUMP JUMPDEST SWAP5 SWAP4 POP POP POP POP JUMP JUMPDEST PUSH1 0x0 PUSH1 0x20 DUP3 ADD SWAP1 POP PUSH2 0x1389 PUSH1 0x0 DUP4 ADD DUP5 PUSH2 0x1327 JUMP JUMPDEST SWAP3 SWAP2 POP POP JUMP JUMPDEST PUSH1 0x0 PUSH1 0x20 DUP3 DUP5 SUB SLT ISZERO PUSH2 0x13A5 JUMPI PUSH2 0x13A4 PUSH2 0xEE9 JUMP JUMPDEST JUMPDEST PUSH1 0x0 PUSH2 0x13B3 DUP5 DUP3 DUP6 ADD PUSH2 0x105A JUMP JUMPDEST SWAP2 POP POP SWAP3 SWAP2 POP POP JUMP JUMPDEST PUSH2 0x13C5 DUP2 PUSH2 0x1177 JUMP JUMPDEST DUP3 MSTORE POP POP JUMP JUMPDEST PUSH1 0x0 PUSH1 0x20 DUP3 ADD SWAP1 POP PUSH2 0x13E0 PUSH1 0x0 DUP4 ADD DUP5 PUSH2 0x13BC JUMP JUMPDEST SWAP3 SWAP2 POP POP JUMP JUMPDEST PUSH1 0x0 DUP3 DUP3 MSTORE PUSH1 0x20 DUP3 ADD SWAP1 POP SWAP3 SWAP2 POP POP JUMP JUMPDEST PUSH1 0x0 PUSH2 0x1402 DUP3 PUSH2 0x12A8 JUMP JUMPDEST PUSH2 0x140C DUP2 DUP6 PUSH2 0x13E6 JUMP JUMPDEST SWAP4 POP PUSH2 0x141C DUP2 DUP6 PUSH1 0x20 DUP7 ADD PUSH2 0x12C4 JUMP JUMPDEST PUSH2 0x1425 DUP2 PUSH2 0xEFD JUMP JUMPDEST DUP5 ADD SWAP2 POP POP SWAP3 SWAP2 POP POP JUMP JUMPDEST PUSH2 0x1439 DUP2 PUSH2 0x1039 JUMP JUMPDEST DUP3 MSTORE POP POP JUMP JUMPDEST PUSH2 0x1448 DUP2 PUSH2 0x123D JUMP JUMPDEST DUP3 MSTORE POP POP JUMP JUMPDEST PUSH1 0x0 PUSH1 0x60 DUP4 ADD PUSH1 0x0 DUP4 ADD MLOAD DUP5 DUP3 SUB PUSH1 0x0 DUP7 ADD MSTORE PUSH2 0x146B DUP3 DUP3 PUSH2 0x13F7 JUMP JUMPDEST SWAP2 POP POP PUSH1 0x20 DUP4 ADD MLOAD PUSH2 0x1480 PUSH1 0x20 DUP7 ADD DUP3 PUSH2 0x1430 JUMP JUMPDEST POP PUSH1 0x40 DUP4 ADD MLOAD PUSH2 0x1493 PUSH1 0x40 DUP7 ADD DUP3 PUSH2 0x143F JUMP JUMPDEST POP DUP1 SWAP2 POP POP SWAP3 SWAP2 POP POP JUMP JUMPDEST PUSH1 0x0 PUSH1 0x20 DUP3 ADD SWAP1 POP DUP2 DUP2 SUB PUSH1 0x0 DUP4 ADD MSTORE PUSH2 0x14B8 DUP2 DUP5 PUSH2 0x144E JUMP JUMPDEST SWAP1 POP SWAP3 SWAP2 POP POP JUMP JUMPDEST PUSH32 0x4C6F74746572792073686F756C64206265207374617274656420666972737420 PUSH1 0x0 DUP3 ADD MSTORE PUSH32 0x6265666F726520796F7520656E74657221000000000000000000000000000000 PUSH1 0x20 DUP3 ADD MSTORE POP JUMP JUMPDEST PUSH1 0x0 PUSH2 0x151C PUSH1 0x31 DUP4 PUSH2 0x12B3 JUMP JUMPDEST SWAP2 POP PUSH2 0x1527 DUP3 PUSH2 0x14C0 JUMP JUMPDEST PUSH1 0x40 DUP3 ADD SWAP1 POP SWAP2 SWAP1 POP JUMP JUMPDEST PUSH1 0x0 PUSH1 0x20 DUP3 ADD SWAP1 POP DUP2 DUP2 SUB PUSH1 0x0 DUP4 ADD MSTORE PUSH2 0x154B DUP2 PUSH2 0x150F JUMP JUMPDEST SWAP1 POP SWAP2 SWAP1 POP JUMP JUMPDEST PUSH32 0x4C6F74746572792068617320616C726561647920656E64656421000000000000 PUSH1 0x0 DUP3 ADD MSTORE POP JUMP JUMPDEST PUSH1 0x0 PUSH2 0x1588 PUSH1 0x1A DUP4 PUSH2 0x12B3 JUMP JUMPDEST SWAP2 POP PUSH2 0x1593 DUP3 PUSH2 0x1552 JUMP JUMPDEST PUSH1 0x20 DUP3 ADD SWAP1 POP SWAP2 SWAP1 POP JUMP JUMPDEST PUSH1 0x0 PUSH1 0x20 DUP3 ADD SWAP1 POP DUP2 DUP2 SUB PUSH1 0x0 DUP4 ADD MSTORE PUSH2 0x15B7 DUP2 PUSH2 0x157B JUMP JUMPDEST SWAP1 POP SWAP2 SWAP1 POP JUMP JUMPDEST PUSH32 0x596F75206E6565642061746C65617374202E303120657468657220746F20656E PUSH1 0x0 DUP3 ADD MSTORE PUSH32 0x74657220746865206C6F74746572790000000000000000000000000000000000 PUSH1 0x20 DUP3 ADD MSTORE POP JUMP JUMPDEST PUSH1 0x0 PUSH2 0x161A PUSH1 0x2F DUP4 PUSH2 0x12B3 JUMP JUMPDEST SWAP2 POP PUSH2 0x1625 DUP3 PUSH2 0x15BE JUMP JUMPDEST PUSH1 0x40 DUP3 ADD SWAP1 POP SWAP2 SWAP1 POP JUMP JUMPDEST PUSH1 0x0 PUSH1 0x20 DUP3 ADD SWAP1 POP DUP2 DUP2 SUB PUSH1 0x0 DUP4 ADD MSTORE PUSH2 0x1649 DUP2 PUSH2 0x160D JUMP JUMPDEST SWAP1 POP SWAP2 SWAP1 POP JUMP JUMPDEST PUSH32 0x4E487B7100000000000000000000000000000000000000000000000000000000 PUSH1 0x0 MSTORE PUSH1 0x22 PUSH1 0x4 MSTORE PUSH1 0x24 PUSH1 0x0 REVERT JUMPDEST PUSH1 0x0 PUSH1 0x2 DUP3 DIV SWAP1 POP PUSH1 0x1 DUP3 AND DUP1 PUSH2 0x1697 JUMPI PUSH1 0x7F DUP3 AND SWAP2 POP JUMPDEST PUSH1 0x20 DUP3 LT DUP2 SUB PUSH2 0x16AA JUMPI PUSH2 0x16A9 PUSH2 0x1650 JUMP JUMPDEST JUMPDEST POP SWAP2 SWAP1 POP JUMP JUMPDEST PUSH1 0x0 DUP2 SWAP1 POP DUP2 PUSH1 0x0 MSTORE PUSH1 0x20 PUSH1 0x0 KECCAK256 SWAP1 POP SWAP2 SWAP1 POP JUMP JUMPDEST PUSH1 0x0 PUSH1 0x20 PUSH1 0x1F DUP4 ADD DIV SWAP1 POP SWAP2 SWAP1 POP JUMP JUMPDEST PUSH1 0x0 DUP3 DUP3 SHL SWAP1 POP SWAP3 SWAP2 POP POP JUMP JUMPDEST PUSH1 0x0 PUSH1 0x8 DUP4 MUL PUSH2 0x1712 PUSH32 0xFFFFFFFFFFFFFFFFFFFFFFFFFFFFFFFFFFFFFFFFFFFFFFFFFFFFFFFFFFFFFFFF DUP3 PUSH2 0x16D5 JUMP JUMPDEST PUSH2 0x171C DUP7 DUP4 PUSH2 0x16D5 JUMP JUMPDEST SWAP6 POP DUP1 NOT DUP5 AND SWAP4 POP DUP1 DUP7 AND DUP5 OR SWAP3 POP POP POP SWAP4 SWAP3 POP POP POP JUMP JUMPDEST PUSH1 0x0 DUP2 SWAP1 POP SWAP2 SWAP1 POP JUMP JUMPDEST PUSH1 0x0 PUSH2 0x1759 PUSH2 0x1754 PUSH2 0x174F DUP5 PUSH2 0x1039 JUMP JUMPDEST PUSH2 0x1734 JUMP JUMPDEST PUSH2 0x1039 JUMP JUMPDEST SWAP1 POP SWAP2 SWAP1 POP JUMP JUMPDEST PUSH1 0x0 DUP2 SWAP1 POP SWAP2 SWAP1 POP JUMP JUMPDEST PUSH2 0x1773 DUP4 PUSH2 0x173E JUMP JUMPDEST PUSH2 0x1787 PUSH2 0x177F DUP3 PUSH2 0x1760 JUMP JUMPDEST DUP5 DUP5 SLOAD PUSH2 0x16E2 JUMP JUMPDEST DUP3 SSTORE POP POP POP POP JUMP JUMPDEST PUSH1 0x0 SWAP1 JUMP JUMPDEST PUSH2 0x179C PUSH2 0x178F JUMP JUMPDEST PUSH2 0x17A7 DUP2 DUP5 DUP5 PUSH2 0x176A JUMP JUMPDEST POP POP POP JUMP JUMPDEST JUMPDEST DUP2 DUP2 LT ISZERO PUSH2 0x17CB JUMPI PUSH2 0x17C0 PUSH1 0x0 DUP3 PUSH2 0x1794 JUMP JUMPDEST PUSH1 0x1 DUP2 ADD SWAP1 POP PUSH2 0x17AD JUMP JUMPDEST POP POP JUMP JUMPDEST PUSH1 0x1F DUP3 GT ISZERO PUSH2 0x1810 JUMPI PUSH2 0x17E1 DUP2 PUSH2 0x16B0 JUMP JUMPDEST PUSH2 0x17EA DUP5 PUSH2 0x16C5 JUMP JUMPDEST DUP2 ADD PUSH1 0x20 DUP6 LT ISZERO PUSH2 0x17F9 JUMPI DUP2 SWAP1 POP JUMPDEST PUSH2 0x180D PUSH2 0x1805 DUP6 PUSH2 0x16C5 JUMP JUMPDEST DUP4 ADD DUP3 PUSH2 0x17AC JUMP JUMPDEST POP POP JUMPDEST POP POP POP JUMP JUMPDEST PUSH1 0x0 DUP3 DUP3 SHR SWAP1 POP SWAP3 SWAP2 POP POP JUMP JUMPDEST PUSH1 0x0 PUSH2 0x1833 PUSH1 0x0 NOT DUP5 PUSH1 0x8 MUL PUSH2 0x1815 JUMP JUMPDEST NOT DUP1 DUP4 AND SWAP2 POP POP SWAP3 SWAP2 POP POP JUMP JUMPDEST PUSH1 0x0 PUSH2 0x184C DUP4 DUP4 PUSH2 0x1822 JUMP JUMPDEST SWAP2 POP DUP3 PUSH1 0x2 MUL DUP3 OR SWAP1 POP SWAP3 SWAP2 POP POP JUMP JUMPDEST PUSH2 0x1865 DUP3 PUSH2 0x12A8 JUMP JUMPDEST PUSH8 0xFFFFFFFFFFFFFFFF DUP2 GT ISZERO PUSH2 0x187E JUMPI PUSH2 0x187D PUSH2 0xF0E JUMP JUMPDEST JUMPDEST PUSH2 0x1888 DUP3 SLOAD PUSH2 0x167F JUMP JUMPDEST PUSH2 0x1893 DUP3 DUP3 DUP6 PUSH2 0x17CF JUMP JUMPDEST PUSH1 0x0 PUSH1 0x20 SWAP1 POP PUSH1 0x1F DUP4 GT PUSH1 0x1 DUP2 EQ PUSH2 0x18C6 JUMPI PUSH1 0x0 DUP5 ISZERO PUSH2 0x18B4 JUMPI DUP3 DUP8 ADD MLOAD SWAP1 POP JUMPDEST PUSH2 0x18BE DUP6 DUP3 PUSH2 0x1840 JUMP JUMPDEST DUP7 SSTORE POP PUSH2 0x1926 JUMP JUMPDEST PUSH1 0x1F NOT DUP5 AND PUSH2 0x18D4 DUP7 PUSH2 0x16B0 JUMP JUMPDEST PUSH1 0x0 JUMPDEST DUP3 DUP2 LT ISZERO PUSH2 0x18FC JUMPI DUP5 DUP10 ADD MLOAD DUP3 SSTORE PUSH1 0x1 DUP3 ADD SWAP2 POP PUSH1 0x20 DUP6 ADD SWAP5 POP PUSH1 0x20 DUP2 ADD SWAP1 POP PUSH2 0x18D7 JUMP JUMPDEST DUP7 DUP4 LT ISZERO PUSH2 0x1919 JUMPI DUP5 DUP10 ADD MLOAD PUSH2 0x1915 PUSH1 0x1F DUP10 AND DUP3 PUSH2 0x1822 JUMP JUMPDEST DUP4 SSTORE POP JUMPDEST PUSH1 0x1 PUSH1 0x2 DUP9 MUL ADD DUP9 SSTORE POP POP POP JUMPDEST POP POP POP POP POP POP JUMP JUMPDEST PUSH32 0x4F6E6C79206F776E65722063616E2063616C6C20746869732066756E6374696F PUSH1 0x0 DUP3 ADD MSTORE PUSH32 0x6E21000000000000000000000000000000000000000000000000000000000000 PUSH1 0x20 DUP3 ADD MSTORE POP JUMP JUMPDEST PUSH1 0x0 PUSH2 0x198A PUSH1 0x22 DUP4 PUSH2 0x12B3 JUMP JUMPDEST SWAP2 POP PUSH2 0x1995 DUP3 PUSH2 0x192E JUMP JUMPDEST PUSH1 0x40 DUP3 ADD SWAP1 POP SWAP2 SWAP1 POP JUMP JUMPDEST PUSH1 0x0 PUSH1 0x20 DUP3 ADD SWAP1 POP DUP2 DUP2 SUB PUSH1 0x0 DUP4 ADD MSTORE PUSH2 0x19B9 DUP2 PUSH2 0x197D JUMP JUMPDEST SWAP1 POP SWAP2 SWAP1 POP JUMP JUMPDEST PUSH32 0x4C6F747465727920616C72656164792073746172746564210000000000000000 PUSH1 0x0 DUP3 ADD MSTORE POP JUMP JUMPDEST PUSH1 0x0 PUSH2 0x19F6 PUSH1 0x18 DUP4 PUSH2 0x12B3 JUMP JUMPDEST SWAP2 POP PUSH2 0x1A01 DUP3 PUSH2 0x19C0 JUMP JUMPDEST PUSH1 0x20 DUP3 ADD SWAP1 POP SWAP2 SWAP1 POP JUMP JUMPDEST PUSH1 0x0 PUSH1 0x20 DUP3 ADD SWAP1 POP DUP2 DUP2 SUB PUSH1 0x0 DUP4 ADD MSTORE PUSH2 0x1A25 DUP2 PUSH2 0x19E9 JUMP JUMPDEST SWAP1 POP SWAP2 SWAP1 POP JUMP JUMPDEST PUSH32 0x4E487B7100000000000000000000000000000000000000000000000000000000 PUSH1 0x0 MSTORE PUSH1 0x11 PUSH1 0x4 MSTORE PUSH1 0x24 PUSH1 0x0 REVERT JUMPDEST PUSH1 0x0 PUSH2 0x1A66 DUP3 PUSH2 0x1039 JUMP JUMPDEST SWAP2 POP PUSH2 0x1A71 DUP4 PUSH2 0x1039 JUMP JUMPDEST SWAP3 POP DUP3 DUP3 ADD SWAP1 POP DUP1 DUP3 GT ISZERO PUSH2 0x1A89 JUMPI PUSH2 0x1A88 PUSH2 0x1A2C JUMP JUMPDEST JUMPDEST SWAP3 SWAP2 POP POP JUMP JUMPDEST PUSH32 0x4C6F74746572792073686F756C6420626520656E64656420696E206F72646572 PUSH1 0x0 DUP3 ADD MSTORE PUSH32 0x20746F2064657465726D696E65207468652077696E6E65722100000000000000 PUSH1 0x20 DUP3 ADD MSTORE POP JUMP JUMPDEST PUSH1 0x0 PUSH2 0x1AEB PUSH1 0x39 DUP4 PUSH2 0x12B3 JUMP JUMPDEST SWAP2 POP PUSH2 0x1AF6 DUP3 PUSH2 0x1A8F JUMP JUMPDEST PUSH1 0x40 DUP3 ADD SWAP1 POP SWAP2 SWAP1 POP JUMP JUMPDEST PUSH1 0x0 PUSH1 0x20 DUP3 ADD SWAP1 POP DUP2 DUP2 SUB PUSH1 0x0 DUP4 ADD MSTORE PUSH2 0x1B1A DUP2 PUSH2 0x1ADE JUMP JUMPDEST SWAP1 POP SWAP2 SWAP1 POP JUMP JUMPDEST PUSH32 0x4E487B7100000000000000000000000000000000000000000000000000000000 PUSH1 0x0 MSTORE PUSH1 0x12 PUSH1 0x4 MSTORE PUSH1 0x24 PUSH1 0x0 REVERT JUMPDEST PUSH1 0x0 PUSH2 0x1B5B DUP3 PUSH2 0x1039 JUMP JUMPDEST SWAP2 POP PUSH2 0x1B66 DUP4 PUSH2 0x1039 JUMP JUMPDEST SWAP3 POP DUP3 PUSH2 0x1B76 JUMPI PUSH2 0x1B75 PUSH2 0x1B21 JUMP JUMPDEST JUMPDEST DUP3 DUP3 MOD SWAP1 POP SWAP3 SWAP2 POP POP JUMP JUMPDEST PUSH32 0x4E487B7100000000000000000000000000000000000000000000000000000000 PUSH1 0x0 MSTORE PUSH1 0x32 PUSH1 0x4 MSTORE PUSH1 0x24 PUSH1 0x0 REVERT JUMPDEST PUSH1 0x0 DUP2 SWAP1 POP SWAP3 SWAP2 POP POP JUMP JUMPDEST POP JUMP JUMPDEST PUSH1 0x0 PUSH2 0x1BCB PUSH1 0x0 DUP4 PUSH2 0x1BB0 JUMP JUMPDEST SWAP2 POP PUSH2 0x1BD6 DUP3 PUSH2 0x1BBB JUMP JUMPDEST PUSH1 0x0 DUP3 ADD SWAP1 POP SWAP2 SWAP1 POP JUMP JUMPDEST PUSH1 0x0 PUSH2 0x1BEC DUP3 PUSH2 0x1BBE JUMP JUMPDEST SWAP2 POP DUP2 SWAP1 POP SWAP2 SWAP1 POP JUMP JUMPDEST PUSH32 0x5472616E73666572696E67204661696C6C656421000000000000000000000000 PUSH1 0x0 DUP3 ADD MSTORE POP JUMP JUMPDEST PUSH1 0x0 PUSH2 0x1C2C PUSH1 0x14 DUP4 PUSH2 0x12B3 JUMP JUMPDEST SWAP2 POP PUSH2 0x1C37 DUP3 PUSH2 0x1BF6 JUMP JUMPDEST PUSH1 0x20 DUP3 ADD SWAP1 POP SWAP2 SWAP1 POP JUMP JUMPDEST PUSH1 0x0 PUSH1 0x20 DUP3 ADD SWAP1 POP DUP2 DUP2 SUB PUSH1 0x0 DUP4 ADD MSTORE PUSH2 0x1C5B DUP2 PUSH2 0x1C1F JUMP JUMPDEST SWAP1 POP SWAP2 SWAP1 POP JUMP JUMPDEST PUSH1 0x0 DUP2 SWAP1 POP SWAP2 SWAP1 POP JUMP JUMPDEST PUSH2 0x1C7D PUSH2 0x1C78 DUP3 PUSH2 0x1039 JUMP JUMPDEST PUSH2 0x1C62 JUMP JUMPDEST DUP3 MSTORE POP POP JUMP JUMPDEST PUSH1 0x0 DUP2 PUSH1 0x60 SHL SWAP1 POP SWAP2 SWAP1 POP JUMP JUMPDEST PUSH1 0x0 PUSH2 0x1C9B DUP3 PUSH2 0x1C83 JUMP JUMPDEST SWAP1 POP SWAP2 SWAP1 POP JUMP JUMPDEST PUSH1 0x0 PUSH2 0x1CAD DUP3 PUSH2 0x1C90 JUMP JUMPDEST SWAP1 POP SWAP2 SWAP1 POP JUMP JUMPDEST PUSH2 0x1CC5 PUSH2 0x1CC0 DUP3 PUSH2 0x123D JUMP JUMPDEST PUSH2 0x1CA2 JUMP JUMPDEST DUP3 MSTORE POP POP JUMP JUMPDEST PUSH1 0x0 PUSH2 0x1CD7 DUP3 DUP6 PUSH2 0x1C6C JUMP JUMPDEST PUSH1 0x20 DUP3 ADD SWAP2 POP PUSH2 0x1CE7 DUP3 DUP5 PUSH2 0x1CB4 JUMP JUMPDEST PUSH1 0x14 DUP3 ADD SWAP2 POP DUP2 SWAP1 POP SWAP4 SWAP3 POP POP POP JUMP JUMPDEST PUSH32 0x4C6F74746572792073686F756C64206265207374617274656420666972737420 PUSH1 0x0 DUP3 ADD MSTORE PUSH32 0x6265666F726520697420656E6473210000000000000000000000000000000000 PUSH1 0x20 DUP3 ADD MSTORE POP JUMP JUMPDEST PUSH1 0x0 PUSH2 0x1D53 PUSH1 0x2F DUP4 PUSH2 0x12B3 JUMP JUMPDEST SWAP2 POP PUSH2 0x1D5E DUP3 PUSH2 0x1CF7 JUMP JUMPDEST PUSH1 0x40 DUP3 ADD SWAP1 POP SWAP2 SWAP1 POP JUMP JUMPDEST PUSH1 0x0 PUSH1 0x20 DUP3 ADD SWAP1 POP DUP2 DUP2 SUB PUSH1 0x0 DUP4 ADD MSTORE PUSH2 0x1D82 DUP2 PUSH2 0x1D46 JUMP JUMPDEST SWAP1 POP SWAP2 SWAP1 POP JUMP JUMPDEST PUSH32 0x4C6F747465727920616C726561647920656E6465642100000000000000000000 PUSH1 0x0 DUP3 ADD MSTORE POP JUMP JUMPDEST PUSH1 0x0 PUSH2 0x1DBF PUSH1 0x16 DUP4 PUSH2 0x12B3 JUMP JUMPDEST SWAP2 POP PUSH2 0x1DCA DUP3 PUSH2 0x1D89 JUMP JUMPDEST PUSH1 0x20 DUP3 ADD SWAP1 POP SWAP2 SWAP1 POP JUMP JUMPDEST PUSH1 0x0 PUSH1 0x20 DUP3 ADD SWAP1 POP DUP2 DUP2 SUB PUSH1 0x0 DUP4 ADD MSTORE PUSH2 0x1DEE DUP2 PUSH2 0x1DB2 JUMP JUMPDEST SWAP1 POP SWAP2 SWAP1 POP JUMP JUMPDEST PUSH32 0x4C6F7474657279206973207374696C6C206F6E676F696E670000000000000000 PUSH1 0x0 DUP3 ADD MSTORE POP JUMP JUMPDEST PUSH1 0x0 PUSH2 0x1E2B PUSH1 0x18 DUP4 PUSH2 0x12B3 JUMP JUMPDEST SWAP2 POP PUSH2 0x1E36 DUP3 PUSH2 0x1DF5 JUMP JUMPDEST PUSH1 0x20 DUP3 ADD SWAP1 POP SWAP2 SWAP1 POP JUMP JUMPDEST PUSH1 0x0 PUSH1 0x20 DUP3 ADD SWAP1 POP DUP2 DUP2 SUB PUSH1 0x0 DUP4 ADD MSTORE PUSH2 0x1E5A DUP2 PUSH2 0x1E1E JUMP JUMPDEST SWAP1 POP SWAP2 SWAP1 POP JUMP INVALID LOG2 PUSH5 0x6970667358 0x22 SLT KECCAK256 KECCAK256 CALLER 0x27 LOG2 NUMBER 0x2A ADD PUSH1 0x59 CALLDATASIZE TIMESTAMP 0x5D 0xBD SWAP8 0xF8 PUSH17 0x73CCD5A0391B3F0FA57C4D0F5888E1F864 PUSH20 0x6F6C634300081200330000000000000000000000 "
				},
				"gasEstimates": {
					"creation": {
						"codeDepositCost": "1566200",
						"executionCost": "25904",
						"totalCost": "1592104"
					},
					"external": {
						"end()": "31080",
						"endAt()": "2474",
						"ended()": "2589",
						"enter(string,uint256)": "infinite",
						"getBalance()": "385",
						"getParticipants()": "infinite",
						"getRandomNumber()": "infinite",
						"getWinnerInfo(address)": "infinite",
						"owner()": "2578",
						"participants_Address(uint256)": "5045",
						"participants_Details(address)": "infinite",
						"pickWinner()": "infinite",
						"startLottery()": "infinite",
						"started()": "2566",
						"winnerAddress()": "2580"
					}
				},
				"methodIdentifiers": {
					"end()": "efbe1c1c",
					"endAt()": "7cc3ae8c",
					"ended()": "12fa6feb",
					"enter(string,uint256)": "07400f09",
					"getBalance()": "12065fe0",
					"getParticipants()": "5aa68ac0",
					"getRandomNumber()": "dbdff2c1",
					"getWinnerInfo(address)": "d9618d80",
					"owner()": "8da5cb5b",
					"participants_Address(uint256)": "c6ba8211",
					"participants_Details(address)": "799fb6ee",
					"pickWinner()": "5d495aea",
					"startLottery()": "160344e2",
					"started()": "1f2698ab",
					"winnerAddress()": "ed7a4e0b"
				}
			},
			"storageLayout": {
				"storage": [
					{
						"astId": 3,
						"contract": "Lottery.sol:Lottery_Contract",
						"label": "owner",
						"offset": 0,
						"slot": "0",
						"type": "t_address"
					},
					{
						"astId": 5,
						"contract": "Lottery.sol:Lottery_Contract",
						"label": "started",
						"offset": 20,
						"slot": "0",
						"type": "t_bool"
					},
					{
						"astId": 7,
						"contract": "Lottery.sol:Lottery_Contract",
						"label": "ended",
						"offset": 21,
						"slot": "0",
						"type": "t_bool"
					},
					{
						"astId": 9,
						"contract": "Lottery.sol:Lottery_Contract",
						"label": "endAt",
						"offset": 0,
						"slot": "1",
						"type": "t_uint256"
					},
					{
						"astId": 11,
						"contract": "Lottery.sol:Lottery_Contract",
						"label": "winnerAddress",
						"offset": 0,
						"slot": "2",
						"type": "t_address"
					},
					{
						"astId": 21,
						"contract": "Lottery.sol:Lottery_Contract",
						"label": "participants_Address",
						"offset": 0,
						"slot": "3",
						"type": "t_array(t_address_payable)dyn_storage"
					},
					{
						"astId": 26,
						"contract": "Lottery.sol:Lottery_Contract",
						"label": "participants_Details",
						"offset": 0,
						"slot": "4",
						"type": "t_mapping(t_address,t_struct(ParticipantStruct)18_storage)"
					}
				],
				"types": {
					"t_address": {
						"encoding": "inplace",
						"label": "address",
						"numberOfBytes": "20"
					},
					"t_address_payable": {
						"encoding": "inplace",
						"label": "address payable",
						"numberOfBytes": "20"
					},
					"t_array(t_address_payable)dyn_storage": {
						"base": "t_address_payable",
						"encoding": "dynamic_array",
						"label": "address payable[]",
						"numberOfBytes": "32"
					},
					"t_bool": {
						"encoding": "inplace",
						"label": "bool",
						"numberOfBytes": "1"
					},
					"t_mapping(t_address,t_struct(ParticipantStruct)18_storage)": {
						"encoding": "mapping",
						"key": "t_address",
						"label": "mapping(address => struct Lottery_Contract.ParticipantStruct)",
						"numberOfBytes": "32",
						"value": "t_struct(ParticipantStruct)18_storage"
					},
					"t_string_storage": {
						"encoding": "bytes",
						"label": "string",
						"numberOfBytes": "32"
					},
					"t_struct(ParticipantStruct)18_storage": {
						"encoding": "inplace",
						"label": "struct Lottery_Contract.ParticipantStruct",
						"members": [
							{
								"astId": 13,
								"contract": "Lottery.sol:Lottery_Contract",
								"label": "name",
								"offset": 0,
								"slot": "0",
								"type": "t_string_storage"
							},
							{
								"astId": 15,
								"contract": "Lottery.sol:Lottery_Contract",
								"label": "phoneNumber",
								"offset": 0,
								"slot": "1",
								"type": "t_uint256"
							},
							{
								"astId": 17,
								"contract": "Lottery.sol:Lottery_Contract",
								"label": "walletAddress",
								"offset": 0,
								"slot": "2",
								"type": "t_address"
							}
						],
						"numberOfBytes": "96"
					},
					"t_uint256": {
						"encoding": "inplace",
						"label": "uint256",
						"numberOfBytes": "32"
					}
				}
			},
			"userdoc": {
				"kind": "user",
				"methods": {},
				"version": 1
			}
		}
	}
}